S016000044535F315F31335F7374727563742E7372656320
S31500000000F0070020E1110000FD0F0000DD110000E7
S31500000010DD110000DD110000DD110000DD11000022
S31500000020000000000000000000000000DD110000DC
S31500000030DD11000000000000DD110000DD110000F0
S3150000004075080000ED070000050900004D090000D5
S315000000500348044B834202D0034B03B11847704751
S31500000060C8010020C801002000000000064B074917
S31500000070C91A891048BF0131491003D0044B0BB18E
S3150000008001481847704700BFC8010020C80100207A
S315000000900000000010B5064C237843B9FFF7D8FFDF
S315000000A0044B13B10448AFF300800123237010BD45
S315000000B0E801002000000000DC43000008B5054B05
S315000000C01BB105490548AFF30080BDE80840FFF7BE
S315000000D0CDBF00BF00000000EC010020DC430000A3
S315000000E070B504460D4B01221E689D684FF4806171
S315000000F0EB693046984720464FF47A7100F052FF7C
S315000001004FF480613046EB69002298472046BDE8EF
S3150000011070404FF47A7100F045BF00BFA83F000061
S31500000120024BD3E90112186812681047B43F000069
S315000001300379022B02D10122014B1A70704700BFCE
S31500000140040200200EB42DE9F0419DB023AA52F816
S31500000150041B03A8029202F0A5F99DF90C30DBB14D
S3150000016000252E460F4A104CD2F8088017688DF8E5
S31500000170073001223846D8F808300DF107019847B4
S315000001802378002BFCD00135EDB20DEB050393F976
S315000001900C302670002BEAD11DB0BDE8F04103B04B
S315000001A0704700BFB43F00000402002008B5FFF707
S315000001B0B7FF074B07491C682046FFF7C3FF962089
S315000001C0FFF78EFF20460349FFF7BCFFF7E700BFA6
S315000001D0B43F0000903F0000022800D0704702495B
S315000001E0024800F05DBD00BFF43F00000802002099
S315000001F008B5FFF7DBFF002008BD00BF034600205F
S31500000200012110B41A6A58609070DA692C4C92F980
S3150000021005204FEA521C02F01F0201FA02F20CF10D
S31500000220200C44F82C20BFF34F8FBFF36F8FDA6991
S3150000023092F90B204FEA521C02F01F0201FA02F259
S315000002400CF1200C44F82C20BFF34F8FBFF36F8FB7
S31500000250DA6992F907204FEA521C02F01F0201FAEE
S3150000026002F20CF1200C44F82C20BFF34F8FBFF3A1
S315000002706F8FDA6992F909204FEA521C02F01F02C9
S3150000028001FA02F20CF1200C44F82C20BFF34F8F38
S31500000290BFF36F8FEFF3108481F31088DB69094A8F
S315000002A093F800C04FF00043516823FA0CF30B4358
S315000002B05360536884F310885DF8044B704700BFA1
S315000002C000E100E00040084003460020C3E90512B3
S315000002D0704700BF10B4046AA37803F07B03A370D1
S315000002E08378046A03F00303D21A0B44C0E903328D
S315000002F0A37843F08003A3708378026A03F00303B4
S31500000300022B05D00B780020D3705DF8044B7047A4
S315000003100B88002043F47E43D3815DF8044B70477D
S3150000032084460020CCE90A32CCF82410704700BF7E
S3150000033001220346C0690078824012F0060F02D0FF
S315000003400A78120725D410B5186A827802F07B0E57
S3150000035002F00B0282700020D8601A6A8C78547002
S3150000036092F800C04C7864F3010C82F800C091F852
S3150000037003C082F812C0097892F807C001F05C0148
S315000003800CF0A30C41EA0C01D1711B6A83F802E060
S3150000039010BD0320704700BF4FF0FF330020C1E9B6
S315000003A0003370470346880710D510B40024186A36
S315000003B0C907827802F07B02827020461C6102D552
S315000003C0002210469A615DF8044B7047CA0748BF81
S315000003D000224FF0060044BF9A611046704700BFE6
S315000003E00346002210B49C6910460C609A615DF8C1
S315000003F0044B7047F0B5846A85B005460F469446AF
S315000004006E46B4B194E80F008DE80F00EB69204604
S315000004101B78A760236084F804C0EB6AE3606B6A0C
S315000004209847AC6A1CB196E80F0084E80F0005B047
S31500000430F0BD6C46EAE700BF012203460878824019
S3150000044012F0060F05D0CA6952681278120700F139
S31500000450C18100224FF0010C00F580002DE9F0412A
S3150000046000F58C500002C3E907101A704D699878A0
S315000004705D628D696CF30100C3E90A2598704878BE
S315000004809D78B0FA80F04009404200F0030080EA0F
S315000004900C0060F301059D7091F90B50CE4C680974
S315000004A005F01F0620300CFA06F691F80AE044F82B
S315000004B02060BFF34F8FBFF36F8FC84805F1C006AA
S315000004C050F8267062F3104740F8267050F8266000
S315000004D0C34E4FEA0E1E67195FFA8EFE87F800E3D9
S315000004E046F8253091F9055091F804E06F0905F0BA
S315000004F01F0820370CFA08F844F82780BFF34F8FFF
S31500000500BFF36F8F05F1C00750F8278062F31048DC
S3150000051040F8278050F827704FEA0E1E67195FFAD9
S315000005208EFE87F800E346F8253091F9075091F8DA
S3150000053006E06F0905F01F0820370CFA08F844F8A2
S315000005402780BFF34F8FBFF36F8F05F1C00750F8B9
S31500000550278062F3104840F8278050F827704FEA4A
S315000005600E1E67195FFA8EFE87F800E346F82530FF
S3150000057091F9095091F808E06F0905F01F08203736
S315000005800CFA08F844F82780BFF34F8FBFF36F8F3C
S3150000059005F1C00750F8278062F3104840F827801D
S315000005A050F827004FEA0E10C0B22C4484F800031E
S315000005B046F82530EFF310868CF310884FF000458F
S315000005C00C788848E540446824EA0504446040689D
S315000005D086F31088186A8270186A0271186A427265
S315000005E0186A8272186AC272186A428340F2F93235
S315000005F008780CFA00FC1CEA020F02D040201A6AA6
S31500000600D0740625012240F2F9301C6A25770C7851
S31500000610A240024240F0CA80CA7848788C78D2005C
S31500000620032842EA041200F0D18000280CBFE22021
S31500000630F2201C6AD2B222701A6A00259071CC6927
S31500000640186A227B082A0EBF0A22520002F0020212
S3150000065042736278A078D201400100F02000D2B245
S315000006600243186A057220781D6A0238012840F292
S31500000670A280D2B2EA7160681A6A847854704578AA
S31500000680147865F301041470C4789474D4790078EE
S3150000069004F0A30400F05C002043D0710020C3E9FD
S315000006A00300C3E90500DC694C4A94F90540CD69AD
S315000006B004F1C00152F8216095F800C060F31046BD
S315000006C042F821600CF0030C52F82110BFF35F8F43
S315000006D04FF0010E6109890004F01F0401F1604129
S315000006E001F561410EFA04F4C1F880410C60D96944
S315000006F091F90B4004F1C00152F8216060F31046F5
S3150000070042F8216052F82110BFF35F8F610989001A
S3150000071004F01F0401F160410EFA04F401F5614191
S31500000720C1F880410C60D96991F9074004F1C00114
S3150000073052F8216060F3104642F8216052F8211009
S31500000740BFF35F8F6109890004F01F0401F1604166
S315000007500EFA04F401F56141C1F880410C60D969D3
S3150000076091F9091001F1C00452F8246060F31046B3
S3150000077042F8246052F82420BFF35F8F4A099200A2
S3150000078001F01F0102F160420EFA01F102F5614229
S31500000790C2F8801111601A6A4CF0700C82F802C01F
S315000007A06989114A19815A60BDE8F0814FF4784091
S315000007B01A6A908230E7FF2068702078022808BF06
S315000007C042F01002186AD2B2C27167E7F22042F014
S315000007D040022EE70320704700E100E00060004081
S315000007E0840200200040084055494353EFF3038339
S315000007F0103B1E4A5BB203F1C00152F8210020F4FF
S31500000800803042F8210052F82120194A52F823007C
S31500000810C269036912690AB10BB1704773B9002145
S31500000820026A937803F07F0343F004039370436AEC
S31500000830C16013B18022FFF7DDBD70478378026A7D
S3150000084003F00303022BC1680BD00B78D3708278B8
S31500000850D0E9031302F003029B1A1144C0E9031303
S31500000860DAE70B8843F47E43D381F0E7006000406B
S315000008708402002010B582B0EFF30383103B1F4AB9
S315000008805BB203F1C00152F8210020F4803042F837
S31500000890210052F821201A4A52F82340A278236AEE
S315000008A002F0030102290CBF198A5979A3690CBF0A
S315000008B0C1F30801C9B2019143B9636AB3B1042215
S315000008C0204602B0BDE81040FFF794BD02F00302D7
S315000008D001A9606901F02CFED4E90521A37803F093
S315000008E003031A44C91AC4E9052109B102B010BDAF
S315000008F0636A002BFAD00122E2E700BF00600040E5
S315000009008402002010B5EFF303830E4A103B5CB25D
S3150000091052F82400026A937803F07B039370436ACB
S315000009201BB102220021FFF765FD074A04F1C0034F
S3150000093052F8231021F4803142F8231052F8233064
S3150000094010BD00BF840200200060004010B5EFF328
S3150000095003831A4A103B5CB252F824008278036A79
S3150000096002F00302022A0CBF198A597993F804C0CF
S315000009700CBFC1F30801C9B21CF0100F0CF038020D
S3150000098006D093F81CC01CF0010F08BF42F04002CD
S3150000099093F804C00CF0C70C83F804C0436A0BB18B
S315000009A0FFF728FD064A04F1C00352F8231021F48C
S315000009B0803142F8231052F8233010BD8402002003
S315000009C0006000400022034610461A60704700BFD0
S315000009D010B40B0A064C1B0153FA81F154F821306E
S315000009E00020C3F340035DF8044B1370704700BF4B
S315000009F000080840090A490101F1804101F500217A
S31500000A004B68002013807047090A490123EA020C4B
S31500000A1001F180411A4001F5002142EA0C42002012
S31500000A208A6070470120CBB2984080B202B90004B8
S31500000A300B0A5B0103F1804303F500239860002055
S31500000A40704700BF10B4090A490101F1804101F560
S31500000A5000210C6802EA030C4CEA040C62EA030269
S31500000A6002EA0C020A6000205DF8044B704700BFE2
S31500000A70090A490101F1804101F500214B68002076
S31500000A80C3F30F4313807047012310B44FEA112CB0
S31500000A904FEA4C1C0CF1804C0CF5002CDCF80440A1
S31500000AA0C9B28B4099B203EA14435B1AB3FA83F3D3
S31500000AB05B0900205DF8044B13707047090A490171
S31500000AC023EA020C01F180411A4001F5002142EAB5
S31500000AD00C420020CA607047012010B40B0A5B016B
S31500000AE003F1804303F50023C9B2DC6800FA01F183
S31500000AF0012A4FEA01400DBF84438C4304430C4353
S31500000B00DC6000205DF8044B704700BF2DE9F84F0C
S31500000B100388DBB182464FF0000B4FF00109DFF886
S31500000B20D0800024304D4FEACB07DAF8043035F890
S31500000B30022BD919898891420AD00134032CF4D1A9
S31500000B40BAF800300BF1010B5B45EAD8BDE8F88F27
S31500000B50DB5909FA04F603F0B853B3F1807FF6B215
S31500000B6098F8BB3413D0334231D1204A04F1200621
S31500000B7012F81630DB09E0D012F81630012123F006
S31500000B808003C82002F8163000F00CFAD5E733428D
S31500000B9011D0164A04F1200112F81130DB09CCD12C
S31500000BA012F81130C82043F0800302F811300121F9
S31500000BB000F0F8F9C1E7012000F0C6FA98F8BB3456
S31500000BC00120334388F8BB3400F08EFAE1E70120B8
S31500000BD000F0BAFA98F8BB34012023EA060388F835
S31500000BE0BB3400F081FAC0E75C40000000300840EA
S31500000BF000E00140F8B50646FFF788FFEFF31082E4
S31500000C00012383F31088234F3B681BB92249CB701D
S31500000C104023CB703B6801333B6082F310883388F6
S31500000C2023B300211D4D08E01B01134445F8234062
S31500000C30328801318BB29A4218D9736853F8314021
S31500000C4003EBC1029288E0034FEA1223D2B2EBD53E
S31500000C5002EB031055F820E024F4803C2EF4803E8D
S31500000C6045F820E01B0145F820C0DEE7EFF31082CF
S31500000C70012383F310883B6813B13B68013B3B605B
S31500000C803B681BB980200449CB70C87082F310887A
S31500000C90F8BD00BF80020020000D08400008084093
S31500000CA008B5034B03600846FFF7A4FF002008BD04
S31500000CB054524F5008B50846FFF79CFF002008BD68
S31500000CC070B5012686B001AB03A80C461546049301
S31500000CD0ADF80C60ADF808100192FFF717FFEFF3BF
S31500000CE0108286F310881D490B681BB940261C48E4
S31500000CF0C370C6700B6801330B6082F31088EA0379
S31500000D004FEA1423E4B219D41B01164A234442F8CD
S31500000D102350EFF31082012383F310880B6813B17D
S31500000D200B68013B0B600B681BB980200C49CB702C
S31500000D30C87082F31088002006B070BD094A04EB23
S31500000D40031052F820601B0126F4803642F820601A
S31500000D5025F4803642F82060D7E700BF80020020E5
S31500000D60000D084000080840064B074993F8260086
S31500000D701A6A51F82030C2F302620449D3400B606C
S31500000D80704700BF00E00140C8010020A00200201B
S31500000D90704700BFF8B54AF2035001234549464A59
S31500000DA0A1F8FE03A2F80431B2F804319BB2002B7D
S31500000DB0FAD101204FF400454FF0090C3F4CDFF803
S31500000DC018E13F4EC4F804E0DFF810E13D4FC4F8E7
S31500000DD00CE0A2F800013C4A3649B060306027605A
S31500000DE0A5602561626191F82620086A54F82220E0
S31500000DF0364EC0F30260C240326081F8133481F887
S31500000E00A2C091F880341BB991F8813499074CD06F
S31500000E10284D95F88034002B3CD00022254B83F8D2
S31500000E20812483F880240023224981F8323091F806
S31500000E303C301A07FBD543F2021000231D4A0885F1
S31500000E4081F82A3092F83C309B06FBD50320052317
S31500000E5019494FF0F10C81F81C011D49116282F805
S31500000E60263092F82630156A54F82300C5F302643A
S31500000E70E04030600123F0244FF42540154981F805
S31500000E800CC00B720C7382F8303082F85230A2F824
S31500000E90FE03F8BD0121C82085F8801400F082F811
S31500000EA095F88034012BFBD1B7E74FF47A70FFF742
S31500000EB06FFFB8E700E0014000C00140C801002014
S31500000EC000700040002D310100C2EB0BA002002093
S31500000ED0211201200020004000127A0000366E0127
S31500000EE038B50025284C0121C82084F8285000F088
S31500000EF059F884F8245094F82430002BFBD194F848
S31500000F002430214943F0020384F8243091F8243038
S31500000F10C3F340009B07F9D41B4A81F8220092F8DC
S31500000F20223003F0FF00002BF9D192F84030164929
S31500000F3060F3C71382F8403091F84030DB09FBD1EB
S31500000F4091F84200104A63F3C71081F8420092F804
S31500000F504230DB09FBD192F844000B4963F3C7101A
S31500000F6082F8440091F84430C3F3C014DB09F9D188
S31500000F70012000F0E9F8054B012083F8BB44BDE8E9
S31500000F80384000F0B1B800BF0030084000E0014032
S31500000F90704700BF00BEFEE7A0F101000028FBD1AC
S31500000FA0704700BF4FF47A7310B400FB01F1114C87
S31500000FB0114A2468B2FBF4F2A1FB03043CB9B0FB6E
S31500000FC0F2F0800860B15DF8044BFFF7E5BF9200D0
S31500000FD0B1FBF2F1A1FB03132BB908460028F2D1AD
S31500000FE05DF8044B70474FF0FF3C5DF8044B6046DC
S31500000FF0FFF7D2BFA002002000CA9A3B70B50024BA
S315000010000B4B0C4EB3F82021B3F84051ADB215404E
S3150000101025FA04F3DB0704D556F82430E0B203B111
S3150000102098470134102CF3D1014BA3F8305170BD11
S31500001030006000404002002010B5032084B000F09C
S3150000104083F86FF0FF044FF0FF33234A23481188DB
S315000010508464CDE90133039311B101216FF00103DB
S31500001060508868B3918823F0020319B3D28823F01D
S31500001070040312BB01931949194A0B67C2F880325F
S31500001080029B03204B67C2F88432039B154C8B6787
S31500001090C2F8883200F028F800230F4931F8022BF5
S315000010A003F1C00001330AB144F82020042BF5D126
S315000010B004B010BDD288002ADCD023F00803D9E79B
S315000010C090880028D2D1D288002AF6D10029D1D121
S315000010D04FF0FF33CFE700BF3040000000800040F4
S315000010E000E100E000600040EFF31081012383F38C
S315000010F01088124B33F8102092B22AB133F8102020
S31500001100013A92B223F8102033F810309BB293B90B
S3150000111010B40B4A0B4CB2F8FE3334F810009BB2F5
S3150000112043F4254323EA0003A2F8FE3381F3108833
S315000011305DF8044B704781F31088704794020020D5
S3150000114000E001409840000030B4EFF31081012325
S3150000115083F310880E4A32F810309BB26BB90D4CEF
S315000011600D4DB4F8FE3335F810C09BB243EA0C03BC
S3150000117043F425439BB2A4F8FE3332F81030013312
S315000011809BB222F8103081F3108830BC704700BF44
S315000011909402002000E001409840000008B50C4A87
S315000011A00346106840B103330A4923F0030303449E
S315000011B08B4205D8136008BD074908461160F2E75F
S315000011C001F0A0F90C2203461A604FF0FF3008BD6B
S315000011D09C020020F0030020F003002000BE7047B0
S315000011E008B500F003F8FFF703F8FEE74FF47002C6
S315000011F070B52B4B2B4CC3F8882000209C60FEF763
S31500001200EBFFFFF7C7FD0120FEF7E6FF2368A3F516
S31500001210806383F30A882448244A0021121A01F0C5
S3150000122064F92348234A2449121A01F081F9234D0F
S31500001230234B5B1B002B07DD00249E1055F8043B57
S3150000124001349847A642F9DCFFF78EFDFFF748FE0A
S315000012500320FFF779FF00234FF6FF70194903F1CA
S31500001260080201330C2B21F81200F8D100240320C8
S31500001270FFF73AFF0320FFF767FF134B03205C607D
S315000012809C60DC601C61FFF72FFF0220FEF7A4FFC5
S31500001290FFF7D2FE2046BDE87040FFF779BE00BFDB
S315000012A000ED00E000000000E8010020EC03002053
S315000012B000000020C8010020E0430000C00100201B
S315000012C0C4010020000D084000000E4081F00041DE
S315000012D002E000BF83F0004330B54FEA41044FEA15
S315000012E0430594EA050F08BF90EA020F1FBF54EAB0
S315000012F0000C55EA020C7FEA645C7FEA655C00F04C
S31500001300E2804FEA5454D4EB5555B8BF6D420CDD1C
S315000013102C4480EA020281EA030382EA000083EA9F
S31500001320010180EA020281EA0303362D88BF30BD3F
S3150000133011F0004F4FEA01314FF4801C4CEA113195
S3150000134002D0404261EB410113F0004F4FEA0333F4
S315000013504CEA133302D0524263EB430394EA050F7F
S3150000136000F0A780A4F10104D5F1200E0DDB02FAEE
S315000013700EFC22FA05F2801841F1000103FA0EF282
S31500001380801843FA05F359410EE0A5F120050EF148
S31500001390200E012A03FA0EFC28BF4CF0020C43FA79
S315000013A005F3C01851EBE37101F0004507D54FF086
S315000013B0000EDCF1000C7EEB00006EEB0101B1F5D6
S315000013C0801F1BD3B1F5001F0CD349085FEA30001C
S315000013D04FEA3C0C04F101044FEA445212F5800F27
S315000013E080F09A80BCF1004F08BF5FEA500C50F1C4
S315000013F0000041EB045141EA050130BD5FEA4C0CA7
S31500001400404141EB0101013C28BFB1F5801FE9D203
S3150000141091F0000F04BF01460020B1FA81F308BF26
S315000014202033A3F10B03B3F120020CDA0C3208DDF2
S3150000143002F1140CC2F10C0201FA0CF021FA02F1CD
S315000014400CE002F11402D8BFC2F1200C01FA02F13D
S3150000145020FA0CFCDCBF41EA0C019040E41AA2BF62
S3150000146001EB0451294330BD6FEA04041F3C1CDA2A
S315000014700C340EDC04F11404C4F1200220FA04F04A
S3150000148001FA02F340EA030021FA04F345EA0301F4
S3150000149030BDC4F10C04C4F1200220FA02F001FAB6
S315000014A004F340EA0300294630BD21FA04F0294638
S315000014B030BD94F0000F83F4801306BF81F48011D1
S315000014C00134013D4EE77FEA645C18BF7FEA655C44
S315000014D029D094EA050F08BF90EA020F05D054EA16
S315000014E0000C04BF1946104630BD91EA030F1EBF1B
S315000014F00021002030BD5FEA545C05D1400049411F
S3150000150028BF41F0004130BD14F580043CBF01F511
S31500001510801130BD01F0004545F0FE4141F47001F7
S315000015204FF0000030BD7FEA645C1ABF19461046D2
S315000015307FEA655C1CBF0B46024650EA013406BFD3
S3150000154052EA033591EA030F41F4002130BD00BF92
S3150000155090F0000F04BF0021704730B54FF480644F
S3150000156004F132044FF000054FF0000150E700BFD0
S3150000157090F0000F04BF0021704730B54FF480642F
S3150000158004F1320410F0004548BF40424FF000011C
S315000015903EE700BF42004FEAE2014FEA31014FEA5F
S315000015A002701FBF12F07F4393F07F4F81F06051AE
S315000015B0704732F07F4208BF704793F07F4F04BFF9
S315000015C041F40021704730B54FF4607401F00045D6
S315000015D021F000411CE700BF50EA010208BF704736
S315000015E030B54FF000050AE050EA010208BF704727
S315000015F030B511F0004502D5404261EB41014FF490
S31500001600806404F132045FEA915C3FF4D8AE4FF097
S3150000161003025FEADC0C18BF03325FEADC0C18BF7A
S31500001620033202EBDC02C2F1200300FA03FC20FACB
S3150000163002F001FA03FE40EA0E0021FA02F1144418
S31500001640BDE600BF70B54FF0FF0C4CF4E06C1CEA31
S3150000165011541DBF1CEA135594EA0C0F95EA0C0FA2
S3150000166000F0DEF82C4481EA030621EA4C5123EA15
S315000016704C5350EA013518BF52EA033541F4801144
S3150000168043F4801338D0A0FB02CE4FF00005E1FBF7
S3150000169002E506F00042E0FB03E54FF00006E1FB41
S315000016A003569CF0000F18BF4EF0010EA4F1FF0484
S315000016B0B6F5007F64F5407404D25FEA4E0E6D41C4
S315000016C046EB060642EAC62141EA55514FEAC520D5
S315000016D040EA5E504FEACE2EB4F1FD0C88BFBCF551
S315000016E0E06F1ED8BEF1004F08BF5FEA500E50F102
S315000016F0000041EB045170BD06F0004646EA0101C8
S3150000170040EA020081EA0301B4EB5C04C2BFD4EBF9
S315000017100C0541EA045170BD41F480114FF0000EF2
S31500001720013C00F3AB8014F1360FDEBF002001F060
S31500001730004170BDC4F10004203C35DA0C341BDCDA
S3150000174004F11404C4F1200500FA05F320FA04F0AC
S3150000175001FA05F240EA020001F0004221F00041E0
S3150000176010EBD37021FA04F642EB06015EEA430E53
S3150000177008BF20EAD37070BDC4F10C04C4F1200583
S3150000178000FA04F320FA05F001FA04F240EA020036
S3150000179001F0004110EBD37041F100015EEA430E07
S315000017A008BF20EAD37070BDC4F1200500FA05F227
S315000017B04EEA020E20FA04F301FA05F243EA0203A6
S315000017C021FA04F001F0004121FA04F220EA0200B5
S315000017D000EBD3705EEA430E08BF20EAD37070BDFB
S315000017E094F0000F0FD101F00046400041EB0101DB
S315000017F011F4801F08BF013CF7D041EA060195F0BD
S31500001800000F18BF704703F00046520043EB030376
S3150000181013F4801F08BF013DF7D043EA0603704763
S3150000182094EA0C0F0CEA135518BF95EA0C0F0CD06E
S3150000183050EA410618BF52EA4306D1D181EA0301B4
S3150000184001F000414FF0000070BD50EA410606BFAE
S315000018501046194652EA430619D094EA0C0F02D1F3
S3150000186050EA013613D195EA0C0F05D152EA033638
S315000018701CBF104619460AD181EA030101F0004156
S3150000188041F0FE4141F470014FF0000070BD41F09F
S31500001890FE4141F4780170BD70B54FF0FF0C4CF479
S315000018A0E06C1CEA11541DBF1CEA135594EA0C0F98
S315000018B095EA0C0F00F0A7F8A4EB050481EA030EE5
S315000018C052EA03354FEA013100F088804FEA0333CC
S315000018D04FF0805545EA131343EA12634FEA02229A
S315000018E045EA111545EA10654FEA00260EF000415B
S315000018F09D4208BF964244F1FD0404F5407402D2AD
S315000019005B084FEA3202B61A65EB03055B084FEA3D
S3150000191032024FF480104FF4002CB6EB020E75EB3A
S31500001920030E22BFB61A754640EA0C005B084FEA62
S315000019303202B6EB020E75EB030E22BFB61A7546DF
S3150000194040EA5C005B084FEA3202B6EB020E75EB2A
S31500001950030E22BFB61A754640EA9C005B084FEAA2
S315000019603202B6EB020E75EB030E22BFB61A7546AF
S3150000197040EADC0055EA060E18D04FEA051545EA9E
S3150000198016754FEA06164FEAC30343EA52734FEA47
S31500001990C2025FEA1C1CC0D111F4801F0BD141EAC0
S315000019A000014FF000004FF0004CB6E711F4801F25
S315000019B004BF01430020B4F1FD0C88BFBCF5E06F05
S315000019C03FF6AFAEB5EB030C04BFB6EB020C5FEA15
S315000019D0500C50F1000041EB045170BD0EF0004E6A
S315000019E04EEA113114EB5C04C2BFD4EB0C0541EA9C
S315000019F0045170BD41F480114FF0000E013C90E699
S31500001A0045EA060E8DE60CEA135594EA0C0F08BF5C
S31500001A1095EA0C0F3FF43BAF94EA0C0F0AD150EA5B
S31500001A2001347FF434AF95EA0C0F7FF425AF1046EE
S31500001A3019462CE795EA0C0F06D152EA03353FF416
S31500001A40FDAE1046194622E750EA410618BF52EA93
S31500001A5043067FF4C5AE50EA41047FF40DAF52EA67
S31500001A6043057FF4EBAE12E74FF0FF3C06E000BF04
S31500001A704FF0010C02E000BF4FF0010C4DF804CD11
S31500001A804FEA410C7FEA6C5C4FEA430C18BF7FEAD1
S31500001A906C5C1BD001B050EA410C0CBF52EA430CFF
S31500001AA091EA030F02BF90EA020F0020704710F17F
S31500001AB0000F91EA030F58BF994208BF90422CBF0E
S31500001AC0D8176FEAE37040F0010070474FEA410C07
S31500001AD07FEA6C5C02D150EA013C07D14FEA430C25
S31500001AE07FEA6C5CD6D152EA033CD3D05DF8040B96
S31500001AF0704700BF8446104662468C4619466346C8
S31500001B0000E000BF01B5FFF7B7FF002848BF10F19E
S31500001B10000F01BD4DF808EDFFF7F4FF0CBF0120E3
S31500001B2000205DF808FB00BF4DF808EDFFF7EAFF5F
S31500001B3034BF012000205DF808FB00BF4DF808ED1A
S31500001B40FFF7E0FF94BF012000205DF808FB00BF0F
S31500001B504DF808EDFFF7CEFF94BF012000205DF899
S31500001B6008FB00BF4DF808EDFFF7C4FF34BF0120A6
S31500001B7000205DF808FB00BF4FEA410212F5001293
S31500001B8015D211D56FF47873B3EB625212D94FEABE
S31500001B90C12343F0004343EA505311F0004F23FAA8
S31500001BA002F018BF404270474FF00000704750EAFD
S31500001BB0013005D111F0004008BF6FF000407047BA
S31500001BC04FF00000704700BF2DE9FF4757EC106B40
S31500001BD0002F0C4619463B46B4BF07F100430023CD
S31500001BE09146BFBF32461F462D231646DDF830A06C
S31500001BF00B700D9B23F02008B8F1460F05D0B8F105
S31500001C00450F00D10134022100E0032103AB224637
S31500001C10019302AB47EC106B0093534600F02CFD8A
S31500001C20B8F1470F054619D119F0010F0ED000EB98
S31500001C3004090022002330463946FFF76BFF08B13E
S31500001C40CDF80C903022039B4B451ED3039B2846B0
S31500001C500E9A5B1B136004B0BDE8F087B8F1460F1F
S31500001C6000EB0409E5D10378302B0AD100220023CA
S31500001C7030463946FFF74EFF18B9C4F10104CAF8D9
S31500001C800040DAF800309944D3E7591C03911A70E2
S31500001C90D9E7F7B500290270BABF49422D232B2395
S31500001CA00929437028DD0DF107040A272546224637
S31500001CB0013CB1FBF7F607FB1613303302F8013C83
S31500001CC00B463146632BF2DC3031931E04F8011CBF
S31500001CD0411C1C46AB420AD30DF109039B1A821C18
S31500001CE0A54238BF00231344181A03B0F0BD13F8F9
S31500001CF0016B01F8016FEDE7302330318370031D6E
S31500001D00C170F1E72DE9F04F8DB00C4616461F461F
S31500001D10DDF85880054600F0F1FB03681846069387
S31500001D2000F013FC002394F818A04FF0FF320A933A
S31500001D30D8F80030D4F800B00733079023F0070333
S31500001D40B3EC027BC8F800308DED047BDDE904833B
S31500001D5084ED127B23F0004940469B4B494602F036
S31500001D60CDF870BB4FF0FF32974B40464946FFF720
S31500001D70E5FE30BB00220023DDE90401FFF7D4FEB7
S31500001D8010B12D2384F84330904A914BBAF1470F96
S31500001D908CBF9046984603234FF0000923612BF031
S31500001DA00403236033460BAA21462846009700F019
S31500001DB0D1F9013040F08C804FF0FF300DB0BDE816
S31500001DC0F08FDDE904231046194602F097F840B17A
S31500001DD0059B804A002BBCBF2D2384F843307E4BE5
S31500001DE0D4E763680AF0DF095A1C3BD10623636017
S31500001DF04BF4806200232846226003930AABCDE9A8
S31500001E0001A309AB9DED040B00930DF1230361685B
S31500001E10FFF7DAFEB9F1470F8046099929D1C81CA8
S31500001E2002DB63688B4241DAAAF1020A5FFA8AFA98
S31500001E300139524604F150000991FFF72AFF0A9A28
S31500001E4081461318012A236102DC2268D20701D5D4
S31500001E50013323619DF82330002BA3D02D2384F872
S31500001E6043309FE7B9F1470FC2D1002BC0D1012300
S31500001E70BDE7BAF1650FDBD9BAF1660F18D10029B3
S31500001E8063680BDD216113B92268D00702D50133DF
S31500001E900B4423614FF00009A165DBE713B9226803
S31500001EA0D20701D50233F4E70123F2E74FF0670AC0
S31500001EB00A9B8B4205DC23682161D807EAD54B1CB7
S31500001EC0E7E70029D4BFC1F1020201221344E0E78B
S31500001ED023685A0507D42369424631462846B8473F
S31500001EE001302BD168E7BAF1650F40F2DD800022A0
S31500001EF00023D4E91201FFF70DFE002833D0012399
S31500001F00364A31462846B84701303FF455AFDDE939
S31500001F100938434502DB2368D8070FD531462846E2
S31500001F20DDE90623B84701303FF446AF4FF000091C
S31500001F3008F1FF3804F11A0AC84509DC23689B0733
S31500001F4000F10381E0680B9B9842B8BF184635E75D
S31500001F500123524631462846B84701303FF42CAF9C
S31500001F6009F10109E8E7099B002B39DC01231B4A2B
S31500001F7031462846B84701303FF41EAFDDE909393E
S31500001F8059EA030302D12368D907D7D53146284633
S31500001F90DDE90623B84701303FF40EAF4FF0000AE3
S31500001FA004F11A0B099B5B42534501DC4B4693E750
S31500001FB001235A4631462846B84701303FF4FCAE65
S31500001FC00AF1010AEEE700BFFFFFEF7FA440000021
S31500001FD0A0400000AC400000A8400000B040000057
S31500001FE0A36DDDF828A05345A8BF5346002B99469C
S31500001FF036DC4FF0000B29EAE97904F11A02A36DE9
S315000020000493A3EB09035B4531DC099B9A453ADC53
S315000020102368DA0737D4099BAAEB0309049BAAEBCA
S3150000202003039945A8BF9946B9F1000F33DC4FF079
S31500002030000829EAE97904F11A0B099BAAEB0303C4
S31500002040A3EB090343457FF779AF01235A4631468F
S315000020502846B84701303FF4AFAE08F10108ECE777
S31500002060424631462846B8470130C2D1A4E601238C
S31500002070314628460492B84701303FF49DAE0BF135
S31500002080010B049ABBE7DDE9062331462846B8472B
S315000020900130C0D190E6049A4B4631462846424468
S315000020A0B8470130C3D187E6DDF828A0BAF1010FA1
S315000020B001DCDB0736D50123424631462846B847C0
S315000020C001303FF479AE31462846DDE90623B847AC
S315000020D001303FF471AE002200230AF1FF3AD4E941
S315000020E01201FFF717FDC0B9534608F10102314648
S315000020F02846B84701300CD15EE601235A463146E0
S315000021002846B84701303FF457AE08F10108D045DC
S31500002110F3DB4B4604F15002DFE64FF0000804F112
S315000021201A0BF4E701234246E1E701234A4631460A
S315000021302846B84701303FF43FAE08F10108E3688E
S315000021400B995B1A4345F0DCFCE64FF0000804F1FE
S315000021501909F4E72DE9F047164698468A680746B6
S315000021600B690C46DDF820909342B8BF13463360E6
S3150000217091F843200AB1013333602368990642BFC0
S31500002180336802333360256815F0060506D104F17D
S31500002190190AE36832689B1AAB422BDC94F8433089
S315000021A02268003B18BF0123920630D404F1430293
S315000021B041463846C847013023D023681A3454F8BC
S315000021C00A2C03F00603042B0ABF54F80E5C002504
S315000021D033684FF0000608BFED1A54F8123C08BFEA
S315000021E025EAE5759342C4BF9B1AED18B5421AD18C
S315000021F0002008E00123524641463846C8470130D0
S3150000220003D14FF0FF30BDE8F0870135C1E7E11893
S315000022105A1C30200233224481F8430094F84510BA
S3150000222082F84310C2E70123224641463846C84792
S315000022300130E6D00136D9E72DE9FF470F7E9146FA
S3150000224080460C46782F9A460C9E01F1430207D829
S31500002250622F0AD8002F00F0D280582F00F0B780E6
S3150000226004F1420684F842703AE0A7F16303152BA5
S31500002270F6D801A151F823F0D1220000E522000092
S31500002280612200006122000061220000612200003C
S31500002290E5220000612200006122000061220000A8
S315000022A061220000E52300000F2300009B230000AD
S315000022B06122000061220000072400006122000064
S315000022C00F2300006122000061220000A32300000A
S315000022D033681A1D1B68326004F1420684F84230E6
S315000022E001239DE033682068191D3160060601D57B
S315000022F01D6803E04506FBD5B3F90050002D03DA4F
S315000023002D236D4284F8433059480A2310E0216892
S315000023103368080653F8045B02D4490648BFADB2D9
S315000023206F2F5348336059D10823002184F8431096
S315000023306668002EA66005DB21682E4321F00401A5
S3150000234021604DD01646B5FBF3F103FB1157C75D6F
S3150000235006F8017D2F460D46BB42F4D9082B0BD15A
S315000023602368DF0708D5236961689942DEBF3023F9
S3150000237006F8013C06F1FF36921B22614B4603AA82
S3150000238021464046CDF800A0FFF7E4FE01304CD1CF
S315000023904FF0FF3004B0BDE8F087236843F0200318
S315000023A0236078273348236884F845701F06316810
S315000023B051F8045B02D45F0648BFADB23160D9075D
S315000023C044BF43F0200323601DB11023ADE7284826
S315000023D0E9E7236823F020032360F6E70A23A4E74E
S315000023E01646BBE733682568181D616930602E06FE
S315000023F01B6801D5196002E06806FBD51980002329
S3150000240016462361BAE7336800211A1D32601E683A
S315000024106268304600F07EF808B1801B6060636831
S315000024202361002384F84330A8E7236932464946EE
S315000024304046D0470130ABD023689B0713D4E068F1
S31500002440039B9842B8BF1846A4E701233246494683
S315000024504046D04701309BD00135E36803995B1AAB
S31500002460AB42F2DCEBE7002504F11906F5E700BF05
S31500002470B2400000C340000010B59AB0002400919D
S3150000248004916FF00041199405910291044903915A
S31500002490694601F0BDFB009B1C701AB010BD00BF61
S315000024A00802FFFF13460A46014602480068FFF786
S315000024B0E3BF00BF04000020884210B501EB020410
S315000024C002D98442234607D8431EA14207D011F8F9
S315000024D0012B03F8012FF8E70244824200D110BD18
S315000024E013F8011D02F8011DF7E702440346934263
S315000024F000D1704703F8011BF9E7FFFF004870475A
S3150000250044010020014B1868704700BF04000020FA
S3150000251070477047C9B20346024410B59342184645
S3150000252001D1002003E0047801338C42F6D110BDBE
S315000025300A44431E914200D1704710B511F8014B71
S31500002540914203F8014FF9D110BD034613F8012B50
S31500002550002AFBD1181A013870472DE9F74F036995
S3150000256007460C69A342C0F28380013C00F11405C2
S3150000257001F11408A30055F8242008EB8409009300
S3150000258005EB8403019358F8243001339A42B2FBD9
S31500002590F3F631D34FF0000AC446AE46D3465CF894
S315000025A0043B98B2E1454FEA134306FB00A04FEA0D
S315000025B0104280B206FB0323DEF8002092B24FEAF7
S315000025C0134AA2EB00029BB2DEF800005A44C3EBAA
S315000025D0224392B203EB104342EA03424FEA234BF3
S315000025E04EF8042BDBD2009BEB582BB9019B043B26
S315000025F09D421A4630D33C61384601F099F90028CD
S3150000260026DB2946002058F8042BD1F800C01FFA13
S3150000261082FEC1451FFA8CF34FEA1242A3EB0E036A
S315000026200344C2EB23429BB202EB1C4243EA024341
S315000026304FEA224041F8043BE5D255F8242005EB49
S31500002640840322B9043B9D421A460BD33C610136F2
S31500002650304603B0BDE8F08F1268043B002ACAD1A9
S31500002660013CC5E71268043B002AEFD1013CEAE7CA
S315000026700020EEE7FFFFFFFF2DE9F04F99B08146FE
S315000026800C92C269229C0A91139357EC106B8DED44
S315000026900E0B82B9102000F019FE0246C9F81C0084
S315000026A020B9AD4BEF21AD48FEF774FC0023C0E91D
S315000026B001330360C360116859B15268012348466B
S315000026C093404A608B6000F0F5FED9F81C3000227A
S315000026D01A60B7F10008B7BF0123002328F00048AD
S315000026E02360A8BF23609E4BB8BFCDF83C8033EA79
S315000026F008031AD1C8F3130842F20F73139A58EA63
S315000027000608136000F06B85239B53B9954B21E0B7
S31500002710954B00930833239A1360009819B0BDE8CF
S31500002720F08F904B00930333F5E79DED0E7B00226F
S31500002730002351EC170B8DED067BFFF7EBF9824674
S3150000274050B10123139A1360239B13B1874B239A2D
S315000027501360874B0093E0E79DED060B16AA17A9B9
S31500002760484601F09DF9169D5FEA1854019077D00E
S31500002770079BA4F2FF34CDF850A0C3F3130343F034
S315000027807F53DDE9060143F4401319460022794BD5
S31500002790FEF7A0FD6AA3D3E90023FEF753FF6AA361
S315000027A0D3E90023FEF798FD06460F462046FEF7BE
S315000027B0DFFE67A3D3E90023FEF744FF02460B467C
S315000027C030463946FEF788FD06460F46FFF7D4F930
S315000027D000228046002330463946FFF7A5F948B166
S315000027E04046FEF7C5FE32463B46FFF793F908B969
S315000027F008F1FF38B8F1160F51D85F4B03EBC80349
S31500002800DDE90601D3E90023FFF78EF9002848D059
S3150000281008F1FF38002312932D1B6B1E089345BF4A
S315000028200023C5F1010700270893B8F1000F3ADB32
S31500002830089BCDF8348043440893002309930A9BF0
S31500002840092B63D8052BC5BF043B002401240A933A
S315000028500A9B023B032B65D8DFE803F05456382D5C
S31500002860179C2C4404F23243202BC9BFC3F140030A
S31500002870C3F1200308FA03F804F21243D8BF06FA9C
S3150000288003F004F1FF34C4BF26FA03F348EA030059
S31500002890FEF75EFE0122A1F1F873149275E701239B
S315000028A0B9E71290B8E7C8F10003A7EB0807099348
S315000028B000230D93C3E701230B930C9B434405931D
S315000028C00133012B0493B8BF012306E001230B93C8
S315000028D00C9B002B29DDCDE90433D9F81C0000211F
S315000028E0042202F114054E1C9D4223D9416048463C
S315000028F000F0A2FD0090002842D1204B024640F293
S31500002900AF11D0E60023E2E70023D5E70124002338
S31500002910CDE90A344FF0FF330022CDE90433122308
S315000029200C92DAE701230B93F4E701231A46CDE96B
S315000029300433F5E752003146D3E700BFAFF300801A
S3150000294061436F63A787D23FB3C8608B288AC63FAF
S31500002950FB799F501344D33FE1400000F84000004C
S315000029600000F07FDD400000D4400000B1400000D0
S31500002970B04000000000F83F104200005141000046
S31500002980D9F81C30009A1A60049B0E2B00F2A18025
S31500002990002C00F09E80B8F1000F36DD08F00F0223
S315000029A09D4B18F4807F4FEA281503EBC203D3E949
S315000029B000AB16D0994B05F00F050324D3E9082385
S315000029C0DDE90601FEF768FFCDE90201934E75B910
S315000029D052465B46DDE90201FEF75EFF82468B4604
S315000029E02DE09DED067B02248DED027BEEE7E907E7
S315000029F008D5504659460134D6E90023FEF722FE93
S31500002A0082468B466D100836E1E700F0AD80C8F1CE
S31500002A100005814B814E022405F00F022D1103EBB8
S31500002A20C203DDE90601D3E90023FEF70BFE00230E
S31500002A3082468B46002D40F08C80002BCED1129B17
S31500002A40002B00F095800022754B50465946FFF743
S31500002A506BF8002800F08C80049B002B00F0888027
S31500002A60059B002B35DD08F1FF3350465946002201
S31500002A70029301346B4BFEF7E5FD059E82468B46BD
S31500002A802046FEF775FD52465B46FEF7DBFD00224B
S31500002A90654BFEF721FC0446A1F15075CDE91045C2
S31500002AA0002E69D10022614B50465946FEF712FCB2
S31500002AB022462B4682468B46FFF754F8002840F004
S31500002AC09482224605F1004350465946FFF72CF8FA
S31500002AD020BB179B002BC0F26081B8F10E0F00F3EC
S31500002AE05C814D4B03EBC803D3E900AB0C9B002B79
S31500002AF080F2EE80049B002B00F3EA800ED10022C8
S31500002B004A4B50465946FEF79DFD02460B46DDE907
S31500002B100601FFF713F8002800F06A8200252C460C
S31500002B200C9B009EDB430293274600242946484619
S31500002B3000F0C0FC002F00F0C1802CB1BC4203D0D5
S31500002B402146484600F0B6FC3946484600F0B2FC3D
S31500002B50B4E0EA0705D50134D6E90023FEF772FD95
S31500002B6001236D10083665E7DDE906AB022466E74A
S31500002B70049ECDF8088083E7274B03EBC60353E991
S31500002B8002010B9B002B55D002460B46002028491C
S31500002B90FEF782FEDDE91023FEF79CFB009B9D19E4
S31500002BA01E46CDE9100159465046FEF7E5FF04469C
S31500002BB0FEF7DEFC024630340B4650465946FEF719
S31500002BC089FB06F8014B82468B46DDE91023FEF7AA
S31500002BD0ABFF002872D152465B4600201049FEF733
S31500002BE079FBDDE91023FEF79FFF002840F0B68051
S31500002BF0AE423FF46EAF00220A4BDDE91001FEF74C
S31500002C0021FD0022074BCDE9100150465946FEF73B
S31500002C1019FD82468B46C6E710420000E8410000D7
S31500002C200000F03F0000244000001C40000014405B
S31500002C300000E03FDDE91023FEF704FD009B009D48
S31500002C403344CDE91001159359465046FEF794FFDB
S31500002C500446FEF78DFC0B46024659465046303474
S31500002C60FEF738FB159B05F8014B82469D428B46C5
S31500002C7027D1009B00221E44B44BDDE91001FEF76C
S31500002C802BFB02460B4650465946FEF76BFF0028C3
S31500002C9064D10020AD49DDE91023FEF71BFB024697
S31500002CA00B4650465946FEF73FFF00283FF411AF4A
S31500002CB0334616F8012D302AFAD01E46DDF8088074
S31500002CC03AE00022A24BFEF7BDFC82468B46BBE7EC
S31500002CD0009E52465B46DDE90601FEF7DDFDFEF786
S31500002CE04BFF0746FEF744FC52465B46FEF7AAFC3E
S31500002CF002460B46DDE90601FEF7ECFA07F1300C59
S31500002D00009C024606F801CB0B46A6EB040C049C7D
S31500002D10644533D1FEF7E0FA52465B4604460D465B
S31500002D20FEF720FFC0B952465B4620462946FEF70D
S31500002D30F1FE08B1FB070FD40199484600F0BAFB33
S31500002D400023139A337008F101031360239B002BB1
S31500002D503FF4E3AC1E60E0E4CDF8088033461E463F
S31500002D6013F8012D392A06D1009A9A42F7D1029A10
S31500002D7001320292302201321A709FE70022744B10
S31500002D80FEF760FC02460B46CDE90623002200232F
S31500002D90FEF7C0FE00289CD0CEE70B9A002A00F072
S31500002DA0E3800A9A012A00F3C280149A002A00F0EE
S31500002DB0BA8003F23343099D3E46089A01214846EC
S31500002DC01F441A44089200F02BFC044656B1089B97
S31500002DD0002B07DDB342089AA8BF3346FF1AF61A3E
S31500002DE0D31A0893099B0BB30B9B002B00F0C380EF
S31500002DF0002D00F0BD8021462A46484600F0D0FC52
S31500002E00019A01460446484600F020FC0199824694
S31500002E10484600F04FFB099B5B1B099300F0AE8010
S31500002E20099A5146484600F0BBFC019001214846EC
S31500002E3000F0F6FB0D9B0546002B00F0D7811A46E5
S31500002E400146484600F0ACFC0A9B0546012B00F300
S31500002E509D800E9B002B40F094800F9BC3F31303C1
S31500002E60002B40F08E800F9B23F000431B0D1B05AB
S31500002E70002B00F08980089B01374FF0010A0133CF
S31500002E8008930D9B002B00F0B7812B6905EB83039C
S31500002E90186900F079FBC0F12000089B184410F077
S31500002EA01F007ED0C0F12003042B72DDC0F11C0090
S31500002EB0089B0744034406440893002F05DD3A4661
S31500002EC00199484600F0C8FC0190089B002B05DDDF
S31500002ED029461A46484600F0BFFC0546129B002BC1
S31500002EE061D02946019800F023FD00285BDA08F13D
S31500002EF0FF330A22019948460293002300F0FCFAA8
S31500002F000B9B0190002B00F07981002321460A22B9
S31500002F10484600F0F1FA059B0446002B72DC0A9B3A
S31500002F20022B49DC6EE0169BC3F1360343E7049B94
S31500002F305D1E099BAB420DDB5D1B049B002BBFF6A0
S31500002F403BAF049BFE1A002337E700BF0000E03FBB
S31500002F5000002440099B3E460D9AEB1A0995002570
S31500002F601A44049B0D9228E7099D3E460B9C2DE7CB
S31500002F70DDF804A054E7099A019953E7CDF804A0B7
S31500002F8054E74FF0000A7CE79A467AE74FF0000ACA
S31500002F907BE792D01C33089A1A441F441E440892B9
S31500002FA08BE70346F6E7049BCDF80880002B23DC6D
S31500002FB005930A9B022B21DD059B002B7FF4B0AD08
S31500002FC029460522484600F097FA0146054601982B
S31500002FD000F0AEFC00287FF7A3AD3123009E06F873
S31500002FE0013B029B013302939EE535462C46F4E7EE
S31500002FF0049DCDF80880F9E7049B05930B9B002BF5
S3150000300000F00081002E05DD21463246484600F0DC
S3150000301023FC0446BAF1000F5AD06168484600F016
S315000030200BFA064628B9824B024640F2EF21FFF71B
S315000030303ABB226904F10C010C3002329200FFF710
S3150000304077FA01223146484600F006FC0746009B07
S31500003050009A03F1010B059B134406930E9B03F0A4
S31500003060010308930BF1FF33294601980493FFF7F8
S3150000307074FA2146059000F1300A019800F058FCD8
S315000030803A4680462946484600F06EFCC268064627
S3150000309002BB0146019800F04BFC02463146484609
S315000030A0099200F007FA5E46DDE9092342EA0301C8
S315000030B0089B194310D1BAF1390F2BD0B8F1000F84
S315000030C002DD059B03F1310A049B83F800A02DE580
S315000030D02746BCE70122E1E7B8F1000F06DB0A9BB1
S315000030E048EA0308089B58EA030820D1002AEBDDCA
S315000030F001220199484600F0AFFB2946019000F0F5
S3150000310017FC002803DCDFD11AF0010FDCD0BAF17E
S31500003110390FD6D13923049A137033461E46013B24
S3150000312016F8012C392A52D001321A70FEE4002A10
S3150000313007DDBAF1390FEDD00AF10103049A1370D5
S31500003140F4E4069B0BF801AC5B452AD000230A2267
S315000031500199484600F0D0F9BC4201904FF00003B7
S315000031604FF00A022146484606D100F0C5F904464A
S3150000317007460BF1010B75E700F0BEF93946044628
S3150000318000230A22484600F0B7F90746F1E7059BF7
S31500003190274600245E1E002B009BD8BF00265A1C23
S315000031A0164401220199484600F056FB2946019033
S315000031B000F0BEFB0028B0DC02D11AF0010FACD142
S315000031C033461E4613F8012D302AFAD0AEE4009A93
S315000031D09A42A3D1029B013302933123AFE7239B8B
S315000031E0002B7FF495AA134BFFF7B4BA0A9B012B69
S315000031F07FF72FAEDDF834A001204EE6059B002BAD
S315000032007FF7D7AE009E29460198FFF7A6F9009BE7
S3150000321000F1300A06F801ABF21A059B9342B6DDBF
S3150000322000230A220199484600F066F90190EAE770
S3150000323051410000D440000038B50546002941D070
S3150000324051F8043C0C1F002BB8BFE41800F0E8F856
S315000032501D4A136833B9636014602846BDE83840D8
S3150000326000F0E4B8A34208D9206821188B4201BFB8
S3150000327019685B6809182160EDE71A465B680BB1AF
S31500003280A342FAD911685018A0420BD12068014414
S31500003290501811608342E0D118685B680844536097
S315000032A01060DAE702D90C232B60D6E720682118D4
S315000032B08B4202BF19685B680918636008BF21600A
S315000032C05460CAE738BD00BFE8030020024B014640
S315000032D0186800F025B800BF0400002070B50F4E36
S315000032E00C460546316811B900F08EFD3060214666
S315000032F0284600F089FD431C03D14FF0FF342046D9
S3150000330070BDC41C24F00304A042F8D0211A28463C
S3150000331000F07AFD0130F2D1EFE700BFE4030020B0
S315000033202DE9F843CD1C064625F0030508350C2D7E
S3150000333038BF0C25002D01DBA94204D90C233360CC
S315000033400020BDE8F883DFF8D48000F069F8D8F8EB
S3150000335000301C4644BB29463046FFF7BFFF431CDE
S31500003360044658D1D8F800402746002F43D1002CF8
S315000033704BD023683946304604EB030900F044FD80
S31500003380814542D1216830466D1A2946FFF7A6FFCE
S3150000339001303AD023682B442360D8F800305A68AD
S315000033A062BBC8F800700FE02268521B20D40B2ABB
S315000033B017D96119A342256018BF5960636808BF11
S315000033C0C8F8001062514B60304600F02FF804F147
S315000033D00B00231D20F00700C21A1CBF1B1AA350A6
S315000033E0AFE76268A3420CBFC8F800205A60EBE75B
S315000033F023466468AEE73C467F68B6E71A465B68D4
S31500003400A342FBD100235360DEE70C233046336032
S3150000341000F00CF894E70560D6E700BFE80300204B
S315000034200148FFF775B800BFE00300200148FFF729
S3150000343070B800BFE003002070B5C46905460E46AB
S3150000344084B91020FFF742FF0446E86128B9024616
S31500003450164B6B211648FDF79DFD0023C0E901338D
S315000034600360C360E36853B921220421284600F0B3
S31500003470DBFCEB69E060DB680BB9002070BD53F83C
S31500003480260030B1026843F826200023C0E9033342
S31500003490F4E70121284601FA06F4621D920000F0C5
S315000034A0C3FC0028E9D0C0E90164EEE7E140000072
S315000034B06241000070B5C66905460C4676B9102013
S315000034C0FFF704FF0246E86120B9094B8F2109483E
S315000034D0FDF760FDC0E901660660C6603CB1EB69B8
S315000034E06268DB6853F82210216043F8224070BD01
S315000034F0E1400000624100002DE9F04101F1140CA9
S3150000350007460C461E460D690020DCF800300130E7
S3150000351099B2854202FB01614FEA13464FEA114315
S3150000352089B202FB063301EB03414FEA13464CF81E
S31500003530041BEADC0EB3A368AB4219DC61683846AB
S315000035400131FFF779FF804628B902460C4BBA21B4
S315000035500C48FDF71FFD226904F10C010C30023204
S315000035609200FEF7E5FF214644463846FFF7A2FFE4
S3150000357004EB850301355E6125612046BDE8F081D7
S315000035805141000062410000B0F5803F034636BF5E
S31500003590030400201020B3F1807F3CBF1B020830DB
S315000035A0B3F1805F3CBF1B010430B3F1804F3CBFD9
S315000035B09B000230002B05DB13F0804F00F1010069
S315000035C008BF202070470368024613F007000BD09F
S315000035D0D90721D4980747BF5B0801209B08022022
S315000035E04CBF13601360704799B209B91B0C1020C9
S315000035F0D9B209B908301B0A190704BF1B090430E0
S31500003600990704BF9B080230D90703D45B0800F171
S31500003610010003D0136070470020704720207047D8
S3150000362010B50C460121FFF707FF024628B9054BE6
S3150000363040F245110448FDF7ADFC012344610361E6
S3150000364010BD00BF51410000624100002DE9F04F5E
S31500003650D1F8109085B0D2F810A088461446D1450E
S3150000366004DB53460C46CA46904699460AEB0906C1
S31500003670A3686168B342B8BF0131FFF7DDFE30B918
S315000036800246454B4FF4B1714448FDF783FC00F107
S315000036901405002205EB86072B46BB421FD304F117
S315000036A0140C08F114010CEB8A0301EB8902029257
S315000036B01A1B1534153A22F003029C4288BF0022D9
S315000036C00192029A03918A420CD8002E03DD57F824
S315000036D0043D002B5DD0066105B0BDE8F08F43F8D0
S315000036E0042BDAE7B1F800A0BAF1000F24D0E046C7
S315000036F0A9464FF0000E58F8042BD9F800401FFADF
S3150000370082FB4345A4B20AFB0B444FEA124BD9F89D
S31500003710002074444FEA124E0AFB0BE202EB1442FD
S31500003720A4B24FEA124E44EA024449F8044BE2D8E6
S31500003730019AAA18C2F804E0039A0431B2F802808A
S31500003740B8F1000F23D02A68E646AA464FF0000BD0
S315000037509146BEF8004092B208FB04B404EB19444B
S3150000376042EA04424AF8042B5EF8042BDAF8009089
S315000037704FEA124B73451FFA89F208FB0B2202EB44
S3150000378014424FEA124BE4D8019C2C1962600435AE
S3150000379097E7013E99E700BF5141000062410000F2
S315000037A02DE9F843174612F0030280460D4607D06E
S315000037B0013A264C002354F82220FFF79DFE0546C9
S315000037C0BF103FD0D8F81C4094B91020FFF77EFDFB
S315000037D00446C8F81C0030B902461D4B40F2B3112E
S315000037E01C48FDF7D7FB0023C0E901330360C36023
S315000037F0A66846B940F271214046FFF711FF002343
S315000038000646A06003602C464FF0000907F001034E
S315000038107F1053B1294632464046FFF717FF21462F
S3150000382005464046FFF746FE67B1306838B932466E
S3150000383031464046FFF70AFF3060C0F80090064662
S315000038402C46E3E72846BDE8F88300BFD8410000D0
S31500003850E1400000624100002DE9F84F0C460746A2
S3150000386015464FEA621A2369496803EB6218A36892
S3150000387008F101094B450BDB3846FFF7DDFD06462F
S3150000388048B90246284B4FF4EF712848FDF782FBF2
S3150000389001315B00EEE7002300F1140C00F1100289
S315000038A01946534534DB2AEAEA7A04F114032269FD
S315000038B015F01F0E0CEB8A0C03EB820261462BD02F
S315000038C0CEF1200A002518688B46043100FA0EF066
S315000038D02843CBF8000053F8045B9A4225FA0AF510
S315000038E0F1D8131B04F11501153B23F003038A429B
S315000038F038BF00239C44CCF8045005B9C14638466D
S315000039002146C6F81090FFF7D5FD3046BDE8F88F82
S31500003910013342F8041FC4E753F8045B04319A42AA
S3150000392041F8045CF8D8E9E7514100006241000023
S3150000393003460A690069801A30B50ED11433143172
S3150000394003EB820401EB820154F8045D51F8042D67
S31500003950954203D005D24FF0FF3030BDA342F3D3DA
S31500003960FBE70120F9E7FFFF2DE9F74F8A460646F8
S31500003970114614465046FFF7DBFF051E12D12946B5
S315000039803046FFF759FD024628B9434B40F237212E
S315000039904248FDF7FFFA0123C0E90435104603B09B
S315000039A0BDE8F08FBCBF5346A2463046B8BF0125DE
S315000039B0DAF80410B4BF1C460025FFF73DFD0246A9
S315000039C018B9354B40F24521E2E7DAF810700AF1F2
S315000039D0140904F1140E2669C56000F114050AF1F4
S315000039E0100309EB87080EEB8606AB464FF0000C7A
S315000039F00193019B5EF8040B53F804AF76450193DF
S31500003A001FFA8AF3194683B24FEA1040A1EB03036B
S31500003A10C0EB1A40634400EB23409BB24FEA204CB4
S31500003A2043EA00434BF8043BE3D8331B1534153BFC
S31500003A3023F00303A64238BF0023E8184B44A5EB46
S31500003A4009051C1D04302646464506EB050E0ED319
S31500003A5008F103010133091B21F00301984538BF22
S31500003A600021014451F8043DA3B1176196E756F8C9
S31500003A70041BE2461FFA81FC4FEA11495144D44423
S31500003A8089B209EB2C4941EA09414FEA294CCEF8A3
S31500003A900010D9E7013FE5E751410000624100000F
S31500003AA02DE9F7430F460121164659EC108BFFF717
S31500003AB0C3FC044630B90246234B40F20F3123487B
S31500003AC0FDF768FAC9F30A55C9F313030DB143F4B8
S31500003AD080130193B8F1000323D068460093FFF7E3
S31500003AE072FD0099D8B1019AC0F1200302FA03F3DE
S31500003AF0C2400B4301926361019B002BA3610CBF83
S31500003B00012202222261A5B1A5F233450544C0F186
S31500003B1035003D603060204603B0BDE8F08361614A
S31500003B20EAE701A8FFF74FFD019B20300122636100
S31500003B30E8E7A0F2324004EB820338601869FFF729
S31500003B4023FDC0EB4210E5E7514100006241000051
S31500003B502DE9F0471F468E6882460C46BE429046C7
S31500003B60334653D8B1F90C0010F4906F2BD0656929
S31500003B702368096905EB4505A3EB010905EBD57536
S31500003B807B1C6D104B442A46AB4284BF1D462A4619
S31500003B90430527D511465046FFF7C2FB064658B3E4
S31500003BA04A462169FEF7C4FCA38923F4906343F0D7
S31500003BB08003A38126614E4465613B46A5EB09055A
S31500003BC026603E46A5601F463A4641462068FEF7F7
S31500003BD073FCA36800209B1BA36023683B442360FF
S31500003BE0BDE8F087504600F045F906460028E1D1C9
S31500003BF021695046FFF720FB0C234FF0FF30CAF82F
S31500003C000030A38943F04003A381E9E73E46DBE7A2
S31500003C102DE9F04F98468B899DB007461B060D4649
S31500003C20144610D50B6973B94021FFF779FB28605C
S31500003C30286130B90C233B604FF0FF301DB0BDE862
S31500003C40F08F40236B610023CDF80C804FF0010903
S31500003C50DFF8A081099320238DF8293030238DF8D1
S31500003C602A3023469A4613F8012B0AB1252AF9D1A0
S31500003C70BAEB040B0BD05B46224629463846FFF7C3
S31500003C8067FF013000F0A780099A5A4409929AF812
S31500003C900030002B00F09F8000234FF0FF320AF126
S31500003CA0010A049307938DF853301A93CDE905233F
S31500003CB0544605224F4814F8011BFEF72BFC049AC4
S31500003CC0D8B9D00644BF20238DF85330110744BF1E
S31500003CD02B238DF853309AF800302A2B15D0079AEB
S31500003CE0544600204FF00A0C214611F8013B303BA8
S31500003CF0092B4BD9B0B1079214E0A0EB0803A246FA
S31500003D0009FA03F313430493D2E7039B191D1B68B7
S31500003D10002B0391BBBF5B4242F00202079307935D
S31500003D20B8BF049223782E2B0AD163782A2B32D17E
S31500003D30039B02341A1D1B6843EAE373039205933F
S31500003D40DFF8C0A0032221785046FEF7E3FB38B126
S31500003D50A0EB0A004022049B0134824013430493E3
S31500003D6014F8011B062224488DF82810FEF7D2FB12
S31500003D70002836D0214B1BBB039B073323F00703D8
S31500003D8008330393099B334409936AE70CFB023219
S31500003D900C460120A8E7002301344FF00A0C19460F
S31500003DA00593204610F8012B303A092A03D9002B37
S31500003DB0C6D00591C4E70CFB012104460123F0E7B8
S31500003DC003AB2A4604A9384600930D4BFDF79AFF2C
S31500003DD0421C0646D6D1AB895B063FF52DAF099846
S31500003DE02CE703AB2A4604A938460093044BFEF79A
S31500003DF023FAEDE7BC410000C6410000051D0000A6
S31500003E00513B0000C241000038B50023054D044671
S31500003E1008462B60FDF7C2F9431C02D12B6803B19B
S31500003E20236038BDDC03002070B5A1FB025434B911
S31500003E302946FFF775FA064628B9304670BD0C22AA
S31500003E4000260260F9E72A462146FEF74EFBF4E714
S31500003E5082B001B901A942B14BB113780B60127857
S31500003E60101E18BF012002B070471046FBE76FF026
S31500003E700100F8E72DE9F041074614460D4621B941
S31500003E801146BDE8F041FFF74BBA2AB92546FFF7C0
S31500003E90D3F92846BDE8F08100F027F884420646AB
S31500003EA002D8B4EB500FF4D821463846FFF738FA5B
S31500003EB0804608B94546ECE7B4422246294628BF63
S31500003EC03246FEF735FB29463846FFF7B5F9F1E7E6
S31500003ED00346084641B1FF2A04D98A224FF0FF3033
S31500003EE01A60704701200A70704751F8043C181F89
S31500003EF0002BBCBF0B58C0187047FFFF4FEA410CA0
S31500003F007FEA6C5C02D150EA013C0AD14FEA430CCD
S31500003F107FEA6C5C02D152EA033C02D14FF000000A
S31500003F2070474FF0010070474275696C74207769DD
S31500003F3074682052656E6573617320416476616EA4
S31500003F4063656420466C657869626C6520536F66AC
S31500003F507477617265205061636B61676520766571
S31500003F607273696F6E20352E392E3000352E392E3C
S31500003F703000000000000905F8B500BFF8BC08BC19
S31500003F809E467047F8B500BFF8BC08BC9E46704711
S31500003F9054686973206973205241364D3527732062
S31500003FA068657265210D0A0008020020F43F0000D2
S31500003FB06440000010020020C03F000038400000AE
S31500003FC0070200000C000C010C020C0300000000AC
S31500003FD0000000003101000000000000E03F00008A
S31500003FE000010000000000200F00FFFF000000009D
S31500003FF0FFFF000006000000004000000000000077
S3150000400000000000000000000000010008010000A0
S31500004010000001000003000004000000000400008E
S31500004020000001050D060000000001050E06000057
S31500004030AA01AB01AC01AD0139040000C9020000C0
S31500004040D50200003103000099030000A50300001B
S3150000405021030000FD010000E10300000204030447
S315000040600404FFFFA10C0000C5090000B50C000008
S31500004070C10C0000890A0000D90A0000D10900001D
S31500004080250A0000450A0000710A0000BD0A00006A
S31500004090F5090000090A00000100020008001000EE
S315000040A0494E4600696E66004E414E006E616E00D6
S315000040B030003031323334353637383941424344B3
S315000040C0454600303132333435363738396162632C
S315000040D064656600496E66696E697479004E614E64
S315000040E0005245454E54206D616C6C6F63207375AC
S315000040F063636565646564002F646174612F6A6536
S315000041006E6B696E732F776F726B73706163652F59
S31500004110474E552D746F6F6C636861696E2F6172BF
S315000041206D2D31342F7372632F6E65776C69622D36
S3150000413063796777696E2F6E65776C69622F6C6934
S3150000414062632F7374646C69622F64746F612E638B
S315000041500042616C6C6F63207375636365656465AB
S3150000416064002F646174612F6A656E6B696E732FCC
S31500004170776F726B73706163652F474E552D746F41
S315000041806F6C636861696E2F61726D2D31342F73A8
S3150000419072632F6E65776C69622D63796777696ED6
S315000041A02F6E65776C69622F6C6962632F73746416
S315000041B06C69622F6D707265632E6300232D302B40
S315000041C02000686C4C006566674546470043005012
S315000041D04F534958002E00FF05000000190000004B
S315000041E07D000000FFFFFFFF0080E03779C34143F9
S315000041F0176E05B5B5B89346F5F93FE9034F384D47
S31500004200321D30F94877825A3CBF737FDD4F1575F2
S31500004210000000000000F03F000000000000244005
S3150000422000000000000059400000000000408F40E0
S31500004230000000000088C34000000000006AF8404B
S315000042400000000080842E4100000000D01263416F
S315000042500000000084D797410000000065CDCD41E5
S31500004260000000205FA00242000000E876483742C6
S31500004270000000A2941A6D42000040E59C30A24264
S315000042800000901EC4BCD64200003426F56B0C43D9
S315000042900080E03779C3414300A0D8855734764380
S315000042A000C84E676DC1AB43003D9160E458E143E1
S315000042B0408CB5781DAF154450EFE2D6E41A4B4456
S315000042C092D54D06CFF08044F64AE1C7022DB5449B
S315000042D0B49DD9794378EA4400202020202020206C
S315000042E020202828282828202020202020202020A0
S315000042F020202020202020202088101010101010B0
S3150000430010101010101010101004040404040404FB
S315000043100404041010101010101041414141414195
S315000043200101010101010101010101010101010177
S315000043300101010110101010101042424242424287
S315000043400202020202020202020202020202020247
S3150000435002020202101010102000000000000000EF
S315000043600000000000000000000000000000000047
S315000043700000000000000000000000000000000037
S315000043800000000000000000000000000000000027
S315000043900000000000000000000000000000000017
S315000043A00000000000000000000000000000000007
S315000043B000000000000000000000000000000000F7
S315000043C000000000000000000000000000000000E7
S315000043D0000000000000000000FFFFFF00000000DA
S315000043E0400035000800002000000000A402002064
S315000043F00C030020740300200000000000000000F1
S3150000440000000000000000000000000000000000A6
S315000044100000000000000000000000000000000096
S315000044200000000000000000000000000000000086
S315000044300000000043000000000000000000000033
S315000044400000000000000000000000000000000066
S315000044500000000043000000000000000000000013
S315000044600000000000000000000000000000000046
S3150000447000000000430000000000000000000000F3
S315000044800000000000000000000000000000000026
S3150000449000000000430000000000000000000000D3
S315000044A00000000000000000000000000000000006
S315000044B000000000430000000000000000000000B3
S315000044C000000000000000000000000000000000E6
S315000044D00000000043000000000000000000000093
S315000044E000000000000000000000000000000000C6
S315000044F00000000043000000000000000000000073
S3150000450000000000000000000000000000000000A5
S3150000451000000000D13E0000513E000000000000F7
S31500004520D8420000D5410000C1410000C141000051
S31500004530C1410000C1410000C1410000C14100006D
S31500004540C1410000C1410000C1410000FFFFFFFF63
S31500004550FFFFFFFFFFFFFFFFFFFF000001004153CA
S315000045604349490000000000000000000000000070
S3150000457000000000000000000000000000004153A1
S315000045804349490000000000000000000000000050
S315000045900000000000000000000000000000000015
S30D000045A0BD00000095000000BB
S3150100A100FFFFFFFFFFFFFFFFFFFFFFFFFFFFFFFF58
S3090100A110FFFFFFFF48
S3090100A134FFFFFFFF24
S3150100A200FFFDFFFFFFFFFFFFFFFFFFFFFFFFFFFF59
S3150100A210FFFFFFFFFFFFFFFFFFFFFFFFFFFFFFFF47
S3150100A220FFFFFFFFFFFFFFFFFFFFFFFFFFFFFFFF37
S3150100A230FFFFFFFFFFFFFFFFFFFFFFFFFFFFFFFF27
S3150100A240FFFFFFFFFFFFFFFFFFFFFFFFFFFFFFFF17
S3150100A250FFFFFFFFFFFFFFFFFFFFFFFFFFFFFFFF07
S3150100A260FFFFFFFFFFFFFFFFFFFFFFFFFFFFFFFFF7
S3150100A270FFFFFFFFFFFFFFFFFFFFFFFFFFFFFFFFE7
S3150100A280F8F8FFFFFFFFFFFFFFFFFFFFFFFFFFFFE5
S3150100A290FFFFFFFFFFFFFFFFFFFFFFFFFFFFFFFFC7
S3150100A2A0FFFFFFFFFFFFFFFFFFFFFFFFFFFFFFFFB7
S3150100A2B0FFFFFFFFFFFFFFFFFFFFFFFFFFFFFFFFA7
S3150100A2C0FFFFFFFFFFFFFFFFFFFFFFFFFFFFFFFF97
S705000011E108
