S02A0000456D6265646465645F436F6D7065746974696F6E5F52656E657361735F547261636B2E7372656382
S3150000000000040020C106000065050000BD060000D2
S31500000010BD060000BD060000BD060000BD060000CE
S31500000020000000000000000000000000BD06000007
S31500000030BD06000000000000BD060000BD06000071
S315000000400348044B834202D0034B03B11847704761
S3150000005084A2000184A2000100000000064B0749AB
S31500000060C91A891048BF0131491003D0044B0BB19E
S3150000007001481847704700BF84A2000184A200010E
S315000000800000000010B5064C237843B9FFF7D8FFEF
S31500000090044B13B10448AFF300800123237010BD55
S315000000A01C0400200000000084A2000108B5054BD6
S315000000B01BB105490548AFF30080BDE80840FFF7CE
S315000000C0CDBF00BF000000002004002084A2000174
S315000000D0704700BF022800D070470249024800F06E
S315000000E0D5B800BF1C0800003804002008B5FFF78B
S315000000F0EFFF002008BD00BF2DE9F84F0388DBB1F4
S3150000010082464FF0000B4FF00109DFF8D080002443
S31500000110304D4FEACB07DAF8043035F8022BD919FF
S31500000120898891420AD00134032CF4D1BAF8003000
S315000001300BF1010B5B45EAD8BDE8F88FDB5909FAEC
S3150000014004F603F0B853B3F1807FF6B298F8BB34E7
S3150000015013D0334231D1204A04F1200612F816306A
S31500000160DB09E0D012F81630012123F08003C82005
S3150000017002F8163000F0B0F9D5E7334211D0164A2E
S3150000018004F1200112F81130DB09CCD112F811303C
S31500000190C82043F0800302F81130012100F09CF9D9
S315000001A0C1E7012000F060FA98F8BB340120334320
S315000001B088F8BB3400F028FAE1E7012000F054FA91
S315000001C098F8BB34012023EA060388F8BB3400F014
S315000001D01BFAC0E7580900000030084000E0014063
S315000001E0F8B50646FFF788FFEFF31082012383F385
S315000001F01088234F3B681BB92249CB704023CB7034
S315000002003B6801333B6082F31088338823B30021B7
S315000002101D4D08E01B01134445F823403288013187
S315000002208BB29A4218D9736853F8314003EBC10276
S315000002309288E0034FEA1223D2B2EBD502EB031009
S3150000024055F820E024F4803C2EF4803E45F820E06A
S315000002501B0145F820C0DEE7EFF31082012383F38C
S3150000026010883B6813B13B68013B3B603B681BB998
S3150000027080200449CB70C87082F31088F8BD00BF97
S3150000028080040020000D08400008084008B5034B14
S3150000029003600846FFF7A4FF002008BD54524F50E4
S315000002A0064B074993F826001A6A51F82030C2F324
S315000002B002620449D3400B60704700BF00E0014072
S315000002C00004002090040020704700BFF8B54AF2F1
S315000002D0035001234549464AA1F8FE03A2F804311A
S315000002E0B2F804319BB2002BFAD101204FF400453D
S315000002F04FF0090C3F4CDFF818E13F4EC4F804E01C
S31500000300DFF810E13D4FC4F80CE0A2F800013C4ACA
S315000003103649B06030602760A5602561626191F85A
S315000003202620086A54F82220364EC0F30260C240E6
S31500000330326081F8133481F8A2C091F880341BB979
S3150000034091F8813499074CD0284D95F88034002BCC
S315000003503CD00022254B83F8812483F88024002397
S31500000360224981F8323091F83C301A07FBD543F226
S31500000370021000231D4A088581F82A3092F83C3085
S315000003809B06FBD50320052319494FF0F10C81F894
S315000003901C011D49116282F8263092F82630156A32
S315000003A054F82300C5F30264E04030600123F024D2
S315000003B04FF42540154981F80CC00B720C7382F876
S315000003C0303082F85230A2F8FE03F8BD0121C82071
S315000003D085F8801400F080F895F88034012BFBD165
S315000003E0B7E74FF47A70FFF76FFFB8E700E0014018
S315000003F000C001400004002000700040002D3101C3
S3150000040000C2EB0B900400202112012000200040C6
S3150000041000127A0000366E0138B50025284C0121FD
S31500000420C82084F8285000F057F884F8245094F82F
S315000004302430002BFBD194F82430214943F00203E9
S3150000044084F8243091F82430C3F340009B07F9D494
S315000004501B4A81F8220092F8223003F0FF00002B9D
S31500000460F9D192F84030164960F3C71382F840304C
S3150000047091F84030DB09FBD191F84200104A63F352
S31500000480C71081F8420092F84230DB09FBD192F89E
S3150000049044000B4963F3C71082F8440091F84430D6
S315000004A0C3F3C014DB09F9D1012000F0DDF8054BD8
S315000004B0012083F8BB44BDE8384000F0A5B800BF72
S315000004C00030084000E00140704700BFA0F1010085
S315000004D00028FBD1704700BF1F4B204A1B6800FB5A
S315000004E001F1934213D302F1854202F5071203F597
S315000004F0741302F6834203F6FF03A2FB03231B0DCC
S31500000500A3FB01314FF0FF30F9B1FFF7DFBF4FF426
S315000005107A7210B4A1FB02C41148B0FBF3F34FF09A
S31500000520FF3044B9BCFBF3FC4FEA9C0088B15DF890
S31500000530044BFFF7CBBF9B00B1FBF3F1A1FB02120B
S31500000540002AF4D1084620B1F1E71846002BDCD189
S3150000055070475DF8044B70479004002000127A0043
S3150000056000CA9A3B70B500240B4B0C4EB3F8202101
S31500000570B3F84051ADB2154025FA04F3DB0704D5B4
S3150000058056F82430E0B203B198470134102CF3D169
S31500000590014BA3F8305170BD0060004040040020BC
S315000005A010B5032084B000F05FF84FF0FF326FF013
S315000005B0FF011148114B04889964CDE90122039289
S315000005C01CB16FF001031A4601930C490C4B0A67E4
S315000005D0C3F88022029A03204A67C3F88422039A4A
S315000005E08A67C3F8882200F00FF814B1054BC3F8E8
S315000005F0004304B010BD00BF380A00000080004070
S3150000060000E100E000600040EFF31081012383F376
S315000006101088124B33F8102092B22AB133F810200A
S31500000620013A92B223F8102033F810309BB293B9F6
S3150000063010B40B4A0B4CB2F8FE3334F810009BB2E0
S3150000064043F4254323EA0003A2F8FE3381F310881E
S315000006505DF8044B704781F31088704784040020CE
S3150000066000E001403C0A000030B4EFF310810123A2
S3150000067083F310880E4A32F810309BB26BB90D4CDA
S315000006800D4DB4F8FE3335F810C09BB243EA0C03A7
S3150000069043F425439BB2A4F8FE3332F810300133FD
S315000006A09BB222F8103081F3108830BC704700BF2F
S315000006B08404002000E001403C0A000000BE7047B0
S315000006C008B500F035F8FFF711FDFEE7F8B5174F4E
S315000006D005463E68A6B17C6806EB460604EB860630
S315000006E002E00C34B4420BD0637AAB42F9D1D4E9C0
S315000006F000020021121A0C3400F07AF8B442F3D149
S31500000700BE6896B1FC6804EB061602E01034A642F9
S315000007100BD0637BAB42F9D1D4E90002A168121A6F
S31500000720103400F06DF8A642F3D1F8BD6009000060
S315000007304FF47001274B284A70B50020C3F8881083
S315000007409A60FFF7C7FCFFF7C1FD0120FFF7C2FC67
S31500000750224B83F30A880020FFF7B8FFFFF7A0FDBE
S31500000760FFF75AFE0320FFF77FFF00234FF6FF70C7
S315000007701B4903F1080201330C2B21F81200F8D1B2
S3150000078000240320FFF740FF0320FFF76DFF154B02
S3150000079003205C609C60DC601C61FFF735FF012074
S315000007A0FFF794FF104D114B5B1BA3424FEAA306C4
S315000007B005DD55F8043B01349847A642F9DC0220D2
S315000007C0FFF788FCFFF7ECFEBDE870400020FFF75E
S315000007D07BBE00BF00ED00E000000000000000202E
S315000007E0000D084000000E40A00A0000A40A000008
S315000007F002440346934200D1704703F8011BF9E710
S315000008000A44431E914200D1704710B511F8014BBE
S31500000810914203F8014FF9D110BD000026000000F7
S31500000820280800000000000000000106000100008A
S31500000830000001060101000000000106020100009F
S31500000840000001060301000000000106040100008B
S315000008500000010605010000000001060601000077
S31500000860000001000801000000000106020200006D
S315000008700000010603020000000001060402000059
S315000008800000010605020000000001060602000045
S315000008900000010607020000000001150A02000020
S315000008A00000010000030000000001040403000032
S315000008B00000010405030000000001050903000013
S315000008C0000001050A030000040400000104000002
S315000008D005040000020400000000010606040000F2
S315000008E000040107070400000004010708040000D3
S315000008F00004010709040000000401070A040000BF
S31500000900000001150B040000000001150C04000096
S31500000910000001150D04000000000105010500009E
S315000009200000010502050000000401070B05000098
S31500000930000401070C050000000001050106000087
S315000009400000010502060000000001050D0600007A
S31500000950000001050E060000020403040404000062
S3150000096004000000080A00000800000088090000D2
S31500000970020000007809000000000068000000681E
S315000009800000002000000020000000680000006851
S315000009900000006000010C0800000068000000680C
S315000009A000000070000109080000006800000068EF
S315000009B0000000080001020800000068000000684E
S315000009C04000000000010108000000200000002097
S315000009D00000006000010C03000000200000002061
S315000009E00000007000010903000000200000002044
S315000009F000000008000002030000002000000020A4
S31500000A0040000000000001030000006800000068CC
S31500000A1000010008000000680000006800010008EE
S31500000A200000002000000020000000031C0400203D
S31500000A3094040020000000030000000001000200F2
S31500000A4008001000200000004275696C7420776968
S31500000A5074682052656E6573617320416476616EB9
S31500000A6063656420466C657869626C6520536F66C1
S31500000A707477617265205061636B61676520766586
S31500000A807273696F6E20362E352E3000362E352E57
S30D00000A9030000000000005061D
S30900000A98F8B500BFE8
S30900000A9CF8B500BFE4
S30900000AA0AD0000009F
S30900000AA485000000C3
S3090100A100FFFFFFFF58
S3090100A200FFFDFFFF59
S3090100A280F8F8FFFFE5
S705000006C133
