S02A0000456D6265646465645F436F6D7065746974696F6E5F52656E657361735F547261636B2E7372656382
S3150000000020050020B9320000F9300000B5320000AA
S31500000010B5320000B5320000B5320000B53200003E
S31500000020000000000000000000000000B5320000E3
S31500000030B532000000000000B532000039060000AD
S3150000004031290000A5280000C1290000092A000066
S315000000509D1F000035200000DD200000C5210000A6
S315000000609D1F000035200000DD200000C521000096
S3150000007031290000A5280000C1290000092A000036
S31500000080C443000003050000000000000103000057
S31500000090A10200004102000000000000D44300005D
S315000000A0050200000000000001030000A10200009C
S315000000B04102000000000000FC43000000000000B8
S315000000C02D05000085040000DD0300005D0300002F
S315000000D0000000008C430000FF000000D105000076
S315000000E0000000000000000000000000A105000064
S315000000F0000000002844000002000000000000008C
S3150000010000000000000000005508000091060000F5
S3150000011019080000DD0700008C450000400035008E
S3150000012000000000AC000020C8230020E8430020A7
S3150000013064000000E833002064000000E82300208B
S315000001406400000008001100CC0000200000000040
S31500000150F054002058550020C05500200000000033
S315000001600000000000000000000000000000000089
S315000001700000000000000000000000000000000079
S315000001800000000000000000000000000000000069
S30D00000190000000000000000061
S315000001980348044B834202D0034B03B11847704708
S315000001A8180100201801002000000000064B07492E
S315000001B8C91A891048BF0131491003D0044B0BB145
S315000001C801481847704700BF180100201801002091
S315000001D80000000010B5064C237843B9FFF7D8FF96
S315000001E8044B13B10448AFF300800123237010BDFC
S315000001F83C0500200000000084A2000108B5054B5C
S315000002081BB105490548AFF30080BDE80840FFF774
S31500000218CDBF00BF000000004005002084A20001F9
S3150000022810B50446034800F033FD2146BDE81040EA
S31500000238836918478C430000E8B170B50368044623
S31500000248B3B1114B00221E689D683046EB68A18841
S31500000258984798B93046AB69A18804F108029847CF
S3150000026800B970BD4221094B094A0A4802F0F2FE5C
S315000002786FF0150070BD6FF0150070474021034BF5
S31500000288034A044802F0E6FE4C4500009443000089
S315000002980C450000A8430000E8B1F8B50368044619
S315000002A8B3B1114B0D461F689E6804223846F368A1
S315000002B8A188984790B92A463846F369A18898478D
S315000002C800B9F8BD3521094B094A0A4802F0C2FEB1
S315000002D86FF01500F8BD6FF0150070473321034B1A
S315000002E8034A044802F0B6FE4C4500009443000059
S315000002F800450000A843000098B108B503686BB133
S31500000308094BD3E9011218681268904700B908BD6D
S315000003182821064B064A074802F09CFE6FF0150096
S3150000032808BD6FF0150070474C4500009443000067
S31500000338F4440000A843000008B5044800F014FC83
S31500000348BDE80840024800F00FBC00BF1C000020B2
S315000003580000002040B3F0B50C4683B009B315463B
S31500000368FAB11E46EBB10179C1B9144F3868036971
S315000003789847072312482146846800932A4633463D
S315000003880068E468A04790B90E4A1378002BFCD0A1
S31500000398002438680121036914709847002003B0C7
S315000003A8F0BD6FF01500FAE76FF0150070479B2156
S315000003B8054B064A064802F04DFE00BF58050020C8
S315000003C84C4600005C050020944300003C450000B4
S315000003D8E043000000283CD070B50D46002935D012
S315000003E81446002A32D00179C1B91E4E3068036915
S315000003F89847A20714D11C4B29469A68186855686D
S315000004081F23A208A84738BB184A1378002BFCD02C
S31500000418002430680121036914709847002070BDD4
S31500000428E30708D4104B29469A68186855680F23BD
S315000004386208A847E7E7012CE6D10B4B22469868E5
S315000004482946446818680723A047DCE76FF01500BB
S3150000045870BD6FF0150070477F21054B054A0648A9
S3150000046802F0F8FD580500204C4600005C05002007
S315000004789443000030450000E043000000283CD0CB
S3150000048870B50D46002935D01446002A32D00179B8
S31500000498C1B91E4E306803699847A20714D11C4B90
S315000004A829469A68186895681F23A208A84738BB82
S315000004B8184A1378002BFCD0002430680121036900
S315000004C814709847002070BDE30708D4104B2946DE
S315000004D89A68186895680F236208A847E7E7012C09
S315000004E8E6D10B4B22469868294684681868072384
S315000004F8A047DCE76FF0150070BD6FF01500704778
S315000005085621054B054A064802F0A4FD5805002069
S315000005184C4600005C05002094430000244500007A
S31500000528E0430000C0B108B503790BB1002008BD4F
S315000005380C4800F021FB0C4B186080B10B4BD3E93B
S3150000054801121868126890470028EFD03021084B2E
S31500000558084A094802F07EFD6FF0150070476FF0F3
S31500000568050008BDD4430000580500204C4600008D
S315000005789443000018450000E0430000014800F0DD
S3150000058839BB00BF380000200379012B04BF014A9C
S31500000598137070475C05002088B1437963B16FF02A
S315000005A87F43084A9942106838BF013113681B1AFD
S315000005B88B42FBD3002070476FF0040070476FF042
S315000005C81500704760050020F0B170B50446052097
S315000005D802F0E0FC0E4AA2FB00239B09013BB3F1A3
S315000005E8807F0ED24FF0E02200204FF0F00C072556
S315000005F80121084E536186F823C090611561617127
S3150000060870BD6FF0040070BD6FF01500704700BF35
S31500000618D34D621000ED00E010B5044C204600F002
S315000006282FFB2046A368BDE8104018475400002059
S31500000638024A136801331360704700BF6005002043
S315000006480F4B1A68CAB110B54FF0000E82B060F0B1
S315000006587F0C54691046ADF800E00223694601AAEA
S31500000668ADF804E08DF800C0A04718B99DF805005C
S3150000067802B010BD002002B010BD0020704700BFB8
S315000006886405002000000000002879D02DE9F04319
S315000006983F4B0446186883B000286ED000256A468A
S315000006A8F2270095072311464669CDF803508DF8C1
S315000006B80070B047374BBDF901605A79BDF9035050
S315000006C8BDF90570002A39D11879400803F004F9F4
S315000006D880468946304603F0FFF82BA3D3E900236A
S315000006E802F07EFE42464B4602F07AFE03F05EF9C1
S315000006F80646284603F0F0F823A3D3E9002302F0C0
S315000007086FFE42464B4602F06BFE03F04FF9054674
S31500000718384603F0E1F81CA3D3E9002302F060FE93
S3150000072842464B4602F05CFEA660E56003F03EF9E1
S3150000073803460020236103B0BDE8F083304603F08A
S31500000748CBF811A3D3E9002302F04AFE03F02EF9F1
S315000007580646284603F0C0F80BA3D3E9002302F0A7
S315000007683FFE03F023F90546384603F0B5F806A31D
S31500000778D3E9002302F034FED6E76FF00400DAE787
S315000007886FF01500704700BFDE718A8EE4F26F3F86
S31500000798640500207400002010B50D4B82B01C685B
S315000007A89CB14FF0000E60F03F0CADF800E020461B
S315000007B803236946646901AAADF804E08DF800C010
S315000007C88DF802E08DF806E0A04702B010BD00BF24
S315000007D864050020B0B10D4B186888B110B540F219
S315000007E82D4C4FF0000E82B002236946446901AAD7
S315000007F8ADF804E0ADF800C0A047002002B010BD77
S31500000808002070476FF01500704700BF6405002090
S31500000818B0B10D4B186888B110B540F62D0C4FF0E5
S31500000828000E82B002236946446901AAADF804E0C5
S31500000838ADF800C0A047002002B010BD00207047E8
S315000008486FF01500704700BF64050020F0B583B04F
S31500000858002800F08281B94800F08EF9002800F0DF
S315000008687981B74800F0CEF9B64C2060002800F030
S315000008787181836898470546002840F05B81FFF739
S31500000888DFFEE52840F051812D20FFF7D9FE2668C6
S3150000089840F00803DBB266B12D278DF80130ADF8BC
S315000008A804508DF80070304602236946766901AA1D
S315000008B8B0473120FFF7C4FE266800F0F40343F082
S315000008C80A0376B14FF0000C31278DF80130ADF8E8
S315000008D804C08DF80070304602236946766901AA7D
S315000008E8B0474FF48472984B2A209A80FFF7A8FEE7
S315000008F8276800F0F80343F00703002F43D04FF0B2
S315000009082A0C00268DF80130ADF804608DF800C079
S315000009183846022369467F6901AAB8472068002835
S3150000092831D040F62153ADF80460ADF80030694681
S315000009380223476901AAB847206820B345F2220373
S31500000948ADF80460ADF8003069460223476901AA8C
S31500000958B8472068B8B14FF22303ADF80460ADF884
S31500000968003069460223476901AAB847206850B192
S3150000097842F21D03ADF80460ADF800306946022363
S31500000988466901AAB0472F20FFF75AFE266800F0ED
S315000009989F0376B14FF0000C2F278DF80130ADF884
S315000009A804C08DF80070304602236946766901AAAC
S315000009B8B0472E20FFF744FE266800F09F0343F059
S315000009C8600376B14FF0000C2E278DF80130ADF894
S315000009D804C08DF80070304602236946766901AA7C
S315000009E8B0472E20FFF72CFE266800F00F0343F0D1
S315000009F87003DEB14FF0270C00278DF80130ADF8F3
S31500000A0804708DF800C0304602236946766901AA4B
S31500000A18B047206850B140F62403ADF80470ADF82D
S31500000A28003069460223466901AAB0472F20FFF71E
S31500000A3807FE266800F0EF0376B14FF0000C2F276B
S31500000A488DF80130ADF804C08DF8007030460223E9
S31500000A586946766901AAB0472E20FFF7F1FD266898
S31500000A6840F01003DBB246B34FF02E0C00278DF88A
S31500000A780130ADF804708DF800C03046022369468F
S31500000A88766901AAB0472068B8B140F62803ADF8E0
S31500000A980470ADF8003069460223466901AAB047DA
S31500000AA8206850B140F62923ADF80470ADF800303F
S31500000AB869460223466901AAB0472F20FFF7C0FD01
S31500000AC8266800F0FB0376B14FF0000C2F278DF84F
S31500000AD80130ADF804C08DF800703046022369462F
S31500000AE8766901AAB0472E20FFF7AAFD246840F0D0
S31500000AF80403DBB26CB100272E268DF80130ADF861
S31500000B0804708DF80060204602236946646901AACC
S31500000B18A0473220FFF740FE3420FFF73DFE36207F
S31500000B28FFF73AFE284603B0F0BD084B0849186897
S31500000B3800F006F96FF00405F4E700BFC4430000AF
S31500000B48FC43000064050020740000200C460000E9
S31500000B58084400006FF00505E4E76FF01505E1E7C6
S31500000B680048704774000020024B1A6802B182617F
S31500000B78186070476805002038B5074B1C684CB1EB
S31500000B88054601E0A4692CB12946206803F034F82B
S31500000B980028F7D0204638BD6805002070B50C4AF5
S31500000BA80C4B15681C6828460B4900F0C9F844B177
S31500000BB80A4E22683146284600F0C2F8A469002C7D
S31500000BC8F7D12846BDE87040054900F0B9B800BF1E
S31500000BD80C4600006805002030440000444400002C
S31500000BE82444000008B5FFF7A7FBBDE80840FFF757
S31500000BF8D5BF00BF024B1A6802B182611860704700
S31500000C086C05002038B5074B1C684CB1054601E059
S31500000C18A4692CB12946206802F0EEFF0028F7D017
S31500000C28204638BD6C05002070B50C4A0C4B15687B
S31500000C381C6828460B4900F083F844B10A4E22681E
S31500000C483146284600F07CF8A469002CF7D12846DE
S31500000C58BDE87040054900F073B800BF0C460000B7
S31500000C686C0500204C440000444400002444000065
S31500000C7808B5FFF783FCBDE80840FFF7D5BF00BFFE
S31500000C88024B1A6802B1C2611860704770050020ED
S31500000C9838B5074B1C684CB1054601E0E4692CB130
S31500000CA82946206802F0A8FF0028F7D0204638BD5C
S31500000CB87005002070B50C4A0C4B15681C68284650
S31500000CC80B4900F03DF844B10A4E226831462846E1
S31500000CD800F036F8E469002CF7D12846BDE87040E4
S31500000CE8054900F02DB800BF0C460000700500202D
S31500000CF864440000444400002444000008B5FFF79B
S31500000D088BFCBDE80840FFF7D5BF00BF024BD3E90F
S31500000D1801121868126810478C450000024BD3E987
S31500000D2801121868126810470C4600000379022B56
S31500000D3802D10122014B1A70704700BF74050020CA
S31500000D480EB42DE9F0419DB023AA52F8041B03A85E
S31500000D58029202F03FFF9DF90C30E3B100252E46C2
S31500000D680F4A104CD2F8088017688DF80730012210
S31500000D783846D8F808300DF1070198472378002B34
S31500000D88FCD00135EDB205F170036B4413F9643CF0
S31500000D982670002BE9D11DB0BDE8F04103B07047BD
S31500000DA80C4600007405002030B50F4D43686B6093
S31500000DB803882B800378A3B1864600230B4CDEF804
S31500000DC8082004EBC30C02EBC30292E803008CE88C
S31500000DD8030001339EF80010DAB29142EFD8AC60F6
S31500000DE830BD024CAC6030BDC00500208005002037
S31500000DF8024A437811880B4313807047D4050020B4
S31500000E0803781BB1044A136801331360034B044883
S31500000E189B689B68184700BFD0050020CC4500009A
S31500000E28B42300202DE9F04F2DED028B85B0FFF796
S31500000E386DFFFFF773FF5C4B5C491868FFF780FF8F
S31500000E48FFF75CFFFFF714FFFFF7CCFEFFF788FEFE
S31500000E58574B1E68002800F09E8043690446984751
S31500000E685449554800F0A2FA5449554800F0D2F8BA
S31500000E78514800F0E7FA0021524A4F4800F0BCFBFF
S31500000E880121514A4C4800F0B7FB02214F4A4A4813
S31500000E9800F0B2FB9FED4E8A4E4FDFF828A1DFF82F
S31500000EA828B1DFF84491DFF844810FE0A1681160AA
S31500000EB8464A0BEB830102EB830201333B60E3688E
S31500000EC80B60236913600520FFF7AAF92046A3697A
S31500000ED8984705460028F6D1D4ED027AF4EE008A42
S31500000EE867EE887A67EEA87A77EE887AFCEEE77A74
S31500000EF817EE903A49469AB23046FFF721FFD4EDED
S31500000F08037A67EE887A67EEA87A77EE887AFCEE37
S31500000F18E77A17EE903A41469AB23046FFF710FF45
S31500000F28D4ED047A67EE887A67EEA87A77EE887A3F
S31500000F38FCEEE77A17EE903A30469AB22649FFF762
S31500000F48FFFE3B68B3F5007F0AEB8302AEDB4FF486
S31500000F58007329461B4A184800F0F4FB4FF4007347
S31500000F680121194A144800F0EDFB4FF400730221E1
S31500000F78164A114800F0E6FB184B11481B8801A9D0
S31500000F88ADF80430164BADF806500295039300F001
S31500000F987BF83D6097E73046124905B0BDEC028BF9
S31500000FA8BDE8F04FFFF7CCBE8C4500007C4400003E
S31500000FB80C460000D8450000B42300205845000020
S31500000FC8E41D0020D8150020D80D0020D8050020E3
S31500000FD800004842D81D0020E0440000D405002047
S31500000FE8C005002094440000B8440000CC4400002A
S31500000FF8022800D070470249024801F0ABBE00BF84
S315000010088C460000DC1D002008B5FFF70BFF00200A
S3150000101808BD00BFF8B541604B6806460D462BB1C2
S31500001028D3E9011218681268904730BBAB68D3E958
S315000010380112186812689047F8B9AB683246996881
S3150000104818684B690D499847B8B9334601460C4F9D
S3150000105806F5B06CC3F89C706C680CB1626854787D
S3150000106883F8A14083F8A010B0336345F2D1054B4D
S3150000107886F8891586F888153360F8BD451300008B
S315000010885253534E53444D522DE9F04F8C684768DE
S3150000109866783A7806EB860306EB430300EB031BF8
S315000010A84FEA03199BF8B53089B09A4200F2E480FA
S315000010B8B0220546002306FB02F202F10800284486
S315000010C88BF8B530438094F800E02A4482F8ACE007
S315000010D8607882F8A2006068C2F8A8002078002824
S315000010E83BD04FF016089A46CDE9017E0391A068D9
S315000010F84FEA5A0700EBC30000791AF0010F02EB1A
S31500001108070E20F00F0A16BF9EF8AD00000940EA48
S315000011180A00174487F8AD00D07AA76818FB060EB0
S315000011284FEAC30C57F80C7005EBCE0ECEF80C70D0
S31500001138A768616867443F79013007F00F0701FB2C
S3150000114807F7CEF81070D072207801335FFA83FA69
S315000011585045CCD8DDE9017E03990EF101084FEA26
S31500001168680808F111030193B02303FB06530A88A4
S31500001178A3F8A4204A88A3F8A620486870B16AB1E3
S31500001188162293F80BE012FB06E205EBC202D060CA
S3150000119849880EF1010C116183F80BC07F68002F96
S315000011A84AD04FF0000A019B09F19C022A44079293
S315000011B80593CDF818A0B868CDF810A0436904AA1D
S315000011C8386805A99847B02000FB065898F80B2000
S315000011D8002A60D0DBF80C3004AA0793DBF810303D
S315000011E805A90593049B0AF1010A0693BB683868AA
S315000011F85B69984798F80B205FFA8AF39A420BF1D5
S31500001208080BE7D8501CC0B2B027162313FB0623D9
S3150000121807FB0652049905EBC303118169684968FF
S3150000122849684978032914BF01210221196109F186
S3150000123808012944D960D07295F8883561785BB180
S31500001248012295F888358A401343DBB285F888353C
S31500001258002009B0BDE8F08F6B6885F889159B6892
S3150000126809F19C019E681868019AF3682944984711
S315000012780028EED16178E3E701210B448BF8B530FD
S3150000128862788DF81410FB688DF81C2006933B696C
S3150000129805A89847DCE70120B6E700BF2DE9F0432B
S315000012A8012790F8891590F8883507FA01F223EA9C
S315000012B8020380F8883590F8883585B0002B3AD037
S315000012C805464FF0B0084FF09C09CC1904F0070406
S315000012D895F8882507FA04F31342DEB226D008FBF0
S315000012E804536A6885F88945906818FB049193F851
S315000012F8AC20836801325210DB6800681132294439
S315000013089847034601A8B3B1032195F888356A685A
S3150000131823EA060385F888358DF80410D2E90363B5
S315000013288DF80C400296984795F88915013404F013
S315000013380704A142CCD105B0BDE8F083F0B5037A25
S315000013480668032B054696F8897585B019D0B0242A
S3150000135804FB0764A27AE37A934212D07368996809
S31500001368162313FB07238A6806EBC3030868D568A8
S31500001378D3E90312A847A0B9A37A0133A37205B02B
S31500001388F0BD3046FFF78AFF2B7A8DF80430736874
S3150000139801A8DA688DF80C7002921B69984705B0A7
S315000013A8F0BD3046FFF77AFF0323EEE770B5C1605C
S315000013B84B6905460361CC680E462378B3B1A3682A
S315000013C89A68D3E900011268904738BB63689A683F
S315000013D8D3E900011268904700BB6268034691682A
S315000013E81068CC6A2A460E49A047B8B900236B6034
S315000013F82B72B2787AB11A462969896841F833207E
S3150000140829698C6804EBC30CCCF80420B078013346
S31500001418D9B28842F0D80020024B2B6070BD00BFBD
S315000014281517000043444D5203461B6900201B68EC
S3150000143803EB01135A6070470022034610461A72DE
S31500001448704700BF0023C26843600372927882B176
S3150000145819460269926842F833100269926802EBEB
S31500001468C3025160C268013392F802C0DAB29445E9
S31500001478EFD80020704700BF10B5C3680446DB6884
S315000014881A786AB15B689A681868136B984750B9F6
S31500001498E368DB689B689A681868136A984710B906
S315000014A800231846236010BD10B5C3680446DB68E0
S315000014B85B689A6818689368984740B9E368BDE816
S315000014C81040DB689B689A6818681369184710BD4E
S315000014D82DE9F04104460069E2688368976803EBE2
S315000014E8C1035E68A4B0BE4206D394F808C01CF0D7
S315000014F8020F04D000225A6024B0BDE8F081267A93
S31500001508CD00F6071BD44FF0010C0FFA81FE0CFA3A
S3150000151801FC616811EA0C0123D163684CEA0303F4
S315000015286360636856689E422DD083682B441A68A8
S3150000153882F001021A6023699B682B44DAE7237A52
S3150000154843F002032372D369D3B10121527804A868
S315000015588DF810208DF81110984723699B682B4445
S31500001568C8E7D1690029E2D00223527804A88DF889
S3150000157811308DF81020884723699B682B44D6E7DD
S3150000158883682B44B6E7237A43F00103237261602C
S315000015981388866856F83E70ADF800309368019354
S315000015A8136A039304AB02931678F6B1D0F8048055
S315000015B89668083306FB07FC08EBC10696F804E0B4
S315000015C858F831600EF00F0E0EFB0C6643F8086CE7
S315000015D8466806EBC10C9CF80460013103F8046CFC
S315000015E892F800C0CEB2B445E0D8936968469847E9
S315000015F823699B682B449AE7F8B50C4605461646B8
S31500001608FFF766FFD5E90323D3E90131976801EBB4
S31500001618C40E22B251F832C0DEF8041053F8322054
S315000016280CFB071103EBC4031B79002003F00F031F
S3150000163803FB01233360D5E903239B68916803EB19
S31500001648C4035A680A445A60F8BD00BF2DE9F04140
S3150000165804460E4603691D68FFF73AFFD4E90321DD
S31500001668D2E902078B6853F8362003EBC60300FB62
S3150000167802FC3A78002A3BD04FEAC60E2B46724641
S31500001688002001261CE0DF81276993F80380D7E94B
S31500001698017171444968BF586144C8F3011801FAD9
S315000016A808F1394499609E81E1680130CF68C1B27A
S315000016B897F800800832884503F1100315D9216987
S315000016C849687F88114409797829DCD17F00BFB23F
S315000016D8DF812769D7E9018171444F6858F80210FC
S315000016E8674401EBC7019960DDE723699B6873448A
S315000016F878885A68294602445A60E368BDE8F0418A
S31500001708DB689B689A681868536818470068C36856
S315000017181B691978FFF79ABF10B50446C3681B6999
S315000017281978FFF793FFE368DB685C68A3682068AD
S31500001738DB68984728B9A36820685B68BDE810404D
S31500001748184710BDF8B50C461E4605461146D0E9A1
S315000017580323D3E90130976800EBC40E22B250F890
S3150000176832C0DEF804000CFB070053F8327003EBB6
S31500001778C4031A7902F00F0202FB007006FB02F29C
S3150000178802F062FA2B69E7009A6828463A445368D9
S31500001798214633445360FFF79BFE0020F8BD00BF87
S315000017A870B54D680446C0E901150B69C360CB687E
S315000017B803612B689E68D3E900013268904748B9EF
S315000017C82968034622460868B5690349A84708B93F
S315000017D8024B236070BD00BF4518000054554F43A7
S315000017E810B5836804461B689A681868D3699847D1
S315000017F800B9206010BD00BF03460020C3E90312EC
S31500001808704700BF10B483681B689C6818686368D3
S315000018185DF8044B184700BF10B483681B689C68C2
S315000018281868A3685DF8044B184700BF84B004A87D
S3150000183800E90E00062004B0704700BF00B5037922
S31500001848C268022B85B012D007D8012B09D1D368FC
S31500001858D3B100214FF0020C0EE0042B14D0802BDC
S3150000186812D0D36883B100214FF0030C04E0D3688B
S3150000187853B100214FF0010CCDE90211126901A8FC
S315000018888DF80CC00192984705B05DF804FB00BFBF
S3150000189884460020CCE90A32CCF82410704700BFF1
S315000018A8002210B5436802605A69044622B193685B
S315000018B810681B6A984763681A6922B193681068AA
S315000018C81B6A9847636893F90220002A0EDB0121F8
S315000018D82448530902F01F02203301FA02F240F8A5
S315000018E82320BFF34F8FBFF36F8F636893F90120EF
S315000018F8002A0EDB01211B48530902F01F02203380
S3150000190801FA02F240F82320BFF34F8FBFF36F8F1F
S315000019186368012293F903301248590903F01F033B
S31500001928203102FA03F340F82130BFF34F8FBFF39B
S315000019386F8F636893F90430590903F01F039A40BF
S3150000194801F1200340F82320BFF34F8FBFF36F8FB9
S315000019580020A268137823F040031370A368DA788E
S31500001968D87010BD00E100E070B51D4683689DF88B
S3150000197810C01B7813F0400340F0CC80C0E9031276
S31500001988C0E905330E464168C56180F820C00446A3
S315000019984869002830D0BCF10F0FA56159D902203B
S315000019A84B695B681B68D97860F30511D97002200A
S315000019B863685B695B681B68997860F38301997053
S315000019C86368A9B25B695B681B68D98163685B69F0
S315000019D85B681B689A60002A00F0AC8063685B69E4
S315000019E85A68186811689A6853689847002840F03A
S315000019F88680616894F820C00B69002B51D0656118
S31500001A080B69BCF10F0F5B681B68DA7878D902217D
S31500001A1861F30512DA70022163681B695B681B684B
S31500001A28DA7861F38302DA706368AAB2597A186AB7
S31500001A38D1B9C8B1017B012916D1E169012913D0B1
S31500001A48013D65611B69013A5B6892B21B68DA81E0
S31500001A580EE04969BCF1070F4968096864D8C87877
S31500001A6863F30510C870A2E71B695B681B68DA8117
S31500001A7863681B695B681B685E60002E69D0A26894
S31500001A88137823F02003137063681B69D3E90112E6
S31500001A981868096852689047002830D194F820C021
S31500001AA86168A068BCF10F0FC37ADAB2038A9BB2E9
S31500001AB832D90CF1010C22F040024FEA9C0CACF131
S31500001AC8050C42F020024D7A23F47063096A43EA52
S31500001AD80C2355B949B1097B012906D1E1690129C8
S31500001AE814BF43F0800323F08003C2720020A2686B
S31500001AF89BB21382A268137843F06003137070BD1B
S31500001B08BCF1070F8ABF012122F0300261F30512EA
S31500001B18DA7080E7082070BDBCF1070F94BF42F069
S31500001B28400202F09F02CEE70120CB7860F305134E
S31500001B38CB703CE763680E485B695B681B689978FD
S31500001B4862F38301997063685B695B681B689860D8
S31500001B5844E7636807491B695B681B68DA7866F3BC
S31500001B688302DA7063681B695B681B68596086E7DD
S31500001B784C5400204854002010B594468E461C4606
S31500001B8882B00021724663460094FFF7EDFE02B06C
S31500001B9810BD00BF10B594461C4682B000226346AD
S31500001BA80094FFF7E1FE02B010BD00BF10B49DF827
S31500001BB8044001945DF8044BFFF7D6BE42684369BA
S31500001BC8517A126A19B912B1127B012A28D0C26950
S31500001BD8511E994207D181680A8A22F080021204AE
S31500001BE8120C0A82C26993420CD0D0E9021232B1B1
S31500001BF890F820C0BCF10F0F05D952F82320013305
S31500001C084A6043617047BCF1070F94BFD25C32F853
S31500001C18132003F1010394BF0A718A804361704758
S31500001C288268D2789206EDD5D1E700BF30B5836ACF
S31500001C3885B004468C4601ADABB193E8070085E84C
S31500001C48070062681846127883F804C01A60E26AC8
S31500001C589A60636A9847A36A1BB195E8070083E808
S31500001C68070005B030BD2B46EBE700BF2DE9F04F66
S31500001C780B78DFF818830F691B020D46044683B0FC
S31500001C8898448FB14FF000627B681B681A607B68C6
S31500001C981B68C3F80880BB68D7E900011B6898472A
S31500001CA80646002840F01B816B698BB14FF4002172
S31500001CB85A68126811605A681268C2F804809A68ED
S31500001CC8D3E90001126890470646002840F00B81C8
S31500001CD800216560AB696362EB69C4E90A132B7876
S31500001CE803F5800303F58D531B02A3606F7A002F5B
S31500001CF800F003814FF0B00C88466A7BE87A12033D
S31500001D0842EA40022B6AA87A02431878002840F073
S31500001D18FA80012128788140890740F0288193F8C4
S31500001D2801E099784FEA4E102CEACE1540EA4E00AB
S31500001D3822F070062843DA781D7901FA02FC1201AE
S31500001D481DB1022D0CBF30252025597929B101294D
S31500001D5814BF48F0010848F00308197A93F806B04A
S31500001D6801F0030142EA81023243002F40F0D0809D
S31500001D78997A5F7A93F80BE042F460420191EFF3A7
S31500001D88108A012181F31088666896F80090C9F1D7
S31500001D98130901FA09F1DFF8F891D9F8046026EA7F
S31500001DA80101C9F80410D9F804108AF310884FF015
S31500001DB800095FFA8CF1D4F808C0C0B29CF803A0F9
S31500001DC88CF80390A6685FFA88F83070A06892B21B
S31500001DD84170A1688D70A168D8798872A168019848
S31500001DE80F73A1684873A16881F80EE0A16881F8AD
S31500001DF80F80A1680A82A26882F820B06268527AC7
S31500001E08002A40F083801B7B012B0CBF1222102274
S31500001E18A36883F82120636893F90220002A7DDAF3
S31500001E28564993F90120002A26DB5B7902F16040C6
S31500001E381B01DBB200F5614080F80033504B41F8D6
S31500001E48224002F1C00053F8205025F4803543F8AB
S31500001E58205053F82030BFF35F8F012053099B00B1
S31500001E6802F01F0203F1604303F5614300FA02F230
S31500001E78C3F880211A6063681A7A424893F90430D5
S31500001E8812013F4DC618D2B286F8002341F8234006
S31500001E9803F1C00255F8226026F4803645F8226020
S31500001EA855F82220BFF35F8F012203F01F055B0957
S31500001EB89B0003F1604303F56143AA40C3F8802100
S31500001EC81A600026636893F90320DB7910441B0126
S31500001ED8DBB280F800332C4B41F8224023603046B1
S31500001EE803B0BDE8F08F002FF9D0BB6838681B6ACD
S31500001EF89847304603B0BDE8F08F4FF0B80C08217C
S31500001F084FF01008F9E641F0B10C08E710227FE718
S31500001F184FF0000E7746CDF804E030E79B7902F1E2
S31500001F2860401B011549DBB200F5614080F80033BB
S31500001F38134B41F8224002F1C00053F8205025F413
S31500001F48803543F8205053F82030BFF35F8F0120C7
S31500001F5853099B0002F01F0203F1604303F5614336
S31500001F6800FA02F2C3F880211A60636859E7B7FAE3
S31500001F7887F1490942EAC112D1E600BF945400200C
S31500001F880060004000E100E04950535204A01140AF
S31500001F980040084010B4EFF30383103B204A5BB2BD
S31500001FA803F1C00152F8210020F4803042F82100E4
S31500001FB852F821201B4A52F82330D3E906218A42D7
S31500001FC81DD018699C6840B393F820100F290ED8C5
S31500001FD8072995BF2179A188815420F81210D9695B
S31500001FE801328A429A610AD05DF8044B70476168EB
S31500001FF840F82210D96901328A429A61F4D15B68A5
S3150000200893F90330012203F01F0007495B09824058
S3150000201841F823205DF8044B70476068E0E700BF8D
S31500002028006000409454002000E100E0EFF30383D1
S31500002038103B254A5BB203F1C00152F8210020F497
S31500002048803042F8210052F82110204951F8230027
S3150000205841680B6A13B15B78012B01D0FFF7AEBD5F
S3150000206810B4C46904F1FF3C446964450FD00A6999
S315000020784AB191F90320164902F01F0C03FA0CF332
S31500002088520941F822305DF8044BFFF797BD91F9E4
S31500002098031001F1C00C52F82C4024F4803442F8A5
S315000020A82C4052F82C20BFF35F8F4A09920001F0AA
S315000020B81F0102F1604203FA01F102F56142C2F81A
S315000020C880111160DFE700BF0060004094540020D3
S315000020D800E100E010B4EFF30382103A344953B23A
S315000020E803F1C00051F8204002F0FF0224F48034C6
S315000020F841F8204051F820102E4951F823008168F4
S31500002108C978890706D54168497A012902D05DF858
S31500002118044B70470121284C5B0902F01F0220334B
S3150000212801FA02F244F82320BFF34F8FBFF36F8FF3
S31500002138436893F90230002B0BDB5A0903F01F039F
S31500002148994002F1200344F82310BFF34F8FBFF3E1
S315000021586F8F8268137823F040031370436893F9EE
S315000021680230002B04DA01215DF8044BFFF75EBD4F
S315000021780F4A03F1C00152F8214024F4803442F892
S31500002188214052F82120BFF35F8F01215A0992009E
S3150000219803F01F0302F1604202F5614201FA03F3FC
S315000021A8C2F88031136001215DF8044BFFF73EBD8C
S315000021B8006000409454002000E100E070B5EFF3A1
S315000021C80383344A103B5CB252F824506B6893F987
S315000021D80230002B0DDB01212F485A0903F01F039B
S315000021E8203201FA03F340F82230BFF34F8FBFF3D2
S315000021F86F8FAA68137823F0400313706B6893F9FE
S315000022080230002B1ADB254A03F1C00152F82100DF
S3150000221820F4803042F8210052F82120BFF35F8F66
S3150000222801215A09920003F01F0302F1604202F5E8
S31500002238614201FA03F3C2F8803113600021AA68EB
S31500002248D378D1701A07DEB211D4F30715D406F085
S315000022581406142E19D0114A04F1C00352F823109B
S3150000226821F4803142F8231052F8233070BD05213D
S315000022782846FFF7DBFCF307E9D50421284606F0D4
S315000022881406FFF7D3FC142EE5D108212846FFF7DC
S31500002298CDFCE0E79454002000E100E00060004037
S315000022A803460020012110B41A6A58609070DA6952
S315000022B82C4C92F905204FEA521C02F01F0201FA33
S315000022C802F20CF1200C44F82C20BFF34F8FBFF319
S315000022D86F8FDA6992F90B204FEA521C02F01F023F
S315000022E801FA02F20CF1200C44F82C20BFF34F8FB0
S315000022F8BFF36F8FDA6992F907204FEA521C02F092
S315000023081F0201FA02F20CF1200C44F82C20BFF34C
S315000023184F8FBFF36F8FDA6992F909204FEA521C83
S3150000232802F01F0201FA02F20CF1200C44F82C20EC
S31500002338BFF34F8FBFF36F8FEFF3108481F31088CD
S31500002348DB69094A93F800C04FF00043516823FA45
S315000023580CF30B435360536884F310885DF8044B01
S31500002368704700BF00E100E0004008400346002037
S31500002378C3E90512704700BF10B4046AA37803F0D6
S315000023887B03A3708378046A03F00303D21A0B4411
S31500002398C0E90332A37843F08003A370837803F07F
S315000023A80303022B06D0036A0A780020DA705DF868
S315000023B8044B70470B88026A43F47E43D38100209E
S315000023C85DF8044B704700BF84460020CCE90A320A
S315000023D8CCF82410704700BF01220346C069007874
S315000023E8824012F0060F02D00A78120725D410B5DB
S315000023F8186A827802F07B0E02F00B0282700020C7
S31500002408D8601A6A8C78547092F800C04C7864F3D5
S31500002418010C82F800C091F803C082F812C009784E
S3150000242892F807C001F05C010CF0A30C41EA0C011C
S31500002438D1711B6A83F802E010BD0320704700BF04
S315000024484FF0FF330020C1E9003370470346880781
S3150000245810D510B40024186AC907827802F07B02E6
S31500002468827020461C6102D5002210469A615DF8EA
S31500002478044B7047CA0748BF00224FF0060044BF06
S315000024889A611046704700BF0346002210B49C6943
S3150000249810460C609A615DF8044B70470620704739
S315000024A8F0B5846A85B005460F4694466E46B4B1C3
S315000024B894E80F0086E80F00EB6920461B78A760B2
S315000024C8236084F804C0EB6AE3606B6A9847AC6AD9
S315000024D81CB196E80F0084E80F0005B0F0BD34463D
S315000024E8EAE700BF062070470122034608788240C3
S315000024F812F0060F05D0CA6952681278120700F161
S31500002508CB8100224FF0010C00F580002DE9F04147
S3150000251800F58C500002C3E907101A704D699878C7
S315000025285D628D696CF30100C3E90A2598704878E5
S31500002538D44C904214BF65460225987865F301008D
S31500002548987091F90B5091F80AE0680905F01F0692
S3150000255820300CFA06F644F82060BFF34F8FBFF31D
S315000025686F8FC94805F1C00650F8267062F3104708
S3150000257840F8267050F82660C44E4FEA0E1E6719BA
S315000025885FFA8EFE87F800E346F8253091F9055084
S3150000259891F804E06F0905F01F0820370CFA08F8CF
S315000025A844F82780BFF34F8FBFF36F8F05F1C0073D
S315000025B850F8278062F3104840F8278050F82770B3
S315000025C84FEA0E1E67195FFA8EFE87F800E346F893
S315000025D8253091F9075091F806E06F0905F01F08B4
S315000025E820370CFA08F844F82780BFF34F8FBFF35B
S315000025F86F8F05F1C00750F8278062F3104840F83E
S31500002608278050F827704FEA0E1E67195FFA8EFE6C
S3150000261887F800E346F8253091F9095091F808E063
S315000026286F0905F01F0820370CFA08F844F82780C8
S31500002638BFF34F8FBFF36F8F05F1C00750F82780A0
S3150000264862F3104840F8278050F827004FEA0E102A
S31500002658C0B22C4484F8000346F82530EFF3108600
S315000026688CF310884FF000450C788948E54044689B
S3150000267824EA05044460406886F31088186A827064
S31500002688186A0271186A4272186A8272186AC272E5
S31500002698186A428340F2F93208780CFA00FC1CEA00
S315000026A8020F02D040201A6AD0740625012240F291
S315000026B8F9301C6A25770C78A240024240F0CA809D
S315000026C8CA7848788C78D200032842EA041200F0C7
S315000026D8D58000280CBFE220F2201C6AD2B22270F4
S315000026E81A6A9071CC69227B082A00F0C380186A9E
S315000026F8520002F00202427300256278A078D201E5
S31500002708400100F02000D2B20243186A0572207810
S3150000271802380128186A40F2A280D2B2C2716068F3
S315000027281A6A847854704578147865F3010414702D
S31500002738C4789474D479007804F0A30400F05C009B
S315000027482043D0710020C3E90300C3E90500DC6912
S315000027584D4A94F90540CD6904F1C00152F821604B
S3150000276895F800C060F3104642F821600CF0030C9F
S3150000277852F82110BFF35F8F4FF0010E61098900EF
S3150000278804F01F0401F1604101F561410EFA04F4F9
S31500002798C1F880410C60D96991F90B4004F1C00178
S315000027A852F8216060F3104642F8216052F8211071
S315000027B8BFF35F8F6109890004F01F0401F16041CE
S315000027C80EFA04F401F56141C1F880410C60D9693B
S315000027D891F9074004F1C00152F8216060F31046F0
S315000027E842F8216052F82110BFF35F8F6109890012
S315000027F804F01F0401F160410EFA04F401F5614189
S31500002808C1F880410C60D96991F9091001F1C00439
S3150000281852F8246060F3104642F8246052F82420E7
S31500002828BFF35F8F4A09920001F01F0102F160426F
S315000028380EFA01F102F56142C2F8801111601A6AB6
S315000028484CF0700C82F802C06989124A19815A60E4
S31500002858BDE8F0814FF478401A6A908230E7FF2588
S3150000286845702078022808BF42F01002186AD2B2D2
S31500002878C27167E70A201A6A50733DE7F22042F0F0
S3150000288840022AE700E100E000600040945400207E
S31500002898004008405549435303207047EFF303832C
S315000028A8103B1F4A5BB203F1C00152F8210020F425
S315000028B8803042F8210052F821201A4A52F82300A3
S315000028C8C3691B6983B1036903B17047026A0021B2
S315000028D8937803F07F0343F004039370436AC1605F
S315000028E8C3B18022FFF7DCBD0369026A002BEED074
S315000028F88378C16803F00303022B0CD00B78D370DE
S315000029088278D0E9031302F003029B1A1144C0E946
S315000029180313D9E770470B8843F47E43D381EFE767
S31500002928006000409454002010B582B0EFF3038392
S31500002938103B1F4A5BB203F1C00152F8210020F494
S31500002948803042F8210052F821201A4A52F82340D2
S31500002958A27802F00303022B236A0CBF198A59795D
S31500002968A3690CBFC1F30801C9B2019143B9636AEF
S31500002978B3B10422204602B0BDE81040FFF790BD6F
S3150000298802F0030201A9606901F05EF9D4E90521A4
S31500002998A37803F003031A44C91AC4E9052109B147
S315000029A802B010BD636A002BFAD00122E2E700BF2D
S315000029B8006000409454002010B5EFF303830E4ADC
S315000029C8103B5CB252F82400026A937803F07B034A
S315000029D89370436A1BB102220021FFF761FD074A83
S315000029E804F1C00352F8231021F4803142F8231071
S315000029F852F8233010BD00BF9454002000600040F8
S31500002A0810B5EFF303831A4A103B5CB252F8240060
S31500002A18837803F00303022B036A0CBF198A5979DA
S31500002A2893F804C00CBFC1F30801C9B21CF0100F1B
S31500002A380CF0380206D093F81CC01CF0010F08BF32
S31500002A4842F0400293F804C00CF0C70C83F804C0A7
S31500002A58436A0BB1FFF724FD064A04F1C00352F896
S31500002A68231021F4803142F8231052F8233010BD88
S31500002A7894540020006000400022034610461A6065
S31500002A88704700BF10B40B0A064C1B0153FA81F1BC
S31500002A9854F821300020C3F340035DF8044B13704B
S31500002AA8704700BF00080840090A490101F1804142
S31500002AB801F500214B68002013807047090A490177
S31500002AC823EA020C01F180411A4001F5002142EA8D
S31500002AD80C4200208A6070470120CBB2984080B231
S31500002AE802B900040B0A5B0103F1804303F50023D6
S31500002AF898600020704700BF10B4090A490101F127
S31500002B08804101F500210C6802EA030C4CEA040C2A
S31500002B1862EA030202EA0C020A6000205DF8044B2E
S31500002B28704700BF090A490101F1804101F50021FA
S31500002B384B680020C3F30F4313807047012310B47A
S31500002B484FEA112C4FEA4C1C0CF1804C0CF5002C6A
S31500002B58DCF80440C9B28B4099B203EA14435B1A05
S31500002B68B3FA83F35B0900205DF8044B13707047D2
S31500002B78090A490123EA020C01F180411A4001F5CC
S31500002B88002142EA0C420020CA607047012010B4B6
S31500002B980B0A5B0103F1804303F50023C9B2DC6825
S31500002BA800FA01F1012A4FEA01400DBF84438C4324
S31500002BB804430C43DC6000205DF8044B704700BFFB
S31500002BC82DE9F84F0388DBB182464FF0000B4FF032
S31500002BD80109DFF8D0800024304D4FEACB07DAF838
S31500002BE8043035F8022BD919898891420AD0013464
S31500002BF8032CF4D1BAF800300BF1010B5B45EAD887
S31500002C08BDE8F88FDB5909FA04F603F0B853B3F1B7
S31500002C18807FF6B298F8BB3413D0334231D1204ABC
S31500002C2804F1200612F81630DB09E0D012F8163047
S31500002C38012123F08003C82002F8163000F012FAAA
S31500002C48D5E7334211D0164A04F1200112F81130A3
S31500002C58DB09CCD112F81130C82043F0800302F802
S31500002C681130012100F0FEF9C1E7012000F0DAFA7F
S31500002C7898F8BB340120334388F8BB3400F0A2FA35
S31500002C88E1E7012000F0CEFA98F8BB34012023EAE8
S31500002C98060388F8BB3400F095FAC0E768480000D8
S31500002CA80030084000E00140F8B50646FFF788FF07
S31500002CB8EFF31082012383F31088234F3B681BB977
S31500002CC82249CB704023CB703B6801333B6082F3CB
S31500002CD81088338823B300211D4D08E01B011344D7
S31500002CE845F82340328801318BB29A4218D9736865
S31500002CF853F8314003EBC1029288E0034FEA1223EE
S31500002D08D2B2EBD502EB031055F820E024F4803C50
S31500002D182EF4803E45F820E01B0145F820C0DEE78A
S31500002D28EFF31082012383F310883B6813B13B68E5
S31500002D38013B3B603B681BB980200449CB70C870D7
S31500002D4882F31088F8BD00BF90540020000D08409B
S31500002D580008084008B5034B03600846FFF7A4FFC0
S31500002D68002008BD54524F5008B50846FFF79CFF8F
S31500002D78002008BD70B5012686B001AB03A80C4635
S31500002D8815460493ADF80C60ADF808100192FFF7EC
S31500002D9817FFEFF3108286F310881D490B681BB9DD
S31500002DA840261C48C370C6700B6801330B6082F35B
S31500002DB81088EA034FEA1423E4B219D41B01164A11
S31500002DC8234442F82350EFF31082012383F310883B
S31500002DD80B6813B10B68013B0B600B681BB98020AD
S31500002DE80C49CB70C87082F31088002006B070BDFD
S31500002DF8094A04EB031052F820601B0126F48036BA
S31500002E0842F8206025F4803642F82060D7E700BFF4
S31500002E1890540020000D084000080840064B07495A
S31500002E2893F826001A6A51F82030C2F30262044960
S31500002E38D3400B60704700BF00E00140200500202A
S31500002E48E4540020704700BFF8B54AF20350012346
S31500002E584549464AA1F8FE03A2F80431B2F80431FE
S31500002E689BB2002BFAD101204FF400454FF0090C14
S31500002E783F4CDFF818E13F4EC4F804E0DFF810E1F4
S31500002E883D4FC4F80CE0A2F800013C4A3649B06050
S31500002E9830602760A5602561626191F82620086A7E
S31500002EA854F82220364EC0F30260C240326081F8E0
S31500002EB8133481F8A2C091F880341BB991F8813493
S31500002EC899074CD0284D95F88034002B3CD0002229
S31500002ED8254B83F8812483F880240023224981F82E
S31500002EE8323091F83C301A07FBD543F20210002322
S31500002EF81D4A088581F82A3092F83C309B06FBD596
S31500002F080320052319494FF0F10C81F81C011D49CE
S31500002F18116282F8263092F82630156A54F8230092
S31500002F28C5F30264E04030600123F0244FF42540E5
S31500002F38154981F80CC00B720C7382F8303082F890
S31500002F485230A2F8FE03F8BD0121C82085F8801486
S31500002F5800F088F895F88034012BFBD1B7E74FF4D9
S31500002F687A70FFF76FFFB8E700E0014000C0014044
S31500002F782005002000700040002D310100C2EB0B37
S31500002F88E4540020211201200020004000127A009B
S31500002F9800366E01014B53F82000704720050020CB
S31500002FA838B50025284C0121C82084F8285000F09F
S31500002FB859F884F8245094F82430002BFBD194F85F
S31500002FC82430214943F0020384F8243091F8243050
S31500002FD8C3F340009B07F9D41B4A81F8220092F8F4
S31500002FE8223003F0FF00002BF9D192F84030164941
S31500002FF860F3C71382F8403091F84030DB09FBD103
S3150000300891F84200104A63F3C71081F8420092F81B
S315000030184230DB09FBD192F844000B4963F3C71031
S3150000302882F8440091F84430C3F3C014DB09F9D19F
S31500003038012000F0F7F8054B012083F8BB44BDE8F2
S31500003048384000F0BFB800BF0030084000E001403B
S31500003058704700BF00BEFEE7A0F101000028FBD1C3
S31500003068704700BF1F4B204A1B6800FB01F19342C3
S3150000307813D302F1854202F5071203F5741302F61B
S31500003088834203F6FF03A2FB03231B0DA3FB0131B7
S315000030984FF0FF30F9B1FFF7DFBF4FF47A7210B483
S315000030A8A1FB02C41148B0FBF3F34FF0FF3044B95B
S315000030B8BCFBF3FC4FEA9C0088B15DF8044BFFF7B4
S315000030C8CBBF9B00B1FBF3F1A1FB0212002AF4D19E
S315000030D8084620B1F1E71846002BDCD170475DF8A9
S315000030E8044B7047E454002000127A0000CA9A3B49
S315000030F870B500240B4B0C4EB3F82021B3F84051A1
S31500003108ADB2154025FA04F3DB0704D556F824308A
S31500003118E0B203B198470134102CF3D1014BA3F860
S31500003128305170BD006000405054002070B5032037
S3150000313884B000F077F800266FF0FF014FF0FF30FB
S315000031481C4C1D4B224699644FF0010E3346CDE9BF
S31500003158010004F12005039032F8021F0EFA03FC61
S31500003168013311B1012620EA0C00AA42F4D1F6B1C6
S315000031780190124B104A1067C3F880020299032087
S315000031885167C3F8841203999167C3F8881200F04F
S3150000319819F800230A4834F8022F03F1C001013355
S315000031A80AB140F82120A542F5D104B070BD4FF010
S315000031B8FF30DEE7C64700000080004000E100E07F
S315000031C800600040EFF31081012383F31088124B4F
S315000031D833F8102092B22AB133F81020013A92B28D
S315000031E823F8102033F810309BB293B910B40B4A69
S315000031F80B4CB2F8FE3334F810009BB243F4254367
S3150000320823EA0003A2F8FE3381F310885DF8044B25
S31500003218704781F310887047D454002000E00140BD
S315000032287C49000030B4EFF31081012383F3108842
S315000032380E4A32F810309BB26BB90D4C0D4DB4F8EE
S31500003248FE3335F810C09BB243EA0C0343F425431A
S315000032589BB2A4F8FE3332F8103001339BB222F841
S31500003268103081F3108830BC704700BFD45400205A
S3150000327800E001407C490000094A0346106850B145
S315000032880333084923F0030303448B428CBF4FF0F2
S31500003298FF3013607047044908461160F0E700BF25
S315000032A8E0540020780500207C05002000BE704709
S315000032B808B500F035F8FDF7A7FEFEE7F8B5174F95
S315000032C805463E68A6B17C6806EB460604EB86060C
S315000032D802E00C34B4420BD0637AAB42F9D1D4E99C
S315000032E800020021121A0C3400F07EFCB442F3D11D
S315000032F8BE6896B1FC6804EB061602E01034A642D6
S315000033080BD0637BAB42F9D1D4E90002A168121A4B
S31500003318103400F099FCA642F3D1F8BDA448000089
S315000033284FF47001274B284A70B50020C3F888105F
S315000033389A60FDF75DFEFFF787FD0120FDF758FE51
S31500003348224B83F30A880020FFF7B8FFFFF766FDD4
S31500003358FFF726FE0320FFF765FF00234FF6FF70F1
S315000033681B4903F1080201330C2B21F81200F8D18E
S3150000337800240320FFF726FF0320FFF753FF154B12
S3150000338803205C609C60DC601C61FFF71BFF01206A
S31500003398FFF794FF104D114B5B1BA3424FEAA306A0
S315000033A805DD55F8043B01349847A642F9DC0220AE
S315000033B8FDF71EFEFFF7BAFEBDE870400020FFF7D6
S315000033C847BE00BF00ED00E000000000200100201D
S315000033D8000D084000000E40144A0000184A00007C
S315000033E870B54FF0FF0C4CF4E06C1CEA11541DBF8D
S315000033F81CEA135594EA0C0F95EA0C0F00F0DEF858
S315000034082C4481EA030621EA4C5123EA4C5350EA3C
S31500003418013518BF52EA033541F4801143F480138D
S3150000342838D0A0FB02CE4FF00005E1FB02E506F01E
S315000034380042E0FB03E54FF00006E1FB03569CF073
S31500003448000F18BF4EF0010EA4F1FF04B6F5007F79
S3150000345864F5407404D25FEA4E0E6D4146EB0606EB
S3150000346842EAC62141EA55514FEAC52040EA5E5074
S315000034784FEACE2EB4F1FD0C88BFBCF5E06F1ED81E
S31500003488BEF1004F08BF5FEA500E50F1000041EB55
S31500003498045170BD06F0004646EA010140EA020002
S315000034A881EA0301B4EB5C04C2BFD4EB0C0541EA24
S315000034B8045170BD41F480114FF0000E013C00F339
S315000034C8AB8014F1360FDEBF002001F0004170BD5D
S315000034D8C4F10004203C35DA0C341BDC04F1140476
S315000034E8C4F1200500FA05F320FA04F001FA05F202
S315000034F840EA020001F0004221F0004110EBD370CF
S3150000350821FA04F642EB06015EEA430E08BF20EAFA
S31500003518D37070BDC4F10C04C4F1200500FA04F39D
S3150000352820FA05F001FA04F240EA020001F000412F
S3150000353810EBD37041F100015EEA430E08BF20EAA2
S31500003548D37070BDC4F1200500FA05F24EEA020EEA
S3150000355820FA04F301FA05F243EA020321FA04F019
S3150000356801F0004121FA04F220EA020000EBD370D0
S315000035785EEA430E08BF20EAD37070BD94F0000FD0
S315000035880FD101F00046400041EB010111F4801F04
S3150000359808BF013CF7D041EA060195F0000F18BFB5
S315000035A8704703F00046520043EB030313F4801FF1
S315000035B808BF013DF7D043EA0603704794EA0C0FAB
S315000035C80CEA135518BF95EA0C0F0CD050EA4106C1
S315000035D818BF52EA4306D1D181EA030101F000413E
S315000035E84FF0000070BD50EA410606BF1046194666
S315000035F852EA430619D094EA0C0F02D150EA013672
S3150000360813D195EA0C0F05D152EA03361CBF1046B2
S3150000361819460AD181EA030101F0004141F0FE4151
S3150000362841F470014FF0000070BD41F0FE4141F4D5
S31500003638780170BD81F0004102E000BF83F00043CD
S3150000364830B54FEA41044FEA430594EA050F08BF2F
S3150000365890EA020F1FBF54EA000C55EA020C7FEAF3
S31500003668645C7FEA655C00F0E2804FEA5454D4EB70
S315000036785555B8BF6D420CDD2C4480EA020281EA3A
S31500003688030382EA000083EA010180EA020281EA72
S315000036980303362D88BF30BD11F0004F4FEA0131C4
S315000036A84FF4801C4CEA113102D0404261EB4101D3
S315000036B813F0004F4FEA03334CEA133302D0524259
S315000036C863EB430394EA050F00F0A780A4F1010415
S315000036D8D5F1200E0DDB02FA0EFC22FA05F280184F
S315000036E841F1000103FA0EF2801843FA05F3594135
S315000036F80EE0A5F120050EF1200E012A03FA0EFCB4
S3150000370828BF4CF0020C43FA05F3C01851EBE371DD
S3150000371801F0004507D54FF0000EDCF1000C7EEBFA
S3150000372800006EEB0101B1F5801F1BD3B1F5001F38
S315000037380CD349085FEA30004FEA3C0C04F1010457
S315000037484FEA445212F5800F80F09A80BCF1004F80
S3150000375808BF5FEA500C50F1000041EB045141EA02
S31500003768050130BD5FEA4C0C404141EB0101013CCB
S3150000377828BFB1F5801FE9D291F0000F04BF0146BA
S315000037880020B1FA81F308BF2033A3F10B03B3F18C
S3150000379820020CDA0C3208DD02F1140CC2F10C021C
S315000037A801FA0CF021FA02F10CE002F11402D8BF7A
S315000037B8C2F1200C01FA02F120FA0CFCDCBF41EA46
S315000037C80C019040E41AA2BF01EB0451294330BD15
S315000037D86FEA04041F3C1CDA0C340EDC04F11404F2
S315000037E8C4F1200220FA04F001FA02F340EA0300C9
S315000037F821FA04F345EA030130BDC4F10C04C4F10F
S31500003808200220FA02F001FA04F340EA03002946EE
S3150000381830BD21FA04F0294630BD94F0000F83F438
S31500003828801306BF81F480110134013D4EE77FEA1B
S31500003838645C18BF7FEA655C29D094EA050F08BF67
S3150000384890EA020F05D054EA000C04BF1946104648
S3150000385830BD91EA030F1EBF0021002030BD5FEA8C
S31500003868545C05D14000494128BF41F0004130BDB4
S3150000387814F580043CBF01F5801130BD01F0004508
S3150000388845F0FE4141F470014FF0000030BD7FEA7B
S31500003898645C1ABF194610467FEA655C1CBF0B4676
S315000038A8024650EA013406BF52EA033591EA030F8D
S315000038B841F4002130BD00BF90F0000F04BF002185
S315000038C8704730B54FF4806404F132044FF00005B8
S315000038D84FF0000150E700BF90F0000F04BF002131
S315000038E8704730B54FF4806404F1320410F0004597
S315000038F848BF40424FF000013EE700BF42004FEA92
S31500003908E2014FEA31014FEA02701FBF12F07F430E
S3150000391893F07F4F81F06051704732F07F4208BFC5
S31500003928704793F07F4F04BF41F40021704730B5CC
S315000039384FF4607401F0004521F000411CE700BF18
S3150000394850EA010208BF704730B54FF000050AE09B
S3150000395850EA010208BF704730B511F0004502D59C
S31500003968404261EB41014FF4806404F132045FEA9E
S31500003978915C3FF4D8AE4FF003025FEADC0C18BF47
S3150000398803325FEADC0C18BF033202EBDC02C2F139
S31500003998200300FA03FC20FA02F001FA03FE40EACB
S315000039A80E0021FA02F11444BDE600BF4FEA4102B7
S315000039B8B2F1E04324BFB3F5001CDCF1FE5C0DD97F
S315000039C801F0004C4FEAC0024CEA5070B2F1004FC9
S315000039D840EB830008BF20F00100704711F0804FCC
S315000039E821D113F13872BCBF01F00040704741F491
S315000039F880114FEA5252C2F11802C2F1200C10FA95
S31500003A080CF320FA02F018BF40F001004FEAC12378
S31500003A184FEAD32303FA0CFC40EA0C0023FA02F31C
S31500003A284FEA4303CCE77FEA625307D150EA0133F2
S31500003A381EBF4FF0FE4040F44000704701F00040C2
S31500003A4840F0FE4040F40000704700BF70B50F4ECE
S31500003A580C460546316811B900F0E4F83060214695
S31500003A68284600F0DFF8431C03D14FF0FF34204608
S31500003A7870BDC41C24F00304A042F8D0211A2846BD
S31500003A8800F0D0F80130F2D1EFE700BFE85400208B
S31500003A982DE9F843CD1C064625F0030508350C2DFF
S31500003AA838BF0C25002D01DBA94204D90C2333604D
S31500003AB80020BDE8F883DFF8D48000F069F8D8F86C
S31500003AC800301C4644BB29463046FFF7BFFF431C5F
S31500003AD8044658D1D8F800402746002F43D1002C79
S31500003AE84BD023683946304604EB030900F09AF8B0
S31500003AF8814542D1216830466D1A2946FFF7A6FF4F
S31500003B0801303AD023682B442360D8F800305A682D
S31500003B1862BBC8F800700FE02268521B20D40B2A3B
S31500003B2817D96119A342256018BF5960636808BF91
S31500003B38C8F8001062514B60304600F02FF804F1C7
S31500003B480B00231D20F00700C21A1CBF1B1AA35026
S31500003B58AFE76268A3420CBFC8F800205A60EBE7DB
S31500003B6823466468AEE73C467F68B6E71A465B6854
S31500003B78A342FBD100235360DEE70C2330463360B3
S31500003B8800F00CF894E70560D6E700BFEC54002077
S31500003B98014800F057B800BF2C560020014800F035
S31500003BA852B800BF2C56002000B59BB00091049176
S31500003BB86FF000410591029105490391694600F0AD
S31500003BC8F7F8009B00221A701BB05DF804FB00BFD3
S31500003BD80802FFFF13460A46014602480068FFF737
S31500003BE8E3BF00BFC800002002440346934200D149
S31500003BF8704703F8011BF9E70A7870B56AB970BD12
S31500003C089A4209D10C46054614F8013F002BF6D016
S31500003C1815F8016F9E42F7D001300378002BEFD1DB
S31500003C281846ECE738B50023054D044608462B60D0
S31500003C38FFF722FB431C02D12B6803B1236038BD72
S31500003C4828560020704770470A44431E914200D107
S31500003C58704710B511F8014B914203F8014FF9D19D
S31500003C6810BD000038B50546002941D051F8043C7E
S31500003C780C1F002BB8BFE418FFF78AFF1D4A13680C
S31500003C8833B9636014602846BDE83840FFF786BF3D
S31500003C98A34208D9206821188B4201BF19685B68BE
S31500003CA809182160EDE71A465B680BB1A342FAD9F9
S31500003CB811685018A0420BD12068014450181160B1
S31500003CC88342E0D118685B68084453601060DAE7FD
S31500003CD802D90C232B60D6E7206821188B4202BF35
S31500003CE819685B680918636008BF21605460CAE7F1
S31500003CF838BD00BFEC5400202DE9F0471F468E68FA
S31500003D0882460C46BE4290460B682DD8B1F90C2067
S31500003D1812F4906F26D06569096905EB4505A3EB92
S31500003D2801097B1C05EBD5754B446D109D4238BFC8
S31500003D381D46530527D52946FFF7AAFE064660B352
S31500003D484A462169FFF780FFA38923F4906343F06D
S31500003D588003A38126614E446561A5EB09052660AB
S31500003D683E46A560BE4200D93E46324641462068D8
S31500003D7800F0AAFAA36800209B1BA36023683344BB
S31500003D882360BDE8F0872A4600F0C6FA06460028F2
S31500003D98E0D121695046FFF765FF0C234FF0FF304D
S31500003DA8CAF80030A38943F04003A381E9E700007D
S31500003DB82DE9F04F98468B899DB007461B060D46A0
S31500003DC8144610D50B6973B94021FFF761FE2860C8
S31500003DD8286130B90C233B604FF0FF301DB0BDE8B9
S31500003DE8F08F40236B610023CDF80C804FF001095A
S31500003DF8DFF8A081099320238DF8293030238DF828
S31500003E082A3023469A4613F8012B0AB1252AF9D1F6
S31500003E18BAEB040B0BD05B46224629463846FFF719
S31500003E286BFF013000F0A780099A5A4409929AF864
S31500003E380030002B00F09F8000234FF0FF320AF17C
S31500003E48010A049307938DF853301A93CDE9052395
S31500003E58544605224F4814F8011B00F04FFA049AFD
S31500003E68D8B9D00644BF20238DF85330110744BF74
S31500003E782B238DF853309AF800302A2B15D0079A41
S31500003E88544600204FF00A0C214611F8013B303BFE
S31500003E98092B4BD9B0B1079214E0A0EB0803A24650
S31500003EA809FA03F313430493D2E7039B191D1B680E
S31500003EB8002B0391BBBF5B4242F0020207930793B4
S31500003EC8B8BF049223782E2B0AD163782A2B32D1D5
S31500003ED8039B02341A1D1B6843EAE3730392059396
S31500003EE8DFF8C0A003222178504600F007FA38B15F
S31500003EF8A0EB0A004022049B01348240134304933A
S31500003F0814F8011B062224488DF8281000F0F6F94B
S31500003F18002836D0214B1BBB039B073323F007032E
S31500003F2808330393099B334409936AE70CFB02326F
S31500003F380C460120A8E7002301344FF00A0C194665
S31500003F480593204610F8012B303A092A03D9002B8D
S31500003F58C6D00591C4E70CFB012104460123F0E70E
S31500003F6803AB2A4604A9384600930D4BAFF30080ED
S31500003F78421C0646D6D1AB895B063FF52DAF09989C
S31500003F882CE703AB2A4604A938460093044B00F0F5
S31500003F987DF8EDE786490000904900000000000022
S31500003FA8013D00008C4900002DE9F0471646984669
S31500003FB88A6807460B690C46DDF820909342B8BF1D
S31500003FC81346336091F843200AB1013333602368FE
S31500003FD8990642BF336802333360256815F0060533
S31500003FE806D104F1190AE36832689B1AAB422BDC46
S31500003FF894F843302268003B18BF0123920630D458
S3150000400804F1430241463846C847013023D02368A5
S315000040181A3454F80A2C03F00603042B0ABF54F882
S315000040280E5C002533684FF0000608BFED1A54F8F9
S31500004038123C08BF25EAE5759342C4BF9B1AED18E2
S31500004048B5421AD1002008E00123524641463846B7
S31500004058C847013003D14FF0FF30BDE8F08701357E
S31500004068C1E7E1185A1C30200233224481F8430084
S3150000407894F8451082F84310C2E7012322464146C8
S315000040883846C8470130E6D00136D9E72DE9FF475B
S315000040980F7E914680460C46782F9A460C9E01F173
S315000040A8430207D8622F0AD8002F00F0D180582F74
S315000040B800F0B88004F1420684F842703AE0A7F1AD
S315000040C86303152BF6D801A151F823F02D41000002
S315000040D841410000BD400000BD400000BD40000059
S315000040E8BD40000041410000BD400000BD40000049
S315000040F8BD400000BD4000003F4200006B4100008B
S31500004108F9410000BD400000BD40000061420000CA
S31500004118BD4000006B410000BD400000BD400000EE
S315000041280142000033681A1D1B68326004F142061A
S3150000413884F8423001239CE033682068191D3160F9
S31500004148060601D51D6803E04506FBD5B3F9005000
S31500004158002D03DA2D236D4284F8433058480A238C
S3150000416811E021683368080653F8045B02D449064F
S3150000417848BFADB26F2F3360514814BF0A230823D6
S31500004188002184F843106668002EA66005DB2168C6
S315000041982E4321F0040121604BD01646B5FBF3F1FE
S315000041A803FB1157C75D06F8017D2F460D46BB4236
S315000041B8F4D9082B0BD12368DF0708D52369616872
S315000041C89942DEBF302306F8013C06F1FF36921B02
S315000041D822614B4603AA21464046CDF800A0FFF7C8
S315000041E8E3FE01304AD14FF0FF3004B0BDE8F08756
S315000041F8236843F02003236078273248236884F82D
S3150000420845701F06316851F8045B02D45F0648BF43
S31500004218ADB23160D90744BF43F0200323601DB116
S315000042281023ADE72648E9E7236823F02003236037
S31500004238F6E71646BDE733682568181D61693060DC
S315000042482E061B6801D5196002E06806FBD51980A1
S31500004258002316462361BCE7336800211A1D326025
S315000042681E686268304600F049F808B1801B606035
S3150000427863682361002384F84330AAE7236932463A
S3150000428849464046D0470130ADD023689B0713D432
S31500004298E068039B9842B8BF1846A6E70123324652
S315000042A849464046D04701309DD00135E368039919
S315000042B85B1AAB42F2DCEBE7002504F11906F5E7D9
S315000042C897490000A8490000884210B501EB02048E
S315000042D802D98442234607D8431EA14208D011F8C2
S315000042E8012B03F8012FF8E7024401468A4200D160
S315000042F810BD13F8014D02F8014DF7E7C9B20346A0
S31500004308024410B59342184601D1002003E0047810
S3150000431801338C42F6D110BD2DE9F041074614460B
S315000043280D4621B91146BDE8F041FFF7B1BB2AB9E0
S315000043382546FFF797FC2846BDE8F08100F01AF8F5
S315000043488442064602D8B4EB500FF4D821463846C4
S31500004358FFF79EFB804608B94546ECE7B44222467D
S31500004368294628BF3246FFF76FFC29463846FFF72D
S3150000437879FCF1E751F8043C181F002BBCBF0B5819
S31500004388C01870475379737469636B004653505F5E
S3150000439853554343455353203D3D206572720000F3
S315000043A82E2E2F7372632F647269766572732F646B
S315000043B872765F6770696F2E630000004144584C3F
S315000043C833343520494E5431000000004144584CDE
S315000043D833343520435300002E2E2F7372632F6417
S315000043E87269766572732F6472765F7370692E636D
S315000043F8000000004144584C3334352053504900DE
S315000044084661696C656420746F2072656164204139
S3150000441844584C3334352773204944210D0A00008B
S315000044284144584C333435000D0A494F20446576CB
S31500004438696365204C6973743A0D0A000925730D82
S315000044480A0000000D0A53504920446576696365E1
S31500004458204C6973743A0D0A000000000D0A54696D
S315000044686D657220446576696365204C6973743A94
S315000044780D0A000054686973206973205241364D4D
S315000044883527732068657265210D0A004661696CD7
S31500004498656420746F2046696E64204144584C3325
S315000044A8343520446576696365210D0A00000000ED
S315000044B86164642073302E69642C302C2564FFFFF8
S315000044C8FF0000006164642073322E69642C302C6E
S315000044D82564FFFFFF0000006164642073312E69C4
S315000044E8642C302C2564FFFFFF000000494F4472FE
S315000044F876496E6974000000494F447276577269AE
S3150000450874650000494F4472765265616400000084
S31500004518535049447276496E6974000053504944B1
S3150000452872765772697465005350494472765265BB
S315000045386164000053504944727657726974655233
S3150000454865616400DC1D00208C4600007048000090
S3150000455800000000000000006C450000000000009C
S31500004568090E000070230020784500000C48000062
S31500004578FFFFFFFF98000020000000000000000079
S315000045880000000084230020984500003C480000F5
S31500004598070200000C0C0C0D0C0E0C0F000000009E
S315000045A8000000000000000000000000B845000000
S315000045B8000100009C0000200F00FFFF0000000023
S315000045C8FFFF0000B4230020D8450000E84700009C
S315000045D80300040007000000000200000046000077
S315000045E8FC450000A0000020B10D0000F90D0000F8
S315000045F800000000030000000000010000000000A9
S3150000460800000000E8530020184600003C4800005F
S31500004618090200000C000C010C020C03000000004B
S3150000462800000000350D00000000000038460000BC
S3150000463800010000C40000200F00FFFF000000007A
S31500004648FFFF0000185400205846000024480000C8
S3150000465800040506070B0B0C0C0000010100000006
S3150000466800000000000000009105000000000000A6
S315000046787C46000001000000000000020000000067
S315000046880000000026000000984600000000000018
S3150000469800000106000100000000010601010000FB
S315000046A800000106020100000000010603010000E7
S315000046B800000106040100000000010605010000D3
S315000046C800000106060100000000010008010000C4
S315000046D800000106020200000000010603020000B5
S315000046E800000106040200000000010605020000A1
S315000046F8000001060602000000000106070200008D
S31500004708000001150A020000000001000003000075
S315000047180000010404030000000001040503000072
S315000047280000010509030000000001050A03000056
S31500004738040400000104000005040000020400004F
S315000047480000010606040000000401070704000033
S31500004758000401070804000000040107090400001A
S31500004768000401070A040000000001150B040000FC
S31500004778000001150C040000000001150D040000DE
S315000047880000010501050000000001050205000002
S31500004798000401070B050000000401070C050000D2
S315000047A800000105010600000000010502060000E0
S315000047B8000001050D060000000001050E060000B8
S315000047C8B601B701B801B901C401C501C801C701DD
S315000047D8C901CA01CD01CC01AA01AB01AC01AD01E9
S315000047E8B513000031140000411400004D140000F8
S315000047F821170000B1140000011600004D17000033
S3150000480881140000A9170000E91700000D18000020
S31500004818211800003518000001180000751C00005A
S31500004828811B00009D1B0000B51B000099180000A5
S31500004838A9180000F1240000752300008123000058
S31500004848E12300004924000055240000D12300007C
S31500004858A922000091240000A5240000ED240000F0
S3150000486802040304040400005D2D0000812A0000F0
S31500004878712D00007D2D0000452B0000952B0000B2
S315000048888D2A0000E12A0000012B00002D2B0000D4
S31500004898792B0000B12A0000C52A00000400000098
S315000048A84C49000008000000CC4800000200000047
S315000048B8BC480000000000680000006820010020D5
S315000048C82001002000000068000000680000006069
S315000048D800010C0800000068000000680000007075
S315000048E800010908000000680000006800000008D0
S315000048F8000102080000006800000068800000004F
S3150000490800010108000000200000002000000060EF
S3150000491800010C03000000200000002000000070C9
S315000049280001090300000020000000200000000824
S31500004938000002030000002018010020800000008B
S31500004948000001030000006800000068000100087C
S315000049580000006800000068000100081801002037
S3150000496820010020000000033C0500202D560020F1
S315000049780000000301000200080010002000232D9B
S31500004988302B2000686C4C0065666745464700304A
S315000049983132333435363738394142434445460097
S315000049A83031323334353637383961626364656697
S315000049B8000000004275696C74207769746820529B
S315000049C8656E6573617320416476616E6365642004
S315000049D8466C657869626C6520536F667477617298
S315000049E865205061636B6167652076657273696FD0
S315000049F86E20362E352E3000362E352E300000002D
S30900004A080000050699
S30900004A0CF8B500BF34
S30900004A10F8B500BF30
S30900004A140502000091
S30900004A18DD010000B6
S3090100A100FFFFFFFF58
S3090100A200FFFDFFFF59
S3090100A280F8F8FFFFE5
S705000032B90F
