S01E000052656E657361735F4375705F726561696C74795F61692E737265632C
S3150000000080830020AD300000F12E0000A9300000F2
S31500000010A9300000A9300000A9300000A930000076
S31500000020000000000000000000000000A9300000F1
S31500000030A930000000000000A930000011050000F2
S315000000405D270000D1260000ED27000035280000BE
S31500000050A11D0000391E0000111F0000F91F00003D
S315000000605D270000D1260000ED270000352800009E
S315000000700348044B834202D0034B03B11847704731
S315000000808C0200208C02002000000000064B07496D
S31500000090C91A891048BF0131491003D0044B0BB16E
S315000000A001481847704700BF8C0200208C020020D0
S315000000B00000000010B5064C237843B9FFF7D8FFBF
S315000000C0044B13B10448AFF300800123237010BD25
S315000000D0A8020020000000002C66000008B5054BB1
S315000000E01BB105490548AFF30080BDE80840FFF79E
S315000000F0CDBF00BF00000000AC0200202C6600004F
S3150000010010B50446034800F033FD2146BDE8104013
S3150000011083691847BC5E0000E8B170B50368044601
S31500000120B3B1114B00221E689D683046EB68A1886A
S31500000130984798B93046AB69A18804F108029847F8
S3150000014000B970BD4221094B094A0A4802F09CFEDB
S315000001506FF0150070BD6FF0150070474021034B1E
S31500000160034A044802F090FE7C600000C45E000072
S315000001703C600000D85E0000E8B1F8B503680446AC
S31500000180B3B1114B0D461F689E6804223846F368CA
S31500000190A188984790B92A463846F369A1889847B6
S315000001A000B9F8BD3521094B094A0A4802F06CFE30
S315000001B06FF01500F8BD6FF0150070473321034B43
S315000001C0034A044802F060FE7C600000C45E000042
S315000001D030600000D85E000098B108B503686BB1C6
S315000001E0094BD3E9011218681268904700B908BD97
S315000001F02821064B064A074802F046FE6FF0150016
S3150000020008BD6FF0150070477C600000C45E0000FA
S3150000021024600000D85E000008B5044800F014FC15
S31500000220BDE80840024800F00FBC00BF1C000020DB
S315000002300000002040B3F0B50C4683B009B3154664
S31500000240FAB11E46EBB10179C1B9144F386803699A
S315000002509847072312482146846800932A46334666
S315000002600068E468A04790B90E4A1378002BFCD0CA
S31500000270002438680121036914709847002003B0F0
S31500000280F0BD6FF01500FAE76FF0150070479B217F
S31500000290054B064A064802F0F7FD00BFC4020020DF
S315000002A07C610000C8020020C45E00006C60000093
S315000002B0105F000000283CD070B50D46002935D0EF
S315000002C01446002A32D00179C1B91E4E306803693E
S315000002D09847A20714D11C4B29469A681868556896
S315000002E01F23A208A84738BB184A1378002BFCD056
S315000002F0002430680121036914709847002070BDFE
S31500000300E30708D4104B29469A68186855680F23E6
S315000003106208A847E7E7012CE6D10B4B224698680E
S315000003202946446818680723A047DCE76FF01500E4
S3150000033070BD6FF0150070477F21054B054A0648D2
S3150000034002F0A2FDC40200207C610000C802002069
S31500000350C45E000060600000105F000000283CD012
S3150000036070B50D46002935D01446002A32D00179E1
S31500000370C1B91E4E306803699847A20714D11C4BB9
S3150000038029469A68186895681F23A208A84738BBAB
S31500000390184A1378002BFCD0002430680121036929
S315000003A014709847002070BDE30708D4104B294607
S315000003B09A68186895680F236208A847E7E7012C32
S315000003C0E6D10B4B224698682946846818680723AD
S315000003D0A047DCE76FF0150070BD6FF015007047A1
S315000003E05621054B054A064802F04EFDC402002080
S315000003F07C610000C8020020C45E0000546000005A
S31500000400105F0000C0B108B503790BB1002008BD2C
S315000004100C4800F021FB0C4B186080B10B4BD3E964
S3150000042001121868126890470028EFD03021084B57
S31500000430084A094802F028FD6FF0150070476FF072
S31500000440050008BD045F0000C40200207C610000B6
S31500000450C45E000048600000105F0000014800F024
S3150000046039BB00BF380000200379012B04BF014AC5
S3150000047013707047C802002088B1437963B16FF0EA
S315000004807F43084A9942106838BF013113681B1A26
S315000004908B42FBD3002070476FF0040070476FF06B
S315000004A015007047CC020020F0B170B50446052057
S315000004B002F08AFC0E4AA2FB00239B09013BB3F122
S315000004C0807F0ED24FF0E02200204FF0F00C07257F
S315000004D00121084E536186F823C090611561617150
S315000004E070BD6FF0040070BD6FF01500704700BF5F
S315000004F0D34D621000ED00E010B5044C204600F02C
S315000005002FFB2046A368BDE8104018475400002082
S31500000510024A136801331360704700BFCC02002003
S315000005200F4B1A68CAB110B54FF0000E82B060F0DA
S315000005307F0C54691046ADF800E00223694601AA13
S31500000540ADF804E08DF800C0A04718B99DF8050085
S3150000055002B010BD002002B010BD0020704700BFE1
S31500000560D0020020FFFFFFFF002879D02DE9F043DD
S315000005703F4B0446186883B000286ED000256A46B3
S31500000580F2270095072311464669CDF803508DF8EA
S315000005900070B047374BBDF901605A79BDF9035079
S315000005A0BDF90570002A39D11879400802F046FFD6
S315000005B080468946304602F041FF2BA3D3E900234B
S315000005C005F070F942464B4605F06CF902F0A0FFC3
S315000005D00646284602F032FF23A3D3E9002305F09E
S315000005E061F942464B4605F05DF902F091FF05467A
S315000005F0384602F023FF1CA3D3E9002305F052F985
S3150000060042464B4605F04EF9A660E56002F080FFD3
S3150000061003460020236103B0BDE8F083304602F0B4
S315000006200DFF11A3D3E9002305F03CF902F070FF9A
S315000006300646284602F002FF0BA3D3E9002305F085
S3150000064031F902F065FF0546384602F0F7FE06A3CB
S31500000650D3E9002305F026F9D6E76FF00400DAE7C0
S315000006606FF01500704700BFDE718A8EE4F26F3FAF
S31500000670D00200207400002010B50D4B82B01C681B
S315000006809CB14FF0000E60F03F0CADF800E0204644
S3150000069003236946646901AAADF804E08DF800C039
S315000006A08DF802E08DF806E0A04702B010BD00BF4D
S315000006B0D0020020B0B10D4B186888B110B540F2D9
S315000006C02D4C4FF0000E82B002236946446901AA00
S315000006D0ADF804E0ADF800C0A047002002B010BDA0
S315000006E0002070476FF01500704700BFD002002051
S315000006F0B0B10D4B186888B110B540F62D0C4FF00F
S31500000700000E82B002236946446901AAADF804E0EE
S31500000710ADF800C0A047002002B010BD0020704711
S315000007206FF01500704700BFD0020020F0B583B00F
S31500000730002800F08281B94800F08EF9002800F008
S315000007407981B74800F0CEF9B64C2060002800F059
S315000007507181836898470546002840F05B81FFF762
S31500000760DFFEE52840F051812D20FFF7D9FE2668EF
S3150000077040F00803DBB266B12D278DF80130ADF8E5
S3150000078004508DF80070304602236946766901AA46
S31500000790B0473120FFF7C4FE266800F0F40343F0AB
S315000007A0090376B14FF0000C31278DF80130ADF812
S315000007B004C08DF80070304602236946766901AAA6
S315000007C0B0474FF48272984B2A209A80FFF7A8FE12
S315000007D0276800F0F80343F00703002F43D04FF0DB
S315000007E02A0C00268DF80130ADF804608DF800C0A3
S315000007F03846022369467F6901AAB847206800285F
S3150000080031D040F62153ADF80460ADF800306946AA
S315000008100223476901AAB847206820B345F222039C
S31500000820ADF80460ADF8003069460223476901AAB5
S31500000830B8472068B8B14FF22303ADF80460ADF8AD
S31500000840003069460223476901AAB847206850B1BB
S3150000085042F21D03ADF80460ADF80030694602238C
S31500000860466901AAB0472F20FFF75AFE266800F016
S315000008709F0376B14FF0000C2F278DF80130ADF8AD
S3150000088004C08DF80070304602236946766901AAD5
S31500000890B0472E20FFF744FE266800F09F0343F082
S315000008A0600376B14FF0000C2E278DF80130ADF8BD
S315000008B004C08DF80070304602236946766901AAA5
S315000008C0B0472E20FFF72CFE266800F00F0343F0FA
S315000008D07003DEB14FF0270C00278DF80130ADF81C
S315000008E004708DF800C0304602236946766901AA75
S315000008F0B047206850B140F62403ADF80470ADF857
S31500000900003069460223466901AAB0472F20FFF747
S3150000091007FE266800F0EF0376B14FF0000C2F2794
S315000009208DF80130ADF804C08DF800703046022312
S315000009306946766901AAB0472E20FFF7F1FD2668C1
S3150000094040F01003DBB246B34FF02E0C00278DF8B3
S315000009500130ADF804708DF800C0304602236946B8
S31500000960766901AAB0472068B8B140F62803ADF809
S315000009700470ADF8003069460223466901AAB04703
S31500000980206850B140F62923ADF80470ADF8003068
S3150000099069460223466901AAB0472F20FFF7C0FD2A
S315000009A0266800F0FB0376B14FF0000C2F278DF878
S315000009B00130ADF804C08DF8007030460223694658
S315000009C0766901AAB0472E20FFF7AAFD246840F0F9
S315000009D00403DBB26CB100272E268DF80130ADF88A
S315000009E004708DF80060204602236946646901AAF6
S315000009F0A0473220FFF740FE3420FFF73DFE3620A9
S31500000A00FFF73AFE284603B0F0BD084B08491868C0
S31500000A1000F006F96FF00405F4E700BFF45E00008D
S31500000A202C5F0000D0020020740000203C61000012
S31500000A30385F00006FF00505E4E76FF01505E1E7A4
S31500000A400048704774000020024B1A6802B18261A8
S31500000A5018607047D402002038B5074B1C684CB1AB
S31500000A60054601E0A4692CB12946206803F0D6FAB0
S31500000A700028F7D0204638BDD402002070B50C4AB5
S31500000A800C4B15681C6828460B4900F0C9F844B1A0
S31500000A900A4E22683146284600F0C2F8A469002CA6
S31500000AA0F7D12846BDE87040054900F0B9B800BF47
S31500000AB03C610000D4020020605F0000745F00000B
S31500000AC0545F000008B5FFF7A7FBBDE80840FFF735
S31500000AD0D5BF00BF024B1A6802B182611860704729
S31500000AE0D802002038B5074B1C684CB1054601E01A
S31500000AF0A4692CB12946206803F090FA0028F7D0A3
S31500000B00204638BDD802002070B50C4A0C4B15683B
S31500000B101C6828460B4900F083F844B10A4E226847
S31500000B203146284600F07CF8A469002CF7D1284607
S31500000B30BDE87040054900F073B800BF3C61000095
S31500000B40D80200207C5F0000745F0000545F000044
S31500000B5008B5FFF783FCBDE80840FFF7D5BF00BF27
S31500000B60024B1A6802B1C26118607047DC020020AD
S31500000B7038B5074B1C684CB1054601E0E4692CB159
S31500000B802946206803F04AFA0028F7D0204638BDE7
S31500000B90DC02002070B50C4A0C4B15681C68284610
S31500000BA00B4900F03DF844B10A4E2268314628460A
S31500000BB000F036F8E469002CF7D12846BDE870400D
S31500000BC0054900F02DB800BF3C610000DC020020A2
S31500000BD0945F0000745F0000545F000008B5FFF7E3
S31500000BE08BFCBDE80840FFF7D5BF00BF024BD3E939
S31500000BF00112186812681047BC600000024BD3E966
S31500000C0001121868126810473C6100000379022B34
S31500000C1002D10122014B1A70704700BFE00200208A
S31500000C200EB42DE9F0419DB023AA52F8041B03A887
S31500000C30029203F0E1F99DF90C30E3B100252E464E
S31500000C400F4A104CD2F8088017688DF80730012239
S31500000C503846D8F808300DF1070198472378002B5D
S31500000C60FCD00135EDB205F170036B4413F9643C19
S31500000C702670002BE9D11DB0BDE8F04103B07047E6
S31500000C803C610000E002002030B50F4D43686B6008
S31500000C9003882B800378A3B1864600230B4CDEF82D
S31500000CA0082004EBC30C02EBC30292E803008CE8B5
S31500000CB0030001339EF80010DAB29142EFD8AC601F
S31500000CC030BD024CAC6030BD24030020E40200209D
S31500000CD0024A437811880B4313807047380300207B
S31500000CE003781BB1044A136801331360034B0448AD
S31500000CF09B689B68184700BF34030020FC60000017
S31500000D00182100202DE9F04F2DED028B85B0FFF75D
S31500000D106DFFFFF773FF5C4B5C491868FFF780FFB8
S31500000D20FFF75CFFFFF714FFFFF7CCFEFFF788FE27
S31500000D30574B1E68002800F09E804369044698477A
S31500000D405449554800F0A2FA5449554800F0D2F8E3
S31500000D50514800F0E7FA0021524A4F4800F0BCFB28
S31500000D600121514A4C4800F0B7FB02214F4A4A483C
S31500000D7000F0B2FB9FED4E8A4E4FDFF828A1DFF858
S31500000D8028B1DFF84491DFF844810FE0A1681160D3
S31500000D90464A0BEB830102EB830201333B60E368B7
S31500000DA00B60236913600520FFF7AAF92046A369A3
S31500000DB0984705460028F6D1D4ED027AF5EE008A6A
S31500000DC067EE887A67EEA87A77EE887AFCEEE77A9D
S31500000DD017EE903A49469AB23046FFF721FFD4ED16
S31500000DE0037A67EE887A67EEA87A77EE887AFCEE61
S31500000DF0E77A17EE903A41469AB23046FFF710FF6F
S31500000E00D4ED047A67EE887A67EEA87A77EE887A68
S31500000E10FCEEE77A17EE903A30469AB22649FFF78B
S31500000E20FFFE3B68B3F5007F0AEB8302AEDB4FF4AF
S31500000E30007329461B4A184800F0F4FB4FF4007370
S31500000E400121194A144800F0EDFB4FF4007302210A
S31500000E50164A114800F0E6FB184B11481B8801A9F9
S31500000E60ADF80430164BADF806500295039300F02A
S31500000E707BF83D6097E73046124905B0BDEC028B22
S31500000E80BDE8F04FFFF7CCBEBC600000AC5F0000D1
S31500000E903C61000008610000182100208860000005
S31500000EA0481B00203C1300203C0B00203C03002084
S31500000EB0000048423C1B0020106000003803002060
S31500000EC024030020C45F0000E85F0000FC5F000010
S31500000ED0022800D070470249024801F055BE00BF03
S31500000EE0B8610000401B002008B5FFF70BFF00208B
S31500000EF008BD00BFF8B541604B6806460D462BB1EC
S31500000F00D3E9011218681268904730BBAB68D3E981
S31500000F100112186812689047F8B9AB6832469968AA
S31500000F2018684B690D499847B8B9334601460C4FC6
S31500000F3006F5B06CC3F89C706C680CB162685478A6
S31500000F4083F8A14083F8A010B0336345F2D1054B76
S31500000F5086F8891586F888153360F8BD1D120000DD
S31500000F605253534E53444D522DE9F04F8C68476807
S31500000F7066783A7806EB860306EB430300EB031B21
S31500000F804FEA03199BF8B53089B09A4200F2E48023
S31500000F90B0220546002306FB02F202F108002844AF
S31500000FA08BF8B530438094F800E02A4482F8ACE030
S31500000FB0607882F8A2006068C2F8A800207800284D
S31500000FC03BD04FF016089A46CDE9017E0391A06802
S31500000FD04FEA5A0700EBC30000791AF0010F02EB43
S31500000FE0070E20F00F0A16BF9EF8AD00000940EA72
S31500000FF00A00174487F8AD00D07AA76818FB060EDA
S315000010004FEAC30C57F80C7005EBCE0ECEF80C70F9
S31500001010A768616867443F79013007F00F0701FB55
S3150000102007F7CEF81070D072207801335FFA83FA92
S315000010305045CCD8DDE9017E03990EF101084FEA4F
S31500001040680808F111030193B02303FB06530A88CD
S31500001050A3F8A4204A88A3F8A620486870B16AB10C
S31500001060162293F80BE012FB06E205EBC202D060F3
S3150000107049880EF1010C116183F80BC07F68002FBF
S315000010804AD04FF0000A019B09F19C022A440792BC
S315000010900593CDF818A0B868CDF810A0436904AA46
S315000010A0386805A99847B02000FB065898F80B2029
S315000010B0002A60D0DBF80C3004AA0793DBF8103066
S315000010C005A90593049B0AF1010A0693BB683868D3
S315000010D05B69984798F80B205FFA8AF39A420BF1FE
S315000010E0080BE7D8501CC0B2B027162313FB062303
S315000010F007FB0652049905EBC30311816968496829
S3150000110049684978032914BF01210221196109F1AF
S3150000111008012944D960D07295F8883561785BB1A9
S31500001120012295F888358A401343DBB285F8883565
S31500001130002009B0BDE8F08F6B6885F889159B68BB
S3150000114009F19C019E681868019AF368294498473A
S315000011500028EED16178E3E701210B448BF8B53026
S3150000116062788DF81410FB688DF81C2006933B6995
S3150000117005A89847DCE70120B6E700BF2DE9F04354
S31500001180012790F8891590F8883507FA01F223EAC5
S31500001190020380F8883590F8883585B0002B3AD060
S315000011A005464FF0B0084FF09C09CC1904F007042F
S315000011B095F8882507FA04F31342DEB226D008FB19
S315000011C004536A6885F88945906818FB049193F87A
S315000011D0AC20836801325210DB6800681132294462
S315000011E09847034601A8B3B1032195F888356A6884
S315000011F023EA060385F888358DF80410D2E90363DF
S315000012008DF80C400296984795F88915013404F03C
S315000012100704A142CCD105B0BDE8F083F0B5037A4E
S315000012200668032B054696F8897585B019D0B02453
S3150000123004FB0764A27AE37A934212D07368996832
S31500001240162313FB07238A6806EBC3030868D568D1
S31500001250D3E90312A847A0B9A37A0133A37205B054
S31500001260F0BD3046FFF78AFF2B7A8DF8043073689D
S3150000127001A8DA688DF80C7002921B69984705B0D0
S31500001280F0BD3046FFF77AFF0323EEE770B5C16085
S315000012904B6905460361CC680E462378B3B1A36853
S315000012A09A68D3E900011268904738BB63689A6868
S315000012B0D3E900011268904700BB62680346916853
S315000012C01068CC6A2A460E49A047B8B900236B605D
S315000012D02B72B2787AB11A462969896841F83320A7
S315000012E029698C6804EBC30CCCF80420B078013370
S315000012F0D9B28842F0D80020024B2B6070BD00BFE7
S31500001300ED15000043444D5203461B6900201B683F
S3150000131003EB01135A6070470022034610461A7207
S31500001320704700BF0023C26843600372927882B19F
S3150000133019460269926842F833100269926802EB14
S31500001340C3025160C268013392F802C0DAB2944512
S31500001350EFD80020704700BF10B5C3680446DB68AD
S315000013601A786AB15B689A681868136B984750B91F
S31500001370E368DB689B689A681868136A984710B92F
S3150000138000231846236010BD10B5C3680446DB6809
S315000013905B689A6818689368984740B9E368BDE83F
S315000013A01040DB689B689A6818681369184710BD77
S315000013B02DE9F04104460069E2688368976803EB0B
S315000013C0C1035E68A4B0BE4206D394F808C01CF000
S315000013D0020F04D000225A6024B0BDE8F081267ABC
S315000013E0CD00F6071BD44FF0010C0FFA81FE0CFA64
S315000013F001FC616811EA0C0123D163684CEA03031E
S315000014006360636856689E422DD083682B441A68D1
S3150000141082F001021A6023699B682B44DAE7237A7B
S3150000142043F002032372D369D3B10121527804A891
S315000014308DF810208DF81110984723699B682B446E
S31500001440C8E7D1690029E2D00223527804A88DF8B2
S3150000145011308DF81020884723699B682B44D6E706
S3150000146083682B44B6E7237A43F001032372616055
S315000014701388866856F83E70ADF80030936801937D
S31500001480136A039304AB02931678F6B1D0F804807E
S315000014909668083306FB07FC08EBC10696F804E0DD
S315000014A058F831600EF00F0E0EFB0C6643F8086C10
S315000014B0466806EBC10C9CF80460013103F8046C25
S315000014C092F800C0CEB2B445E0D893696846984712
S315000014D023699B682B449AE7F8B50C4605461646E1
S315000014E0FFF766FFD5E90323D3E90131976801EBDE
S315000014F0C40E22B251F832C0DEF8041053F832207E
S315000015000CFB071103EBC4031B79002003F00F0348
S3150000151003FB01233360D5E903239B68916803EB42
S31500001520C4035A680A445A60F8BD00BF2DE9F04169
S3150000153004460E4603691D68FFF73AFFD4E9032106
S31500001540D2E902078B6853F8362003EBC60300FB8B
S3150000155002FC3A78002A3BD04FEAC60E2B4672466A
S31500001560002001261CE0DF81276993F80380D7E974
S31500001570017171444968BF586144C8F3011801FA02
S3150000158008F1394499609E81E1680130CF68C1B2A3
S3150000159097F800800832884503F1100315D92169B0
S315000015A049687F88114409797829DCD17F00BFB268
S315000015B0DF812769D7E9018171444F6858F8021025
S315000015C0674401EBC7019960DDE723699B687344B3
S315000015D078885A68294602445A60E368BDE8F041B3
S315000015E0DB689B689A681868536818470068C36880
S315000015F01B691978FFF79ABF10B50446C3681B69C3
S315000016001978FFF793FFE368DB685C68A3682068D6
S31500001610DB68984728B9A36820685B68BDE8104076
S31500001620184710BDF8B50C461E4605461146D0E9CA
S315000016300323D3E90130976800EBC40E22B250F8B9
S3150000164032C0DEF804000CFB070053F8327003EBDF
S31500001650C4031A7902F00F0202FB007006FB02F2C5
S3150000166002F016FD2B69E7009A6828463A4453684B
S31500001670214633445360FFF79BFE0020F8BD00BFB0
S3150000168070B54D680446C0E901150B69C360CB68A7
S3150000169003612B689E68D3E900013268904748B918
S315000016A02968034622460868B5690349A84708B968
S315000016B0024B236070BD00BF1D17000054554F43F9
S315000016C010B5836804461B689A681868D3699847FA
S315000016D000B9206010BD00BF03460020C3E9031215
S315000016E0704700BF10B483681B689C6818686368FD
S315000016F05DF8044B184700BF10B483681B689C68EC
S315000017001868A3685DF8044B184700BF84B004A8A6
S3150000171000E90E00062004B0704700BF00B503794B
S31500001720C268022B85B012D007D8012B09D1D36825
S31500001730D3B100214FF0020C0EE0042B14D0802B05
S3150000174012D0D36883B100214FF0030C04E0D368B4
S3150000175053B100214FF0010CCDE90211126901A825
S315000017608DF80CC00192984705B05DF804FB00BFE8
S3150000177084460020CCE90A32CCF82410704700BF1A
S31500001780002210B5436802605A69044622B1936884
S3150000179010681B6A984763681A6922B193681068D3
S315000017A01B6A9847636893F90220002A0EDB012121
S315000017B02448530902F01F02203301FA02F240F8CE
S315000017C02320BFF34F8FBFF36F8F636893F9012018
S315000017D0002A0EDB01211B48530902F01F022033A9
S315000017E001FA02F240F82320BFF34F8FBFF36F8F49
S315000017F06368012293F903301248590903F01F0365
S31500001800203102FA03F340F82130BFF34F8FBFF3C4
S315000018106F8F636893F90430590903F01F039A40E8
S3150000182001F1200340F82320BFF34F8FBFF36F8FE2
S315000018300020A268137823F040031370A368DA78B7
S31500001840D87010BD00E100E070B51D4683689DF8B4
S3150000185010C01B7813F0400340F0A980C0E90312C2
S31500001860C0E905330E464168C56180F820C00446CC
S315000018704869002830D0BCF10F0FA56140F2828084
S3150000188002204B695B681B68D97860F30511D97033
S31500001890022063685B695B681B68997860F3830163
S315000018A099706368A9B25B695B681B68D9816368D4
S315000018B05B695B681B689A60002A00F08880636831
S315000018C05B695A68186811689A68536898470028CF
S315000018D057D1616894F820C00B69002B31D065613F
S315000018E00B69BCF10F0F5B681B68DA7855D90221CA
S315000018F061F30512DA7002216368ADB21B695B6899
S315000019001B68DA7861F38302DA7063681B695B68C7
S315000019101B68DD8163681B695B681B685E60002E5F
S3150000192064D0A268137823F02003137063681B69E0
S31500001930D3E90112186809685268904708BB94F801
S3150000194020C0A168BCF10F0FCA7A0B8AD2B29BB233
S315000019502FD90CF1010C22F040024FEA9C0CACF19D
S31500001960050C42F020020020CA7223F47063A268BC
S3150000197043EA0C239BB21382A268137843F06003F8
S31500001980137070BD4969BCF1070F4968096818D81A
S31500001990C87863F30510C8707AE7BCF1070F8ABFF1
S315000019A0012122F0300261F30512DA70A3E7082064
S315000019B070BDBCF1070F94BF42F0400202F09F02D7
S315000019C0D1E70120CB7860F30513CB7060E763683D
S315000019D00E485B695B681B68997862F383019970AE
S315000019E063685B695B681B68986068E763680849B9
S315000019F01B695B681B68DA7866F38302DA706368D2
S31500001A001B695B681B6859608BE700BFB0510020FB
S31500001A10AC51002010B594468E461C4682B000217B
S31500001A20724663460094FFF70FFF02B010BD00BF79
S31500001A3010B594461C4682B0002263460094FFF718
S31500001A4003FF02B010BD00BF10B49DF8044001941E
S31500001A505DF8044BFFF7F8BE30B5836A85B00446DF
S31500001A608C4601ADABB193E8070085E807006268D4
S31500001A701846127883F804C01A60E26A9A60636AAC
S31500001A809847A36A1BB195E8070083E8070005B0ED
S31500001A9030BD2B46EBE700BF2DE9F04F0B78DFF8A2
S31500001AA0FC820F691B020D46044683B098448FB131
S31500001AB04FF000627B681B681A607B681B68C3F87E
S31500001AC00880BB68D7E900011B68984706460028CE
S31500001AD040F011816B698BB14FF400215A6812688E
S31500001AE011605A681268C2F804809A68D3E9000146
S31500001AF0126890470646002840F001810021656083
S31500001B00AB696362EB69C4E90A132B7803F58003BA
S31500001B1003F58D531B02A360687A002800F0F98054
S31500001B20B02689466A7BEF7A120342EA47022B6A9D
S31500001B30AF7A3A431F78002F40F0F08001212D78CC
S31500001B40A940890740F01A815D7893F802806F01F9
S31500001B5026EAC51647EA450722F070011D79DA78AC
S31500001B60374308FA02F812011DB1022D0CBF3025C9
S31500001B7020255E792EB1012E14BF49F0010949F0E6
S31500001B8003091E7A06F0030642EA86020A43997999
S31500001B900091002840F0C580997A5E7A93F80BC0D0
S31500001BA042F460420191EFF3108A012080F310881D
S31500001BB0616891F800E07449CEF1130ED1F804B0D3
S31500001BC000FA0EFE2BEA0E0BC1F804B049688AF340
S31500001BD010884FF0000E5FFA89F1D4F808901FFACA
S31500001BE082FB99F803A089F803E0A268FFB2177098
S31500001BF01027A2685FFA88F882F80180A2689570BB
S31500001C00DD79A368019A9D72A3681E73A3685A734F
S31500001C10A368009A83F80EC0A368D973A368A3F8D3
S31500001C2010B0A36883F82020A36883F82170626847
S31500001C3092F9023073457ADA544992F90130002B51
S31500001C4026DB527903F160401201D2B200F5614001
S31500001C5080F800234E4A41F8234003F1C00052F8B1
S31500001C60205025F4803542F8205052F82020BFF34A
S31500001C705F8F01205A09920003F01F0302F16042B0
S31500001C8002F5614200FA03F3C2F88031136062681C
S31500001C90107A92F904303F4D0201EE183C48D2B258
S31500001CA086F8002341F8234003F1C00250F8226071
S31500001CB026F4803640F8226050F82220BFF35F8F6A
S31500001CC0012203F01F005B099B0003F1604303F54B
S31500001CD061438240C3F880211A600026636893F945
S31500001CE00320DB7915441B01DBB285F800332A4B50
S31500001CF041F822402360304603B0BDE8F08F002F44
S31500001D00F9D0BB6838681B6A9847304603B0BDE80F
S31500001D10F08FB82608214FF0100903E741F0B1060D
S31500001D2012E74FF0000C6646CDF804C03BE7927907
S31500001D3003F1604512011549D2B205F5614585F8F2
S31500001D400023134A41F8234003F1C00552F82560E9
S31500001D506EF3104642F8256052F82520BFF35F8FD8
S31500001D6003F01F025B099B0003F16043904003F5FB
S31500001D706143C3F88001186062685EE7B0FA80F1DB
S31500001D80490942EAC112DFE600400840F851002046
S31500001D900060004000E100E04950535204A01140A9
S31500001DA010B4EFF30383103B204A5BB203F1C0018A
S31500001DB052F8210020F4803042F8210052F8212008
S31500001DC01B4A52F82330D3E906218A421DD01869EE
S31500001DD09C6840B393F820100F290ED8072995BFA9
S31500001DE02179A188815420F81210D96901328A42DA
S31500001DF09A610AD05DF8044B7047616840F822107A
S31500001E00D96901328A429A61F4D15B6893F9033049
S31500001E10012203F01F0007495B09824041F8232095
S31500001E205DF8044B70476068E0E700BF0060004063
S31500001E30F851002000E100E010B5EFF30383103BFA
S31500001E4030495BB203F1C00251F8220020F4803021
S31500001E5041F8220051F822202B4A52F823305C68C0
S31500001E60226A72B392F801C0D869BCF1010F5A69AF
S31500001E7016D082420BD0D3E9020129B193F8204053
S31500001E800F2C05D951F82210416001325A6110BD5C
S31500001E90072C95BF895C31F8121001718180F4E737
S31500001EA000F1FF3E96450FD021690029E1D094F953
S31500001EB00320164802F01F0451090CFA04F440F8F6
S31500001EC021405A69D869D4E794F9030000F1C002A9
S31500001ED051F8224024F4803441F8224051F822205F
S31500001EE0BFF35F8F4209920000F01F0002F16042CB
S31500001EF00CFA00F002F56142C2F8800110605A69DE
S31500001F00D869B6E700600040F851002000E100E023
S31500001F1010B4EFF30382103A344953B203F1C00010
S31500001F2051F8204002F0FF0224F4803441F82040AA
S31500001F3051F820102E4951F823008168C978890785
S31500001F4006D54168497A012902D05DF8044B7047ED
S31500001F500121284C5B0902F01F02203301FA02F22C
S31500001F6044F82320BFF34F8FBFF36F8F436893F975
S31500001F700230002B0BDB5A0903F01F03994002F1D4
S31500001F80200344F82310BFF34F8FBFF36F8F82688F
S31500001F90137823F040031370436893F90230002B43
S31500001FA004DA01215DF8044BFFF756BD0F4A03F131
S31500001FB0C00152F8214024F4803442F8214052F8FE
S31500001FC02120BFF35F8F01215A09920003F01F03FE
S31500001FD002F1604202F5614201FA03F3C2F8803170
S31500001FE0136001215DF8044BFFF736BD0060004029
S31500001FF0F851002000E100E070B5EFF30383344AA6
S31500002000103B5CB252F824506B6893F90230002BF7
S315000020100DDB01212F485A0903F01F03203201FA74
S3150000202003F340F82230BFF34F8FBFF36F8FAA68D8
S31500002030137823F0400313706B6893F90230002B7A
S315000020401ADB254A03F1C00152F8210020F4803042
S3150000205042F8210052F82120BFF35F8F01215A096F
S31500002060920003F01F0302F1604202F5614201FA99
S3150000207003F3C2F8803113600021AA68D378D170C7
S315000020801A07DEB211D4F30715D406F01406142E7F
S3150000209019D0114A04F1C00352F8231021F48031FB
S315000020A042F8231052F8233070BD05212846FFF769
S315000020B0D3FCF307E9D50421284606F01406FFF7FA
S315000020C0CBFC142EE5D108212846FFF7C5FCE0E736
S315000020D0F851002000E100E00060004003460020C7
S315000020E0012110B41A6A58609070DA692C4C92F982
S315000020F005204FEA521C02F01F0201FA02F20CF10F
S31500002100200C44F82C20BFF34F8FBFF36F8FDA6992
S3150000211092F90B204FEA521C02F01F0201FA02F25A
S315000021200CF1200C44F82C20BFF34F8FBFF36F8FB8
S31500002130DA6992F907204FEA521C02F01F0201FAEF
S3150000214002F20CF1200C44F82C20BFF34F8FBFF3A2
S315000021506F8FDA6992F909204FEA521C02F01F02CA
S3150000216001FA02F20CF1200C44F82C20BFF34F8F39
S31500002170BFF36F8FEFF3108481F31088DB69094A90
S3150000218093F800C04FF00043516823FA0CF30B4359
S315000021905360536884F310885DF8044B704700BFA2
S315000021A000E100E00040084003460020C3E90512B4
S315000021B0704700BF10B4046AA37803F07B03A370D2
S315000021C08378046A03F00303D21A0B44C0E903328E
S315000021D0A37843F08003A370837803F00303022BF4
S315000021E006D0036A0A780020DA705DF8044B70475F
S315000021F00B88026A43F47E43D38100205DF8044BCA
S31500002200704700BF84460020CCE90A32CCF824107F
S31500002210704700BF01220346C0690078824012F071
S31500002220060F02D00A78120725D410B5186A8278EC
S3150000223002F07B0E02F00B0282700020D8601A6A50
S315000022408C78547092F800C04C7864F3010C82F8D4
S3150000225000C091F803C082F812C0097892F807C04E
S3150000226001F05C010CF0A30C41EA0C01D1711B6A70
S3150000227083F802E010BD0320704700BF4FF0FF3324
S315000022800020C1E9003370470346880710D510B413
S315000022900024186AC907827802F07B028270204601
S315000022A01C6102D5002210469A615DF8044B704706
S315000022B0CA0748BF00224FF0060044BF9A61104685
S315000022C0704700BF0346002210B49C6910460C609C
S315000022D09A615DF8044B7047F0B5846A85B005468F
S315000022E00F4694466E46B4B194E80F0086E80F0098
S315000022F0EB6920461B78A760236084F804C0EB6A6C
S31500002300E3606B6A9847AC6A1CB196E80F0084E8F4
S315000023100F0005B0F0BD3446EAE700BF01220346D0
S315000023200878824012F0060F05D0CA695268127802
S31500002330120700F1CB8100224FF0010C00F580005E
S315000023402DE9F04100F58C500002C3E907101A7020
S315000023504D6998785D628D696CF30100C3E90A25C1
S3150000236098704878D44C904214BF654602259878F8
S3150000237065F30100987091F90B5091F80AE068092D
S3150000238005F01F0620300CFA06F644F82060BFF36D
S315000023904F8FBFF36F8FC94805F1C00650F82670FE
S315000023A062F3104740F8267050F82660C44E4FEA94
S315000023B00E1E67195FFA8EFE87F800E346F8253091
S315000023C091F9055091F804E06F0905F01F082037D0
S315000023D00CFA08F844F82780BFF34F8FBFF36F8FCE
S315000023E005F1C00750F8278062F3104840F82780AF
S315000023F050F827704FEA0E1E67195FFA8EFE87F8AF
S3150000240000E346F8253091F9075091F806E06F0988
S3150000241005F01F0820370CFA08F844F82780BFF3A8
S315000024204F8FBFF36F8F05F1C00750F8278062F317
S31500002430104840F8278050F827704FEA0E1E67199B
S315000024405FFA8EFE87F800E346F8253091F90950C9
S3150000245091F808E06F0905F01F0820370CFA08F814
S3150000246044F82780BFF34F8FBFF36F8F05F1C00786
S3150000247050F8278062F3104840F8278050F827006C
S315000024804FEA0E10C0B22C4484F8000346F82530FB
S31500002490EFF310868CF310884FF000450C788948CE
S315000024A0E540446824EA05044460406886F31088E1
S315000024B0186A8270186A0271186A4272186A827201
S315000024C0186AC272186A428340F2F93208780CFA26
S315000024D000FC1CEA020F02D040201A6AD0740625BE
S315000024E0012240F2F9301C6A25770C78A24002429C
S315000024F040F0CA80CA7848788C78D200032842EA2D
S31500002500041200F0D58000280CBFE220F2201C6ADD
S31500002510D2B222701A6A9071CC69227B082A00F026
S31500002520C380186A520002F00202427300256278E4
S31500002530A078D201400100F02000D2B20243186A0E
S315000025400572207802380128186A40F2A280D2B2B9
S31500002550C27160681A6A847854704578147865F395
S3150000256001041470C4789474D479007804F0A30438
S3150000257000F05C002043D0710020C3E90300C3E9EA
S315000025800500DC694D4A94F90540CD6904F1C001A6
S3150000259052F8216095F800C060F3104642F82160B9
S315000025A00CF0030C52F82110BFF35F8F4FF0010EB1
S315000025B06109890004F01F0401F1604101F56141E0
S315000025C00EFA04F4C1F880410C60D96991F90B4008
S315000025D004F1C00152F8216060F3104642F8216010
S315000025E052F82110BFF35F8F6109890004F01F04C0
S315000025F001F160410EFA04F401F56141C1F8804130
S315000026000C60D96991F9074004F1C00152F82160C4
S3150000261060F3104642F8216052F82110BFF35F8F35
S315000026206109890004F01F0401F160410EFA04F407
S3150000263001F56141C1F880410C60D96991F9091031
S3150000264001F1C00452F8246060F3104642F8246099
S3150000265052F82420BFF35F8F4A09920001F01F0150
S3150000266002F160420EFA01F102F56142C2F88011F0
S3150000267011601A6A4CF0700C82F802C06989124A1D
S3150000268019815A60BDE8F0814FF478401A6A908249
S3150000269030E7FF2545702078022808BF42F0100277
S315000026A0186AD2B2C27167E70A201A6A50733DE708
S315000026B0F22042F040022AE700E100E0006000401C
S315000026C0F851002000400840554943530320704705
S315000026D0EFF30383103B1F4A5BB203F1C00152F8CC
S315000026E0210020F4803042F8210052F821201A4AB5
S315000026F052F82300C3691B6983B1036903B17047AC
S31500002700026A0021937803F07F0343F00403937079
S31500002710436AC160C3B18022FFF7DEBD0369026A66
S31500002720002BEED08378C16803F00303022B0CD094
S315000027300B78D3708278D0E9031302F003029B1A58
S315000027401144C0E90313D9E770470B8843F47E436D
S31500002750D381EFE700600040F851002010B582B049
S31500002760EFF30383103B1F4A5BB203F1C00152F83B
S31500002770210020F4803042F8210052F821201A4A24
S3150000278052F82340A27802F00303022B236A0CBFFF
S31500002790198A5979A3690CBFC1F30801C9B201911D
S315000027A043B9636AB3B10422204602B0BDE81040C3
S315000027B0FFF792BD02F0030201A9606901F068FC0F
S315000027C0D4E90521A37803F003031A44C91AC4E91E
S315000027D0052109B102B010BD636A002BFAD00122AF
S315000027E0E2E700BF00600040F851002010B5EFF3AB
S315000027F003830E4A103B5CB252F82400026A9378B7
S3150000280003F07B039370436A1BB102220021FFF79A
S3150000281063FD074A04F1C00352F8231021F4803106
S3150000282042F8231052F8233010BD00BFF8510020A3
S315000028300060004010B5EFF303831A4A103B5CB208
S3150000284052F82400837803F00303022B036A0CBFBB
S31500002850198A597993F804C00CBFC1F30801C9B2AB
S315000028601CF0100F0CF0380206D093F81CC01CF0B8
S31500002870010F08BF42F0400293F804C00CF0C70CE9
S3150000288083F804C0436A0BB1FFF726FD064A04F13C
S31500002890C00352F8231021F4803142F8231052F875
S315000028A0233010BDF851002000600040002203468E
S315000028B010461A60704700BF10B40B0A064C1B0185
S315000028C053FA81F154F821300020C3F340035DF838
S315000028D0044B1370704700BF00080840090A4901FD
S315000028E001F1804101F500214B68002013807047FB
S315000028F0090A490123EA020C01F180411A4001F557
S31500002900002142EA0C4200208A6070470120CBB2C7
S31500002910984080B202B900040B0A5B0103F18043C0
S3150000292003F5002398600020704700BF10B4090A21
S31500002930490101F1804101F500210C6802EA030C0E
S315000029404CEA040C62EA030202EA0C020A60002066
S315000029505DF8044B704700BF090A490101F1804147
S3150000296001F500214B680020C3F30F431380704725
S31500002970012310B44FEA112C4FEA4C1C0CF1804C89
S315000029800CF5002CDCF80440C9B28B4099B203EA7E
S3150000299014435B1AB3FA83F35B0900205DF8044B1A
S315000029A013707047090A490123EA020C01F18041BC
S315000029B01A4001F5002142EA0C420020CA60704725
S315000029C0012010B40B0A5B0103F1804303F50023D9
S315000029D0C9B2DC6800FA01F1012A4FEA01400DBFD5
S315000029E084438C4304430C43DC6000205DF8044BB5
S315000029F0704700BF2DE9F84F0388DBB182464FF0E0
S31500002A00000B4FF00109DFF8D0800024304D4FEA6B
S31500002A10CB07DAF8043035F8022BD91989889142A8
S31500002A200AD00134032CF4D1BAF800300BF1010BB3
S31500002A305B45EAD8BDE8F88FDB5909FA04F603F0DE
S31500002A40B853B3F1807FF6B298F8BB3413D0334253
S31500002A5031D1204A04F1200612F81630DB09E0D005
S31500002A6012F81630012123F08003C82002F8163030
S31500002A7000F012FAD5E7334211D0164A04F12001CC
S31500002A8012F81130DB09CCD112F81130C82043F00E
S31500002A90800302F81130012100F0FEF9C1E70120A0
S31500002AA000F0BEFA98F8BB340120334388F8BB34F3
S31500002AB000F086FAE1E7012000F0B2FA98F8BB349C
S31500002AC0012023EA060388F8BB3400F079FAC0E750
S31500002AD0AC6200000030084000E00140F8B5064650
S31500002AE0FFF788FFEFF31082012383F31088234F4B
S31500002AF03B681BB92249CB704023CB703B6801333E
S31500002B003B6082F31088338823B300211D4D08E013
S31500002B101B01134445F82340328801318BB29A4297
S31500002B2018D9736853F8314003EBC1029288E00369
S31500002B304FEA1223D2B2EBD502EB031055F820E090
S31500002B4024F4803C2EF4803E45F820E01B0145F835
S31500002B5020C0DEE7EFF31082012383F310883B6881
S31500002B6013B13B68013B3B603B681BB980200449BD
S31500002B70CB70C87082F31088F8BD00BFF4510020F6
S31500002B80000D08400008084008B5034B03600846DE
S31500002B90FFF7A4FF002008BD54524F5008B5084661
S31500002BA0FFF79CFF002008BD70B5012686B001AB7B
S31500002BB003A80C4615460493ADF80C60ADF8081052
S31500002BC00192FFF717FFEFF3108286F310881D4975
S31500002BD00B681BB940261C48C370C6700B680133CE
S31500002BE00B6082F31088EA034FEA1423E4B219D487
S31500002BF01B01164A234442F82350EFF310820123A7
S31500002C0083F310880B6813B10B68013B0B600B68EC
S31500002C101BB980200C49CB70C87082F31088002045
S31500002C2006B070BD094A04EB031052F820601B0180
S31500002C3026F4803642F8206025F4803642F820607B
S31500002C40D7E700BFF4510020000D084000080840F7
S31500002C50064B074993F826001A6A51F82030C2F34A
S31500002C6002620449D3400B60704700BF00E0014098
S31500002C708C02002034520020704700BFF8B54AF29B
S31500002C80035001234549464AA1F8FE03A2F8043140
S31500002C90B2F804319BB2002BFAD101204FF4004563
S31500002CA04FF0090C3F4CDFF818E13F4EC4F804E042
S31500002CB0DFF810E13D4FC4F80CE0A2F800013C4AF1
S31500002CC03649B06030602760A5602561626191F881
S31500002CD02620086A54F82220364EC0F30260C2400D
S31500002CE0326081F8133481F8A2C091F880341BB9A0
S31500002CF091F8813499074CD0284D95F88034002BF3
S31500002D003CD00022254B83F8812483F880240023BD
S31500002D10224981F8323091F83C301A07FBD543F24C
S31500002D20021000231D4A088581F82A3092F83C30AB
S31500002D309B06FBD50320052319494FF0F10C81F8BA
S31500002D401C011D49116282F8263092F82630156A58
S31500002D5054F82300C5F30264E04030600123F024F8
S31500002D604FF42540154981F80CC00B720C7382F89C
S31500002D70303082F85230A2F8FE03F8BD0121C82097
S31500002D8085F8801400F088F895F88034012BFBD183
S31500002D90B7E74FF47A70FFF76FFFB8E700E001403E
S31500002DA000C001408C02002000700040002D31015F
S31500002DB000C2EB0B345200202112012000200040FB
S31500002DC000127A0000366E01014B53F8200070475E
S31500002DD08C02002038B50025284C0121C82084F833
S31500002DE0285000F059F884F8245094F82430002B29
S31500002DF0FBD194F82430214943F0020384F82430AF
S31500002E0091F82430C3F340009B07F9D41B4A81F89C
S31500002E10220092F8223003F0FF00002BF9D192F83D
S31500002E204030164960F3C71382F8403091F84030BD
S31500002E30DB09FBD191F84200104A63F3C71081F811
S31500002E40420092F84230DB09FBD192F844000B496C
S31500002E5063F3C71082F8440091F84430C3F3C014FA
S31500002E60DB09F9D1012000F0DBF8054B012083F8DE
S31500002E70BB44BDE8384000F0A3B800BF00300840AE
S31500002E8000E00140704700BF00BEFEE7A0F1010070
S31500002E900028FBD1704700BF4FF47A7310B400FBD3
S31500002EA001F1114C114A2468B2FBF4F2A1FB0304B0
S31500002EB03CB9B0FBF2F0800860B15DF8044BFFF757
S31500002EC0E5BF9200B1FBF2F1A1FB03132BB9084653
S31500002ED00028F2D15DF8044B70474FF0FF3C5DF8D7
S31500002EE0044B6046FFF7D2BF3452002000CA9A3B1B
S31500002EF070B500240B4B0C4EB3F82021B3F84051AB
S31500002F00ADB2154025FA04F3DB0704D556F8243094
S31500002F10E0B203B198470134102CF3D1014BA3F86A
S31500002F20305170BD00600040B451002030B5032020
S31500002F3085B000F075F800256FF0FF014FF0FF3007
S31500002F401B4B1C4C996422462B464FF0010ECDE9D3
S31500002F500100039032F8021B0EFA03FC013311B193
S31500002F60012520EA0C000C2BF4D1F5B10190124B8F
S31500002F700F4A1067C3F88002029903205167C3F80D
S31500002F80841203999167C3F8881200F019F8002398
S31500002F900A4834F8022B03F1C00101330AB140F8A4
S31500002FA021200C2BF5D105B030BD4FF0FF30DEE708
S31500002FB0008000401C62000000E100E0006000406C
S31500002FC0EFF31081012383F31088124B33F810209E
S31500002FD092B22AB133F81020013A92B223F81020A7
S31500002FE033F810309BB293B910B40B4A0B4CB2F8BD
S31500002FF0FE3334F810009BB243F4254323EA000362
S31500003000A2F8FE3381F310885DF8044B704781F314
S31500003010108870472852002000E00140E862000056
S3150000302030B4EFF31081012383F310880E4A32F88F
S3150000303010309BB26BB90D4C0D4DB4F8FE3335F81C
S3150000304010C09BB243EA0C0343F425439BB2A4F899
S31500003050FE3332F8103001339BB222F8103081F380
S31500003060108830BC704700BF2852002000E00140A5
S31500003070E8620000094A0346106850B10333084964
S3150000308023F0030303448B428CBF4FF0FF301360E1
S315000030907047044908461160F0E700BF305200202F
S315000030A0806300208053002000BE704708B500F002
S315000030B003F8FDF719FFFEE74FF4700270B52B4BCE
S315000030C02B4CC3F8882000209C60FDF701FFFFF71A
S315000030D0D5FD0120FDF7FCFE2368A3F5005383F31D
S315000030E00A882448244A0021121A00F08FFF234838
S315000030F0234A2449121A00F0CBFF234D234B5B1BB6
S31500003100002B07DD00249E1055F8043B0134984738
S31500003110A642F9DCFFF79CFDFFF75CFE0320FFF7F4
S315000031207FFF00234FF6FF70194903F108020133B0
S315000031300C2B21F81200F8D100240320FFF740FFE2
S315000031400320FFF76DFF134B03205C609C60DC607F
S315000031501C61FFF735FF0220FDF7BAFEFFF7E6FE1A
S315000031602046BDE87040FFF78DBE00BF00ED00E0D1
S3150000317000000000A802002080530020000000206C
S315000031808C0200205866000084020020880200207D
S31500003190000D084000000E4081F0004102E000BF33
S315000031A083F0004330B54FEA41044FEA430594EA01
S315000031B0050F08BF90EA020F1FBF54EA000C55EA3C
S315000031C0020C7FEA645C7FEA655C00F0E2804FEA0D
S315000031D05454D4EB5555B8BF6D420CDD2C4480EAEF
S315000031E0020281EA030382EA000083EA010180EA1F
S315000031F0020281EA0303362D88BF30BD11F0004F6D
S315000032004FEA01314FF4801C4CEA113102D04042A2
S3150000321061EB410113F0004F4FEA03334CEA1333DD
S3150000322002D0524263EB430394EA050F00F0A780F5
S31500003230A4F10104D5F1200E0DDB02FA0EFC22FAF0
S3150000324005F2801841F1000103FA0EF2801843FAE4
S3150000325005F359410EE0A5F120050EF1200E012AD5
S3150000326003FA0EFC28BF4CF0020C43FA05F3C01813
S3150000327051EBE37101F0004507D54FF0000EDCF18C
S31500003280000C7EEB00006EEB0101B1F5801F1BD335
S31500003290B1F5001F0CD349085FEA30004FEA3C0C39
S315000032A004F101044FEA445212F5800F80F09A802F
S315000032B0BCF1004F08BF5FEA500C50F1000041EB33
S315000032C0045141EA050130BD5FEA4C0C404141EB37
S315000032D00101013C28BFB1F5801FE9D291F0000F32
S315000032E004BF01460020B1FA81F308BF2033A3F1E1
S315000032F00B03B3F120020CDA0C3208DD02F1140CD8
S31500003300C2F10C0201FA0CF021FA02F10CE002F112
S315000033101402D8BFC2F1200C01FA02F120FA0CFC0B
S31500003320DCBF41EA0C019040E41AA2BF01EB045154
S31500003330294330BD6FEA04041F3C1CDA0C340EDC52
S3150000334004F11404C4F1200220FA04F001FA02F395
S3150000335040EA030021FA04F345EA030130BDC4F153
S315000033600C04C4F1200220FA02F001FA04F340EA48
S315000033700300294630BD21FA04F0294630BD94F0F9
S31500003380000F83F4801306BF81F480110134013DE0
S315000033904EE77FEA645C18BF7FEA655C29D094EA51
S315000033A0050F08BF90EA020F05D054EA000C04BFCF
S315000033B01946104630BD91EA030F1EBF00210020BA
S315000033C030BD5FEA545C05D14000494128BF41F059
S315000033D0004130BD14F580043CBF01F5801130BDBD
S315000033E001F0004545F0FE4141F470014FF0000048
S315000033F030BD7FEA645C1ABF194610467FEA655CF9
S315000034001CBF0B46024650EA013406BF52EA03359A
S3150000341091EA030F41F4002130BD00BF90F0000F88
S3150000342004BF0021704730B54FF4806404F13204C4
S315000034304FF000054FF0000150E700BF90F0000F7D
S3150000344004BF0021704730B54FF4806404F13204A4
S3150000345010F0004548BF40424FF000013EE700BF74
S3150000346042004FEAE2014FEA31014FEA02701FBF04
S3150000347012F07F4393F07F4F81F06051704732F036
S315000034807F4208BF704793F07F4F04BF41F400218D
S31500003490704730B54FF4607401F0004521F00041EB
S315000034A01CE700BF50EA010208BF704730B54FF075
S315000034B000050AE050EA010208BF704730B511F076
S315000034C0004502D5404261EB41014FF4806404F1AE
S315000034D032045FEA915C3FF4D8AE4FF003025FEA34
S315000034E0DC0C18BF03325FEADC0C18BF033202EBB8
S315000034F0DC02C2F1200300FA03FC20FA02F001FA12
S3150000350003FE40EA0E0021FA02F11444BDE600BFB4
S315000035104FEA4102B2F1E04324BFB3F5001CDCF1EF
S31500003520FE5C0DD901F0004C4FEAC0024CEA507027
S31500003530B2F1004F40EB830008BF20F00100704756
S3150000354011F0804F21D113F13872BCBF01F0004059
S31500003550704741F480114FEA5252C2F11802C2F18B
S31500003560200C10FA0CF320FA02F018BF40F001000C
S315000035704FEAC1234FEAD32303FA0CFC40EA0C00BE
S3150000358023FA02F34FEA4303CCE77FEA625307D1FB
S3150000359050EA01331EBF4FF0FE4040F44000704732
S315000035A001F0004040F0FE4040F40000704700BFCC
S315000035B0024B0146186800F025B800BFC80000207D
S315000035C070B50F4E0C460546316811B900F040FD46
S315000035D030602146284600F03BFD431C03D14FF0E6
S315000035E0FF34204670BDC41C24F00304A042F8D06A
S315000035F0211A284600F02CFD0130F2D1EFE700BF7A
S31500003600385200202DE9F843CD1C064625F0030567
S3150000361008350C2D38BF0C25002D01DBA94204D935
S315000036200C2333600020BDE8F883DFF8D48000F077
S3150000363069F8D8F800301C4644BB29463046FFF7E7
S31500003640BFFF431C044658D1D8F800402746002F38
S3150000365043D1002C4BD023683946304604EB03098E
S3150000366000F0F6FC814542D1216830466D1A2946A4
S31500003670FFF7A6FF01303AD023682B442360D8F821
S3150000368000305A6862BBC8F800700FE02268521B0F
S3150000369020D40B2A17D96119A342256018BF596097
S315000036A0636808BFC8F8001062514B60304600F0EE
S315000036B02FF804F10B00231D20F00700C21A1CBFCF
S315000036C01B1AA350AFE76268A3420CBFC8F80020DC
S315000036D05A60EBE723466468AEE73C467F68B6E788
S315000036E01A465B68A342FBD100235360DEE70C2336
S315000036F03046336000F00CF894E70560D6E700BF6B
S315000037003C520020014800F0B3BC00BF7C530020AF
S31500003710014800F0AEBC00BF7C5300202DE9FF47F6
S3150000372057EC106B002F0C4619463B46B4BF07F109
S31500003730004300239146BFBF32461F462D2316463F
S31500003740DDF830A00B700D9B23F02008B8F1460F72
S3150000375005D0B8F1450F00D10134022100E0032164
S3150000376003AB2246019302AB47EC106B0093534622
S3150000377000F032FDB8F1470F054619D119F0010FD7
S315000037800ED000EB0409002200233046394602F031
S31500003790F1FA08B1CDF80C903022039B4B451ED3AD
S315000037A0039B28460E9A5B1B136004B0BDE8F087A6
S315000037B0B8F1460F00EB0409E5D10378302B0AD1A6
S315000037C0002200233046394602F0D4FA18B9C4F173
S315000037D00104CAF80040DAF800309944D3E7591CCE
S315000037E003911A70D9E7F7B500290270BABF4942AA
S315000037F02D232B230929437028DD0DF107030A2702
S315000038001D461A46013BB1FBF7F607FB161430348A
S3150000381002F8014C0C463146632CF2DC3031941E22
S3150000382003F8011C411C2346AB420AD30DF10903E0
S315000038309B1AAC4288BF002302330344181A03B014
S31500003840F0BD13F8016B01F8016FEDE7302330315D
S315000038508370031DC170F1E72DE9F04F8DB00C4662
S3150000386016461F46DDF85880054600F0EDFB036856
S315000038701846049300F019FC002305900A93D8F823
S31500003880003094F818A00733D4F800B023F00703EB
S3150000389003F10802C8F800204FF0FF32D3E900898F
S315000038A029F00043CDF8188007939D4BDDE906010A
S315000038B0C4E9128902F090FA70BB4FF0FF32984BC0
S315000038C0DDE9060102F06AFA30BB00220023404619
S315000038D0494602F059FA10B12D2384F84330914A33
S315000038E0914BBAF1470F8CBF9046984603234FF091
S315000038F0000923612BF00403236033460BAA2146FB
S315000039002846009700F0D2F9013040F08D804FF044
S31500003910FF300DB0BDE8F08F42464B464046494663
S3150000392002F05AFA40B14B46804A002BBCBF2D2309
S3150000393084F843307E4BD4E70AF0DF0263680692D0
S315000039405A1C3BD1062363604BF480620023284651
S31500003950226003930AABCDE901A309AB49EC108BB6
S3150000396000930DF123036168FFF7D8FE069B80469E
S315000039700999472B29D1C81C02DB6368994241DDAE
S31500003980AAF1020A5FFA8AFA0139524604F1500096
S315000039900991FFF728FF0A9A81461318012A236125
S315000039A002DC2268D20701D5013323619DF823305A
S315000039B0002BA2D02D2384F843309EE7069A472A8F
S315000039C0C2D1002BC0D10123BDE7BAF1650FDBD907
S315000039D0BAF1660F18D1002963680BDD216113B9AE
S315000039E02268D00702D501330B4423614FF000094A
S315000039F0A165DBE713B92268D20701D50233F4E7E4
S31500003A000123F2E74FF0670A0A9B994205DB236818
S31500003A102161D807EAD54B1CE7E70029D4BFC1F1DD
S31500003A20020201221344E0E723685A0507D42369FA
S31500003A30424631462846B84701302BD167E7BAF1EE
S31500003A40650F40F2DD8000220023D4E9120102F066
S31500003A5091F9002833D00123364A31462846B84723
S31500003A6001303FF454AFDDE90938434502DB2368F2
S31500003A70D8070FD531462846DDE90423B84701307B
S31500003A803FF445AF4FF0000908F1FF3804F11A0A78
S31500003A90C84509DC23689B0700F10381E0680B9B9E
S31500003AA09842B8BF184634E70123524631462846A5
S31500003AB0B84701303FF42BAF09F10109E8E7099B4C
S31500003AC0002B39DC01231B4A31462846B847013012
S31500003AD03FF41DAFDDE9093959EA030302D1236832
S31500003AE0D907D7D531462846DDE90423B847013042
S31500003AF03FF40DAF4FF0000A04F11A0B099B5B422D
S31500003B00534501DC4B4693E701235A463146284686
S31500003B10B84701303FF4FBAE0AF1010AEEE700BFF9
S31500003B20FFFFEF7FF4620000F0620000FC6200001D
S31500003B30F862000000630000A36DDDF828A053457D
S31500003B40A8BF5346002B994636DC4FF0000B29EAF6
S31500003B50E97904F11A02A36D0693A3EB09035B4509
S31500003B6031DC099B9A453ADC2368DA0737D4099B8E
S31500003B70AAEB0309069BAAEB03039945A8BF99463E
S31500003B80B9F1000F33DC4FF0000829EAE97904F1B6
S31500003B901A0B099BAAEB0303A3EB090343457FF723
S31500003BA079AF01235A4631462846B84701303FF4DB
S31500003BB0AEAE08F10108ECE7424631462846B84762
S31500003BC00130C2D1A3E60123314628460692B84702
S31500003BD001303FF49CAE0BF1010B069ABBE7DDE921
S31500003BE0042331462846B8470130C0D18FE6069AED
S31500003BF04B46314628464244B8470130C3D186E693
S31500003C00DDF828A0BAF1010F01DCDB0736D5012368
S31500003C10424631462846B84701303FF478AE314631
S31500003C202846DDE90423B84701303FF470AE002290
S31500003C3000230AF1FF3AD4E9120102F09BF8C0B959
S31500003C40534608F1010231462846B84701300CD1E7
S31500003C505DE601235A4631462846B84701303FF40F
S31500003C6056AE08F10108D045F3DB4B4604F150028D
S31500003C70DFE64FF0000804F11A0BF4E70123424691
S31500003C80E1E701234A4631462846B84701303FF46A
S31500003C903EAE08F10108E3680B995B1A4345F0DC78
S31500003CA0FCE64FF0000804F11909F4E72DE9F047A6
S31500003CB0164698468A6807460B690C46DDF820903A
S31500003CC09342B8BF1346336091F843200AB10133DB
S31500003CD033602368990642BF336802333360256830
S31500003CE015F0060506D104F1190AE36832689B1A35
S31500003CF0AB422BDC94F843302268003B18BF01230B
S31500003D00920630D404F1430241463846C847013092
S31500003D1023D023681A3454F80A2C03F00603042B24
S31500003D200ABF54F80E5C002533684FF0000608BF42
S31500003D30ED1A54F8123C08BF25EAE5759342C4BF54
S31500003D409B1AED18B5421AD1002008E0012352460D
S31500003D5041463846C847013003D14FF0FF30BDE831
S31500003D60F0870135C1E7E1185A1C3020023322449E
S31500003D7081F8430094F8451082F84310C2E7012306
S31500003D80224641463846C8470130E6D00136D9E7D3
S31500003D902DE9FF470F7E914680460C46782F9A46BE
S31500003DA00C9E01F1430207D8622F0AD8002F00F0BB
S31500003DB0D180582F00F0B88004F1420684F8427092
S31500003DC03AE0A7F16303152BF6D801A151F823F0C9
S31500003DD0293E00003D3E0000B93D0000B93D00000F
S31500003DE0B93D0000B93D00003D3E0000B93D000070
S31500003DF0B93D0000B93D0000B93D00003B3F000061
S31500003E00673E0000F53E0000B93D0000B93D0000E8
S31500003E105D3F0000B93D0000673E0000B93D00006F
S31500003E20B93D0000FD3E000033681A1D1B68326074
S31500003E3004F1420684F8423001239CE0336820688E
S31500003E40191D3160060601D51D6803E04506FBD540
S31500003E50B3F90050002D03DA2D236D4284F8433068
S31500003E6058480A2311E021683368080653F8045BB2
S31500003E7002D4490648BFADB26F2F3360514814BF14
S31500003E800A230823002184F843106668002EA660E2
S31500003E9005DB21682E4321F0040121604BD0164634
S31500003EA0B5FBF3F103FB1157C75D06F8017D2F46FD
S31500003EB00D46BB42F4D9082B0BD12368DF0708D582
S31500003EC0236961689942DEBF302306F8013C06F19A
S31500003ED0FF36921B22614B4603AA21464046CDF887
S31500003EE000A0FFF7E3FE01304AD14FF0FF3004B0E7
S31500003EF0BDE8F087236843F0200323607827324823
S31500003F00236884F845701F06316851F8045B02D4B3
S31500003F105F0648BFADB23160D90744BF43F0200306
S31500003F2023601DB11023ADE72648E9E7236823F097
S31500003F3020032360F6E71646BDE733682568181D9B
S31500003F40616930602E061B6801D5196002E06806BB
S31500003F50FBD51980002316462361BCE73368002190
S31500003F601A1D32601E686268304600F083F808B198
S31500003F70801B606063682361002384F84330AAE7EE
S31500003F802369324649464046D0470130ADD02368C2
S31500003F909B0713D4E068039B9842B8BF1846A6E770
S31500003FA00123324649464046D04701309DD001356F
S31500003FB0E36803995B1AAB42F2DCEBE7002504F1F8
S31500003FC01906F5E7026300001363000000B59BB015
S31500003FD0009104916FF0004105910291054903910A
S31500003FE0694601F0DFFA009B00221A701BB05DF8EB
S31500003FF004FB00BF0802FFFF13460A4601460248BB
S315000040000068FFF7E3BF00BFC80000200244034674
S31500004010934200D1704703F8011BF9E70A7870B59F
S315000040206AB970BD9A4209D10C46054614F8013F9B
S31500004030002BF6D015F8016F9E42F7D001300378B9
S31500004040002BEFD11846ECE7004870470802002025
S3150000405038B50023054D044608462B60FFF70AF8DD
S31500004060431C02D12B6803B1236038BD785300206E
S3150000407070477047C9B20346024410B593421846CA
S3150000408001D1002003E0047801338C42F6D110BD43
S315000040900A44431E914200D1704710B511F8014BF6
S315000040A0914203F8014FF9D110BD034613F8012BD5
S315000040B0002AFBD1181A013870472DE9F74F03691A
S315000040C007460C69A342C0F28380013C00F1140547
S315000040D001F11408A30055F8242008EB8409009385
S315000040E005EB8403019358F8243001339A42B2FB5E
S315000040F0F3F631D34FF0000AC446AE46D3465CF819
S31500004100043B98B2E1454FEA134306FB00A04FEA91
S31500004110104280B206FB0323DEF8002092B24FEA7B
S31500004120134AA2EB00029BB2DEF800005A44C3EB2E
S31500004130224392B203EB104342EA03424FEA234B77
S315000041404EF8042BDBD2009BEB582BB9019B043BAA
S315000041509D421A4630D33C61384601F0BBF8002830
S3150000416026DB2946002058F8042BD1F800C01FFA98
S3150000417082FEC1451FFA8CF34FEA1242A3EB0E03EF
S315000041800344C2EB23429BB202EB1C4243EA0243C6
S315000041904FEA224041F8043BE5D255F8242005EBCE
S315000041A0840322B9043B9D421A460BD33C61013677
S315000041B0304603B0BDE8F08F1268043B002ACAD12E
S315000041C0013CC5E71268043B002AEFD1013CEAE74F
S315000041D00020EEE7FFFFFFFF2DE9F04FC76999B01A
S315000041E08346229E09910E92139355EC104B8DED4A
S315000041F0040B7FB91020FFF7DBF90246CBF81C0051
S3150000420020B9A74BEF21A748FEF73EFEC0E901778C
S315000042100760C760DBF81C30196859B15A6801237A
S31500004220584693404A608B6000F01EFEDBF81C3057
S3150000423000221A602B1EB7BF23F000430023012281
S315000042400593A8BF3360059F974BB8BF3260BB4349
S3150000425012D142F20F73139A1360C7F31303234369
S3150000426000F04685239BDFF854A2002B00F048851A
S315000042700AF1030300F042BD9DED047B00220023FA
S3150000428051EC170B8DED0C7B01F074FD804658B197
S315000042900123139A1360239B13B1844B239A136053
S315000042A0DFF81CA200F02CBDC7F30A5616AA17A900
S315000042B058469DED0C0B01F0C1F88146002E75D0D5
S315000042C00D9BA6F2FF36CDF85080C3F3130343F0DF
S315000042D07F53DDE90C0143F4401319460022744B69
S315000042E0FEF75EFF68A3D3E9002301F0DBFA68A3BB
S315000042F0D3E90023FEF756FF04460D463046FFF786
S315000043009DF865A3D3E9002301F0CCFA02460B46DB
S3150000431020462946FEF746FF04460D4601F072FD8B
S315000043200022074600232046294601F02DFD40B114
S315000043303846FFF783F822462B4601F01BFD00B9ED
S31500004340013F162F51D85B4B03EBC703DDE90C0188
S31500004350D3E9002301F018FD002848D0013F0023CF
S315000043601293169B9B1B5A1E46BFC3F101080023DE
S315000043704FF00008089248BF0893002F39DB089BCE
S315000043800F973B44089300230A93099B092B61D896
S31500004390052BC5BF043B002401240993099B023B5E
S315000043A0032B63D8DFE803F05254372CDDE916639C
S315000043B01E4406F23243202BC9BFC3F14003C3F1AA
S315000043C020039F4006F21243D8BF04FA03F006F119
S315000043D0FF36C4BF24FA03F347EA0300FFF71EF8CB
S315000043E00122A1F1F873149277E70123B8E712903E
S315000043F0B7E77B42A8EB07080A9300230F93C4E7AD
S3150000440001230B930E9BFB1800930133012B03939F
S31500004410B8BF012306E001230B930E9B002B28DD7A
S3150000442000930393DBF81C000021042202F114051B
S315000044309D4223D94160584600F0D6FC82460028AA
S3150000444040D11D4B024640F2AF11DCE60023E3E704
S315000044500023D6E7012400230B9409934FF0FF3382
S3150000446000220093039312230E92DBE701230B93A2
S31500004470F4E701231A4600930393F5E7013152004E
S31500004480D4E700BFAFF3008061436F63A787D23FD5
S31500004490B3C8608B288AC63FFB799F501344D33F2D
S315000044A031630000486300000000F07F01630000F4
S315000044B00000F83F60640000A16300002D63000067
S315000044C000630000DBF81C301860039B0E2B00F223
S315000044D0A180002C00F09E80002F33DD07F00F0234
S315000044E09B4BF8054FEA271403EBC20393ED007BC1
S315000044F08DED067B16D5974B04F00F040326D3E902
S315000045000823DDE90C0101F0F7FACDE90401914D2C
S3150000451054B9DDE90623DDE9040101F0EDFACDE940
S31500004520040128E00226F2E7E10708D50136DDE9B5
S315000045300601D5E9002301F0B5F9CDE906016410BD
S315000045400835E5E700F0AF807C42814B814D0226BD
S3150000455004F00F02241103EBC203DDE90C01D3E9D9
S31500004560002301F09FF90023CDE90401002C40F05F
S315000045708F80002BD3D1129BDDE90445002B00F080
S3150000458094800022744B2046294601F0FDFB00284A
S3150000459000F08B80039B002B00F08780009B002B94
S315000045A034DD7B1E204600222946069301366B4BDE
S315000045B001F078F9009CCDE904013046FEF73EFF94
S315000045C0DDE9042301F06EF90022654BFEF7EAFDF2
S315000045D00546A1F15076002C6AD10022614BDDE937
S315000045E00401FEF7DDFD02460B46CDE904232A460B
S315000045F0334601F0E7FB002840F087822A4606F1A1
S315000046000043DDE9040101F0BFFB38BBDDE90C34F2
S31500004610CDE90434179B002BC0F258810E2F00F30E
S3150000462055814B4B03EBC70393ED007B0E9B002B91
S315000046308DED007B80F2E580039B002B00F3E1808B
S315000046400CD10022474B51EC170B01F02BF9DDE999
S31500004650042301F0ADFB002800F055820024254616
S315000046600E9B5646DB43069300272146584600F02C
S31500004670FBFB002D00F0BD802FB1AF4203D03946C1
S31500004680584600F0F1FB2946584600F0EDFBB0E035
S31500004690E20705D50136D5E9002301F003F9012328
S315000046A06410083562E7022665E7039C069784E7EF
S315000046B0274B0B9903EBC403544453E90223002907
S315000046C054D00020284901F017FA334656462A46A8
S315000046D0FEF766FDCDE91001DDE9040101F092FB6C
S315000046E00546FEF7ABFE02460B463035DDE9040112
S315000046F0FEF756FD02460B4606F8015BCDE904239C
S31500004700DDE9102301F040FB002872D10020124998
S31500004710DDE90423FEF744FDDDE9102301F034FB57
S31500004720002840F0B480A6423FF470AF00220B4B45
S31500004730DDE9100101F0B6F80022084BCDE91001C1
S31500004740DDE9040101F0AEF8CDE90401C4E700BFDC
S3150000475060640000386400000000F03F0000244060
S3150000476000001C40000014400000E03F3146564661
S31500004770284601F097F81594CDE91001DDE904010A
S3150000478001F040FB0546FEF759FE024630350B4662
S31500004790DDE90401FEF704FD06F8015B02460B465F
S315000047A0A642CDE904234FF0000224D1AB4BDDE94C
S315000047B01001FEF7F7FC02460B46DDE9040101F0A5
S315000047C001FB002863D10020A449DDE91023FEF790
S315000047D0E7FC02460B46DDE9040101F0D5FA0028A4
S315000047E03FF414AF159E731E159316F8013C302B3B
S315000047F0F8D0069F3BE09A4B01F054F8CDE904014E
S31500004800BCE7DDE90445564620462946DDE9002396
S3150000481001F072F901F0F6FA8046FEF70FFEDDE9C7
S31500004820002301F03FF80246204608F130040B460B
S315000048302946FEF7B5FC039D06F8014BA6EB0A04D4
S3150000484002460B46A54234D1FEF7ACFC04460D46A3
S31500004850DDE9002301F0B6FAC0B920462946DDE9B4
S31500004860002301F087FA10B118F0010F0ED1494666
S31500004870584600F0F9FA002301373370139B1F6086
S31500004880239B002B00F03C821E6039E206973346DC
S315000048901E4613F8012D392A07D19A45F8D1069AF2
S315000048A00132069230228AF800201A7801321A70F4
S315000048B09FE700226A4B00F0F5FF00220023044622
S315000048C00D4601F057FA00289ED0D0E70B9A002A31
S315000048D000F0E180099A012A00F3C480149A002AA4
S315000048E000F0B78003F233430A9C4646089A01213A
S315000048F0584698441A44089200F06CFB05465EB18F
S31500004900089B002B08DDB342089AA8BF3346A8EBE4
S315000049100308F61AD31A08930A9BF3B10B9B002BD4
S3150000492000F0BD808CB129462246584600F00CFCAA
S315000049304A4601460546584600F062FB494606903F
S31500004940584600F091FA069B99460A9B1A1B04D01A
S315000049504946584600F0F8FB81460121584600F0CA
S3150000496039FB0F9B0446002B00F0CE811A46014608
S31500004970584600F0E9FB099B0446012B00F395809D
S31500004980049B002B40F08D80059BC3F31303002B83
S3150000499040F08980059B23F000431B0D1B052BB1BE
S315000049A0089B08F101080133089301230A930F9B22
S315000049B0002B00F0AF81236904EB8303186900F034
S315000049C0BDFAC0F12000089B184410F01F0077D0F4
S315000049D0C0F12003042B6BDDC0F11C00089B804452
S315000049E0034406440893B8F1000F05DD49464246E4
S315000049F0584600F003FC8146089B002B05DD214646
S31500004A001A46584600F0FAFB0446129B002B59D072
S31500004A102146484600F05EFC002853DA7B1E4946D4
S31500004A200A2258460693002300F040FA0B9B814663
S31500004A30002B00F07181002329460A22584600F017
S31500004A4035FA009B0546002B67DC099B022B41DCEF
S31500004A5063E0169BC3F1360346E700BF0000E03F64
S31500004A6000002440039B5C1E0A9BA34209DB1C1B1F
S31500004A70039B002BBFF639AF039BA8EB030600236D
S31500004A8034E70A9B46460F9AE31A0A9400241A440E
S31500004A90039B0F922AE70A9C46460B9D2FE70A9A2C
S31500004AA056E7002382E7049B80E700230A9382E708
S31500004AB099D01C33089A1A4498441E44089292E7E7
S31500004AC00346F6E7039B0697002B20DC0093099B21
S31500004AD0022B1EDD009B002B7FF4C2AD2146052272
S31500004AE0584600F0E3F901460446484600F0F2FB5A
S31500004AF000287FF7B5AD3123564606F8013B069BE5
S31500004B0001330693B0E5039C06972546F3E7039B1E
S31500004B1000930B9B002B00F00381002E05DD294638
S31500004B203246584600F06AFB05460A9B002B5AD0CF
S31500004B306968584600F058F9064628B9834B02467C
S31500004B4040F2EF21FFF75FBB2A6905F10C010C303B
S31500004B5002329200FFF79CFA01223146584600F0D5
S31500004B604DFB0AF101032F4605460393009B534470
S31500004B700B93049B03F001030A93039B21464846CB
S31500004B80013B0093FFF799FA3946049000F130088B
S31500004B90484600F09FFB2A4608902146584600F0FA
S31500004BA0B5FBC268064602BB0146484600F092FBCA
S31500004BB00246314658460E9200F056F9099B0E9A67
S31500004BC0039E42EA03010A9B194310D1B8F1390F3B
S31500004BD029D0089B002B02DD049B03F13108009BC2
S31500004BE083F8008041E52846BBE70122E1E7089B00
S31500004BF0002B04DB09990B430A990B4320D1002AA9
S31500004C00EDDD49460122584600F0F8FA2146814674
S31500004C1000F060FB002803DCE1D118F0010FDED0C4
S31500004C20B8F1390FD8D13923009A137033461E468E
S31500004C30013B16F8012C392A51D001321A7014E5BD
S31500004C40002A07DDB8F1390FEDD008F10103009A0B
S31500004C5013700AE5039B0B9A03F8018C934228D044
S31500004C60494600230A22584600F020F9AF42814601
S31500004C704FF000034FF00A023946584607D100F0BC
S31500004C8015F907460546039B0133039375E700F0C4
S31500004C900DF92946074600230A22584600F006F970
S31500004CA00546F0E7009B0027002BCCBF1E460126D9
S31500004CB0564449460122584600F0A0FA214681464C
S31500004CC000F008FB0028B1DC02D118F0010FADD1CD
S31500004CD033461E4613F8012D302AFAD0C5E49A450C
S31500004CE0A5D1069B0133069331238AF80030BCE434
S31500004CF0239BDFF85CA01BB10AF10803239A13601B
S31500004D00504619B0BDE8F08F099B012B7FF738AEEE
S31500004D100F9B0A93012056E6009B002B7FF7D7AE28
S31500004D20564621464846FFF7C8F900F13008009B71
S31500004D3006F8018BA6EB0A029342B3DD494600232F
S31500004D400A22584600F0B2F88146EAE7A16300005D
S31500004D502463000038B50546002941D051F8043CCB
S31500004D600C1F002BB8BFE418FEF7CCFC1D4A1368D5
S31500004D7033B9636014602846BDE83840FEF7C8BC06
S31500004D80A34208D9206821188B4201BF19685B68C5
S31500004D9009182160EDE71A465B680BB1A342FAD900
S31500004DA011685018A0420BD12068014450181160B8
S31500004DB08342E0D118685B68084453601060DAE704
S31500004DC002D90C232B60D6E7206821188B4202BF3C
S31500004DD019685B680918636008BF21605460CAE7F8
S31500004DE038BD00BF3C52002070B5C66904460D466A
S31500004DF076B91020FEF7DCFB0246E06120B9184BBD
S31500004E006B211848FEF740F8C0E901660660C660E7
S31500004E10E669F36883B1E369DB6853F82500B8B93E
S31500004E200121204601FA05F6721D920000F0D0FC21
S31500004E3060B1C0E901560EE021220421204600F0AF
S31500004E40C7FCE369F060DB68002BE4D1002070BD8D
S31500004E50026843F825200023C0E90333F7E700BFC3
S31500004E6031630000B263000070B5C66905460C46A2
S31500004E7076B91020FEF79CFB0246E86120B9094B83
S31500004E808F210948FEF700F8C0E901660660C66092
S31500004E903CB1EB696268DB6853F82210216043F885
S31500004EA0224070BD31630000B26300002DE9F0417D
S31500004EB001F1140C07460C461E460D690020DCF86D
S31500004EC00030013099B2854202FB01614FEA134678
S31500004ED04FEA114389B202FB063301EB03414FEA65
S31500004EE013464CF8041BEADC0EB3A368AB4219DC8C
S31500004EF0616838460131FFF777FF804628B90246D8
S31500004F000C4BBA210C48FDF7BFFF226904F10C01D6
S31500004F100C3002329200FFF7BBF821464446384671
S31500004F20FFF7A2FF04EB850301355E61256120468C
S31500004F30BDE8F081A1630000B2630000B0F5803FD8
S31500004F40034636BF030400201020B3F1807F3CBF28
S31500004F501B020830B3F1805F3CBF1B010430B3F184
S31500004F60804F3CBF9B000230002B05DB13F0804FC7
S31500004F7000F1010008BF202070470368024613F0C5
S31500004F8007000BD0D90721D4980747BF5B0801203B
S31500004F909B0802204CBF13601360704799B209B991
S31500004FA01B0C1020D9B209B908301B0A190704BF17
S31500004FB01B090430990704BF9B080230D90703D4A4
S31500004FC05B0800F1010003D01360704700207047B2
S31500004FD02020704710B50C460121FFF705FF024659
S31500004FE028B9054B40F245110448FDF74DFF012352
S31500004FF04461036110BD00BFA1630000B2630000FD
S315000050002DE9F04F17460A69894685B03B699A42F1
S31500005010A2BF3B460F4699463D69BB68D9F810A02A
S31500005020796805EB0A06B342B8BF0131FFF7DCFE2B
S3150000503030B90246424B4FF4B1714248FDF724FFA6
S3150000504000F11404002204EB860E2346734520D398
S3150000505007F1140809F1140108EB850501EB8A0331
S315000050600293EB1B1537153B23F003030433BD42B4
S3150000507038BF04230193029B03918B420CD8002E68
S3150000508003DD5EF8043D002B57D0066105B0BDE890
S31500005090F08F43F8042BD9E7B1F800A0BAF1000F5E
S315000050A021D0C446A14600275CF8042BD9F800306D
S315000050B01FFA82FB65459BB24FEA12420AFB0B338D
S315000050C03B44D9F800704FEA17470AFB027202EB1D
S315000050D013429BB24FEA124743EA024349F8043BA4
S315000050E0E2D8019BE750039B0431B3F80290B9F173
S315000050F0000F20D023684746A4464FF0000AB7F8B1
S3150000510000B09BB2BCF8022009FB0B22524443EAD2
S3150000511002434CF8043B57F8043B4FEA134ABCF8E9
S315000051200030BD4209FB0A3303EB12434FEA134A30
S31500005130E5D8019AA35004349DE7013E9FE700BFDE
S31500005140A1630000B26300002DE9F843154612F092
S31500005150030207460E4607D0013A254C002354F8B1
S315000051602220FFF7A3FE0646AD103DD0FC697CB9B0
S315000051701020FEF71DFA0246F86128B91D4B40F2D1
S31500005180B3111D48FDF780FEC0E901440460C46008
S31500005190D7F81C80D8F808404CB940F2712138463F
S315000051A0FFF718FF00230446C8F8080003604FF015
S315000051B00009EB070AD5314622463846FFF720FF9D
S315000051C08046314638464646FFF74EFE6D100BD0F8
S315000051D0206838B9224621463846FFF711FF20607D
S315000051E0C0F800900446E4E73046BDE8F88300BF07
S315000051F02864000031630000B26300002DE9F04727
S315000052000C46074691464FEA621A2369496803EB42
S315000052106218A36808F10106B3420BDB3846FFF7B4
S31500005220E3FD054648B90246284B4FF4EF7128487E
S31500005230FDF72AFE01315B00EEE7002300F11401C1
S3150000524000F110021846534533DB2AEAEA7A04F1E4
S315000052501403206919F01F0901EB8A0103EB800C86
S315000052602BD0C9F1200E8A460022186800FA09F0F0
S3150000527010434AF8040B53F8042B9C4522FA0EF20D
S31500005280F3D8ACEB040304F11500153B23F003033C
S315000052900433604588BF0423CA500AB108F10206E8
S315000052A0013E384621462E61FFF7DEFD2846BDE861
S315000052B0F087013342F8040FC5E7043953F8042B8D
S315000052C09C4541F8042FF9D8EAE700BFA163000026
S315000052D0B263000003460A690069801A30B50ED130
S315000052E01433143103EB820401EB820154F8045D9C
S315000052F051F8042D954203D005D24FF0FF3030BD52
S31500005300A342F3D3FBE70120F9E7FFFF2DE9F74FAF
S3150000531089460646114614464846FFF7DBFF051E3A
S3150000532012D129463046FFF75FFD024628B9414BA8
S3150000533040F237214048FDF7A7FD0123C0E90435B7
S31500005340104603B0BDE8F08FBCBF4B46A1463046C1
S31500005350B8BF0125D9F80410B4BF1C460025FFF7D5
S3150000536043FD024618B9334B40F24521E2E7D9F82E
S31500005370107004F1140E266900F1140BC56009F1D2
S31500005380140509F110030EEB860605EB8708D946CE
S315000053904FF0000C0193019B5EF8040B53F804AF29
S315000053A0764501931FFA8AF3194683B24FEA1040F5
S315000053B0A1EB0303C0EB1A40634400EB23409BB20E
S315000053C04FEA204C43EA004349F8043BE3D8331B39
S315000053D01534153B23F003030433A64238BF0423D8
S315000053E01D445B442C461E4644450ED308F103017A
S315000053F0491B033D21F00301A84538BF00210B449A
S3150000540053F8041D99B117619AE754F8041BE64650
S315000054101FFA81FC080C7144F44489B200EB2C405D
S3150000542041EA00414FEA204C46F8041BDCE7013F05
S31500005430E6E700BFA1630000B26300002DE9F74371
S315000054400F460121164659EC108BFFF7CDFC04469A
S3150000545030B90246234B40F20F312348FDF714FDC5
S31500005460C9F30A55C9F313030DB143F4801301932D
S31500005470B8F1000323D068460093FFF77EFDDDE90F
S315000054800012D0B1C0F1200302FA03F3C2400B436D
S3150000549001926361019B002BA3610CBF01220222D2
S315000054A02261A5B1A5F233450544C0F135003D6042
S315000054B03060204603B0BDE8F0836161EAE701A8E9
S315000054C0FFF75BFD019B203001226361E8E7A0F254
S315000054D0324004EB820338601869FFF72FFDC0EBFA
S315000054E04210E5E7A1630000B26300002DE9F04732
S315000054F01F468E6882460C46BE4290460B682DD8E3
