S01E000052656E657361735F4375705F726561696C74795F61692E737265632C
S31500000000A0040120358500007D83000031850000B5
S315000000103185000031850000318500003185000002
S315000000200000000000000000000000003185000014
S315000000303185000000000000318500007D0D0000C4
S31500000040F16500006565000081660000C966000074
S3150000005031510000C951000071520000595300008F
S31500000060F16500006565000081660000C966000054
S31500000070557B0000F16500006565000081660000A3
S31500000080C9660000F1650000656500008166000034
S31500000090C9660000F1650000656500008166000024
S315000000A0C966000031510000C951000071520000BC
S315000000B059530000B95D0000F55E0000E9800000BC
S30D000000C055700000C570000038
S315000000C8BC000020000000009C000020000000008A
S315000000D80000000000000000000000000100000011
S315000000E804000000D80401200600000001000000FA
S315000000F8000600006D8A0000900000200000000045
S3150000010800000000000000000000000000000000E1
S3150000011800000000000000000000000000000000D1
S3150000012800000000000000000000000000000000C1
S3150000013800000000000000000000000000000000B1
S3150000014800000000000000000000000000000000A1
S3150000015860EB000060D30000998C000006000000E8
S31500000168000200000002000000000000000000007D
S3150000017800000000000600007D86000050D3000045
S3150000018865860000980301000301000000000000D6
S31500000198F10600009106000031060000000000008C
S315000001A8A80301000501000000000000F106000098
S315000001B8910600003106000000000000B8030100A7
S315000001C80305000000000000F1060000910600008B
S315000001D83106000000000000C80301000D01000000
S315000001E800000000F106000091060000310600003C
S315000001F800000000F4030100000000009D08000054
S3150000020845080000F50700006107000079070000AF
S31500000218000000001C04010001000000190C000089
S31500000228F50A0000D10900000509000000000000D9
S315000002382C04010000000000190C0000F50A00005B
S31500000248D109000005090000000000006003010054
S31500000258FF000000150D000000000000000000006F
S3150000026800000000E50C0000000000008404010006
S31500000278020000000000000000000000000000006E
S31500000288851500000D0F0000990F0000650F00008E
S3150000029890040100020000000000000000000000B9
S315000002A8000000000D140000E90E0000CD0F00004C
S315000002B8310F000001000000400035000800110061
S315000002C8400035000800110000010000F467020034
S315000002D8E91A00000000000000000000000200000B
S315000002E801001DDF1EDF09FF09FF000000001028BE
S315000002F8000000000000000000008000010000006F
S315000003080006000000060000800000000100000052
S31500000318010000000000000080000000010000004D
S31500000328800000008000000040000000010000007E
S31500000338010000000000000040000000010000006D
S3150000034840000000400000002000000001000000FE
S31500000358010000000000000020000000010000006D
S315000003682000000020000000060000000100000038
S315000003780100000000000000060000000000000068
S315000003880300000048A40120CC0200200000000061
S3150000039848A40120B0A4012018A5012000000000EF
S315000003A8000000000000000000000000000000003F
S315000003B8000000000000000000000000000000002F
S315000003C8000000000000000000000000000000001F
S315000003D800000000000000004300000000000000CC
S315000003E800000000000000000000000000000000FF
S315000003F800000000000000004300000000000000AC
S3150000040800000000000000000000000000000000DE
S31500000418000000000000000043000000000000008B
S3150000042800000000000000000000000000000000BE
S31500000438000000000000000043000000000000006B
S31500000448000000000000000000000000000000009E
S31500000458000000000000000043000000000000004B
S31500000468000000000000000000000000000000007E
S31500000478000000000000000043000000000000002B
S31500000488000000000000000000000000000000005E
S31500000498000000000000000043000000000000000B
S315000004A8000000000000000000000000000000003E
S315000004B800000000000000004DCB0000CDCA00007F
S315000004C800000000941B0F00CA1D0F00B61D0F0088
S315000004D8B61D0F00B61D0F00B61D0F00B61D0F0086
S315000004E8B61D0F00B61D0F00B61D0F00B61D0F0076
S315000004F8FFFFFFFFFFFFFFFFFFFFFFFFFFFF0000FC
S315000005080100415343494900000000000000000073
S3150000051800000000000000000000000000000000CD
S315000005280000415343494900000000000000000054
S3150000053800000000000000000000000000000000AD
S3090000054800000000A9
S315000005500348044B834202D0034B03B1184770474C
S31500000560840400208404002000000000064B074994
S31500000570C91A891048BF0131491003D0044B0BB189
S3150000058001481847704700BF8404002084040020F7
S315000005900000000010B5064C237843B9FFF7D8FFDA
S315000005A0044B13B10448AFF300800123237010BD40
S315000005B0BC0401200000000084A2000108B5054B20
S315000005C01BB105490548AFF30080BDE80840FFF7B9
S315000005D0CDBF00BF00000000C004012084A20001BE
S315000005E0004870470000002010B50A4C82B0214632
S315000005F008F010FB204684ED0F0A08F041FBFCEEE4
S31500000600C07ACDED017A9DF8040084ED100A02B09F
S3150000061010BD00BF0000002010B50446034801F0DD
S3150000062009F92146BDE810408369184760030100B7
S31500000630E8B170B503680446B3B1114B00221E68D9
S315000006409D683046EB68A188984798B93046AB69F3
S31500000650A18804F10802984700B970BD5421094BDE
S31500000660094A0A4807F03CFE6FF0150070BD6FF0AE
S31500000670150070475221034B034A044807F030FE29
S31500000680E465020068030100F00D01007C0301002F
S31500000690E8B1F8B503680446B3B1114B0D461F68BF
S315000006A09E6804223846F368A188984790B92A467E
S315000006B03846F369A188984700B9F8BD4721094B28
S315000006C0094A0A4807F00CFE6FF01500F8BD6FF0F6
S315000006D0150070474521034B034A044807F000FE06
S315000006E0E465020068030100E40D01007C030100DB
S315000006F098B108B503686BB1094BD3E901121868C4
S315000007001268904700B908BD3A21064B064A0748C9
S3150000071007F0E6FD6FF0150008BD6FF01500704795
S31500000720E465020068030100D80D01007C030100A6
S3150000073008B5074800F0EAFF064800F0E7FF06485C
S3150000074000F0E4FFBDE80840044800F0DFBF00BF4A
S3150000075018010020FC000020E0000020C40000205A
S3150000076030B129B1002A14BF10466FF0150070474A
S315000007706FF01500704700BFE8B1E1B138B50379F5
S31500000780BBB96422164B02FB01F11D689C68284622
S31500000790A369984790B92846E3689847A0B92846C0
S315000007A063689847B0B90F4A1378002BFCD0002332
S315000007B01370002038BD6FF0150070477E210A4B7C
S315000007C00A4A0B4807F08CFD8021074B074A084868
S315000007D007F086FD8221044B044A054807F080FD98
S315000007E0B0660200F004012068030100200E01003B
S315000007F0D8030100A8B138B5037953B90D4B1D686C
S315000008009C682846A368984770B92846E3689847C5
S3150000081008B9002038BD6021074B084A084807F090
S315000008205FFD6FF0150070475E21034B034A0448D5
S3150000083007F056FDB066020068030100140E0100C1
S31500000840D803010088B108B503790BB1002008BDB3
S31500000850074B9A681868536898470028F6D04821CD
S31500000860044B054A054807F03BFD6FF0150070473D
S31500000870B066020068030100080E0100D8030100FB
S3150000088008B53221024B034A034807F029FD00BF91
S3150000089068030100FC0D0100D803010070B108B522
S315000008A003790BB1012008BD064BD3E90112186884
S315000008B0126890470028F5D0FFF7E2FF6FF01500A9
S315000008C0704700BFB066020010B5084C204600F025
S315000008D0A9FF237933B9064BD3E9011218681268C8
S315000008E0904700B910BDFFF7CBFF00BF34010020D1
S315000008F0B0660200037913B90122014B1A707047E2
S31500000900F0040120002842D0F0B50C4683B000293F
S315000009103AD01546002A37D01E46002B34D001792E
S31500000920F1B1012919D1214F00213868036998478F
S3150000093007231F482146846800932A4633460068E9
S31500000940E468A04730BB1B4A1378002BFCD0002478
S3150000095038680121036914709847002003B0F0BD80
S31500000960154F386803699847072314482146846859
S3150000097000932A4633460068E468A04780B9104AC7
S315000009801378002BFCD0E2E76FF01500E6E76FF076
S3150000099015007047EB210B4B0B4A0C4807F0A0FCE7
S315000009A0E221084B084A094807F09AFCF4040120A2
S315000009B0B4670200FC040120F804012070660200FE
S315000009C0FD04012068030100540E0100000401002B
S315000009D000286DD070B50D46002966D01446002A51
S315000009E063D0017911B3012901D0002070BD384EC2
S315000009F00021306803699847A20737D0E30749D436
S31500000A00344B29469A68186855680F236208A84728
S31500000A10002850D1304A1378002BFCD000243068CF
S31500000A2001210369147098470020DFE72B4E3068D8
S31500000A3003699847A00710D0E10720D4284B294620
S31500000A409A68186855680F236208A847002838D1A5
S31500000A50244A1378002BFCD0E0E7214B29469A68FC
S31500000A60186855681F23A208A847EFE7194B2946BF
S31500000A709A68186855681F23A208A847C8E7012C7A
S31500000A80E6D1174B2246986829464468186807231A
S31500000A90A047DBE7012CBDD10E4B224698682946BC
S31500000AA0446818680723A047B2E76FF0150070BDC9
S31500000AB06FF015007047C6210B4B0C4A0C4807F027
S31500000AC00FFCAF21084B094A094807F009FC00BF93
S31500000AD0F4040120B4670200FC040120F80401209C
S31500000AE070660200FD04012068030100480E010043
S31500000AF00004010000286DD070B50D46002966D0AF
S31500000B001446002A63D0017911B3012901D00020CF
S31500000B1070BD384E0021306803699847A20737D068
S31500000B20E30749D4344B29469A68186895680F2319
S31500000B306208A847002850D1304A1378002BFCD011
S31500000B400024306801210369147098470020DFE70C
S31500000B502B4E306803699847A00710D0E10720D4D0
S31500000B60284B29469A68186895680F236208A84793
S31500000B70002838D1244A1378002BFCD0E0E7214B1B
S31500000B8029469A68186895681F23A208A847EFE7C0
S31500000B90194B29469A68186895681F23A208A84722
S31500000BA0C8E7012CE6D1174B224698682946846887
S31500000BB018680723A047DBE7012CBDD10E4B224660
S31500000BC098682946846818680723A047B2E76FF03B
S31500000BD0150070BD6FF01500704786210B4B0C4A4F
S31500000BE00C4807F07DFB6F21084B094A094807F0BE
S31500000BF077FB00BFF4040120B4670200FC04012067
S31500000C00F804012070660200FD040120680301005B
S31500000C103C0E01000004010000282DD008B5037920
S31500000C2083B1012B0CD1174800F078FD164B1860E4
S31500000C3028B3164BD3E90112186812689047A8B971
S31500000C40002008BD124800F069FD124B1860B0B1D3
S31500000C50114BD3E901121868126890470028EFD0AB
S31500000C6040210E4B0E4A0F4807F03AFB49210B4B29
S31500000C700B4A0C4807F034FB6FF0150070476FF015
S31500000C80050008BDA8030100F4040120B4670200B2
S31500000C90C8030100F8040120706602006803010021
S31500000CA0300E01000004010008B5044800F074FD90
S31500000CB0BDE80840024800F06FBD00BF700100208B
S31500000CC0540100200379012B04BF014A13707047B9
S31500000CD0FD0401200379012B04BF014A13707047FC
S31500000CE0FC04012088B1437963B16FF07F43084A61
S31500000CF09942106838BF013113681B1A8B42FBD327
S31500000D00002070476FF0040070476FF015007047C1
S31500000D1000050120F0B170B50446052007F0C4FABD
S31500000D200E4AA2FB00239B09013BB3F1807F0ED242
S31500000D304FF0E02200204FF0F00C07250121084E6D
S31500000D40536186F823C090611561617170BD6FF0C3
S31500000D50040070BD6FF01500704700BFD34D6210E0
S31500000D6000ED00E010B5044C204600F05BFD204687
S31500000D70A368BDE8104018478C010020024A13689A
S31500000D8001331360704700BF00050120000000001A
S31500000D90002800F099802DE9F04F83B000264FF02F
S31500000DA0F20E15466A46074600968A46CDF8036057
S31500000DB01C461146072346698DF800E0B047464BAE
S31500000DC0BDF901001B68BDF903B0BB42BDF9059032
S31500000DD006D0424B1B68BB4259D003B0BDE8F08F2A
S31500000DE008F0D4FC3AA3D3E9002308F039FDDFF874
S31500000DF0F080064698F805300F46002B56D0394647
S31500000E00304608F0EFFFCAF80000584608F0BEFC6E
S31500000E102FA3D3E9002308F023FD98F805300646F2
S31500000E200F4663B998F80400400808F0AFFC024684
S31500000E300B463046394608F013FD06460F4639463E
S31500000E40304608F0CFFF034648462B6008F09EFC6C
S31500000E501FA3D3E9002308F003FD98F805300646E2
S31500000E600F4663B998F80400400808F08FFC024664
S31500000E700B463046394608F0F3FC06460F46304628
S31500000E80394608F0AFFF206003B0BDE8F08F08F0E8
S31500000E907DFC0FA3D3E9002308F0E2FCDFF84480D1
S31500000EA0064698F805300F46002BA8D198F804009E
S31500000EB0400808F06BFC02460B463046394608F0FF
S31500000EC0CFFC06460F469AE7704700BFAFF3008097
S31500000ED0DE718A8EE4F26F3F0805012004050120C9
S31500000EE0D0010020AC01002069B108B540B101F184
S31500000EF0100301F10C020831FFF74AFF002008BD7C
S31500000F006FF0040008BD6FF01500704769B108B5B1
S31500000F1040B101F1100301F10C020831FFF738FF6F
S31500000F20002008BD6FF0040008BD6FF01500704783
S31500000F30A1B188B110B540F22D4C4FF0000E82B031
S31500000F4002236946446901AAADF804E0ADF800C081
S31500000F50A047002002B010BD002070476FF01500BA
S31500000F60704700BFA1B188B110B540F22D4C4FF0CB
S31500000F70000E82B002236A46446901A9ADF800E07A
S31500000F80ADF804C0A047002002B010BD0020704795
S31500000F906FF01500704700BFA1B188B110B540F6DB
S31500000FA02D0C4FF0000E82B002236A46446901A957
S31500000FB0ADF800E0ADF804C0A047002002B010BDB7
S31500000FC0002070476FF01500704700BFA1B188B1CF
S31500000FD010B540F62D0C4FF0000E82B00223694684
S31500000FE0446901AAADF804E0ADF800C0A0470020AE
S31500000FF002B010BD002070476FF01500704700BFAB
S31500001000002862D070B540F6280C002582B0022375
S315000010106946466901AAADF800C0ADF80450044619
S31500001020B04740F62922022369466669ADF80020DA
S31500001030204601AAADF80450B047AF22ADF80050E3
S3150000104002238DF80020694620466669ADF80450F3
S3150000105001AAB04718B99DF8055005F0FB054FF0F9
S315000010602F0C8DF8015000250223694601AAADF820
S315000010700450204666698DF800C0B047AE22ADF830
S315000010800050ADF804508DF8002002236946204632
S31500001090656901AAA847B0B99DF8053023F0040395
S315000010A043F004034FF0000C8DF801302E236946FF
S315000010B08DF8003020460223656901AAADF804C008
S315000010C0A84702B070BD0423ECE7704700287DD026
S315000010D070B54FF0A70C002582B0ADF80050ADF802
S315000010E0045002236946456901AA8DF800C00446EA
S315000010F0A847002866D19DF8053003F00F0343F09A
S31500001100700300254FF0270C694666698DF801309B
S3150000111001AA02238DF800C02046ADF80450B0475E
S3150000112040F62402022369466669ADF8002020468F
S3150000113001AAADF80450B047AF22ADF80050022323
S315000011408DF80020694620466669ADF8045001AA6C
S31500001150B04718B99DF8055005F0EF054FF02F0C74
S315000011608DF8015000250223694601AAADF8045006
S31500001170204666698DF800C0B047AE22ADF8005033
S31500001180ADF804508DF800200223694620466569B3
S3150000119001AAA847C0B99DF8053023F0100343F013
S315000011A010034FF0000C8DF801302E2369468DF8A0
S315000011B0003020460223656901AAADF804C0A8479D
S315000011C002B070BD70239CE71023EAE7704700BFAA
S315000011D0002800F0A38070B54FF0AA0C002582B05D
S315000011E0ADF80050ADF8045002236946456901AADE
S315000011F08DF800C00446A847002840F08B809DF873
S31500001200053003F0F80343F0070300254FF02A0CDE
S3150000121069468DF800C066698DF8013001AA02237F
S315000012202046ADF80450B04740F6215202236946E5
S315000012306669ADF80020204601AAADF80450B04713
S3150000124045F22202022369466669ADF8002020466F
S3150000125001AAADF80450B0474FF2230202236946B3
S315000012606669ADF80020204601AAADF80450B047E3
S3150000127042F21D02022369466669ADF80020204647
S3150000128001AAADF80450B047AF22ADF800500223D2
S315000012908DF80020694620466669ADF8045001AA1B
S315000012A0B04718B99DF8055005F09F054FF02F0C73
S315000012B08DF8015000250223694601AAADF80450B5
S315000012C0204666698DF800C0B047AE22ADF80050E2
S315000012D0ADF804508DF80020022369462046656962
S315000012E001AAA847C0B99DF8053003F09F0343F053
S315000012F060034FF0000C8DF801302E2369468DF8FF
S31500001300003020460223656901AAADF804C0A8474B
S3150000131002B070BD072378E76023EAE7704700BF95
S31500001320F0B5364B04461B6883B0834234D0344B49
S315000013301B68984201D003B0F0BD38B34FF0000CE3
S315000013404FF0B10E6D4601AEADF800C00223324635
S3150000135029464769ADF804C08DF800E0B847002873
S3150000136048D19DF8053023F00B0343F009034FF0F5
S31500001370000C8DF80130312329468DF800303246B5
S31500001380204602236569ADF804C0A8474FF482726F
S315000013901C4B9A8003B0F0BD30B34FF0000C4FF0F9
S315000013A0B10E6D4601AEADF800C0022332462946A5
S315000013B04769ADF804C08DF800E0B847E0B99DF87C
S315000013C0053023F00B0343F009034FF0000C8DF8B2
S315000013D00130312329468DF800303246204602235B
S315000013E06569ADF804C0A8474FF48272064B9A802F
S315000013F003B0F0BD0923BAE70923E6E70805012093
S3150000140004050120AC010020D0010020F0B583B016
S31500001410002800F0AA80564800F080F9002800F065
S315000014209980544800F0C0F9534C2060002800F021
S315000014309180836898470346002840F0938020688F
S31500001440002800F08A808025ADF80030ADF8043021
S315000014508DF8005002236946456901AAA847064649
S3150000146000287AD19DF80530E52B76D125681DB385
S31500001470AD23ADF80000ADF804008DF800306946E4
S31500001480022328466F6901AAB847002860D19DF853
S31500001490053023F0080343F008038DF801300023DC
S315000014A0ADF804302D238DF80030284602236D69EF
S315000014B0694601AAA84725682846FFF731FF206834
S315000014C0002842D0FFF784FE206800283DD0FFF7B1
S315000014D0FDFD2068002838D0FFF792FD2568A5B3EA
S315000014E000244FF0F20CADF800408DF802408DF864
S315000014F000C0ADF804408DF80640032369466F69C5
S3150000150001AA2846B847F422ADF800408DF80240FB
S315000015108DF80020ADF804408DF806400323694697
S3150000152001AA28466F69B847F622ADF800408DF843
S3150000153002408DF80020ADF804408DF806400323E4
S31500001540694628466C6901AAA047304603B0F0BD3B
S315000015500823A2E76FF00506F7E7084B0849186865
S3150000156000F0D2F96FF00406EFE76FF01506ECE72E
S31500001570B80301002C04010008050120746702006D
S315000015803C040100F0B583B0002800F0AA8056485C
S3150000159000F0C4F8002800F09980544800F004F9DF
S315000015A0534C2060002800F09180836898470346DA
S315000015B0002840F093802068002800F08A8080256B
S315000015C0ADF80030ADF804308DF8005002236946BE
S315000015D0456901AAA847064600287AD19DF8053034
S315000015E0E52B76D125681DB3AD23ADF80000ADF827
S315000015F004008DF800306946022328466F6901AA67
S31500001600B847002860D19DF8053023F0080343F061
S3150000161008038DF801300023ADF804302D238DF832
S315000016200030284602236D69694601AAA847256845
S315000016302846FFF775FE2068002842D0FFF7C8FD50
S31500001640206800283DD0FFF741FD2068002838D0EB
S31500001650FFF7D6FC2568A5B300244FF0F20CADF8D1
S3150000166000408DF802408DF800C0ADF804408DF8BA
S315000016700640032369466F6901AA2846B847F42243
S31500001680ADF800408DF802408DF80020ADF804401A
S315000016908DF806400323694601AA28466F69B847B4
S315000016A0F622ADF800408DF802408DF80020ADF826
S315000016B004408DF806400323694628466C6901AA52
S315000016C0A047304603B0F0BD0823A2E76FF0050639
S315000016D0F7E7084B0849186800F016F96FF004069A
S315000016E0EFE76FF01506ECE7980301001C04010014
S315000016F00405012074670200600401000048704779
S31500001700D001002000487047AC010020024B1A6847
S3150000171002B18261186070470C05012038B5074B8D
S315000017201C684CB1054601E0A4692CB12946206825
S3150000173009F039FB0028F7D0204638BD0C050120FA
S3150000174070B50C4A0C4B15681C6828460B4900F00E
S31500001750DBF844B10A4E22683146284600F0D4F838
S31500001760A469002CF7D12846BDE87040054900F071
S31500001770CBB800BF746702000C0501209C04010071
S31500001780B00401001C05010008B5FEF7D1FFBDE855
S315000017900840FFF7D5BF00BF024B1A6802B182614D
S315000017A0186070471005012038B5074B1C684CB10E
S315000017B0054601E0A4692CB12946206809F0F3FA30
S315000017C00028F7D0204638BD1005012070B50C4A18
S315000017D00C4B15681C6828460B4900F095F844B177
S315000017E00A4E22683146284600F08EF8A469002C7D
S315000017F0F7D12846BDE87040054900F085B800BF1E
S315000018007467020010050120B8040100B00401004D
S315000018101C05010008B5FFF747FABDE80840FFF7C9
S31500001820D5BF00BF024B1A6802B1C261186070478B
S315000018301405012038B5074B1C684CB1054601E07C
S31500001840E4692CB12946206809F0ADFA0028F7D0E2
S31500001850204638BD1405012070B50C4A0C4B15689E
S315000018601C6828460B4900F04FF844B10A4E22681E
S315000018703146284600F048F8E469002CF7D128469E
S31500001880BDE87040054900F03FB800BF746702002C
S3150000189014050120D0040100B00401001C0501005C
S315000018A008B5FFF75FFAFFF70FF8BDE80840FFF746
S315000018B0D3BF00BF024BD3E9011218681268104764
S315000018C0F0650200024BD3E901121868126810474E
S315000018D030660200024BD3E90112186812681047FD
S315000018E034670200024BD3E90112186812681047E8
S315000018F0746702000379022B02D10122014B1A7090
S31500001900704700BF220501200EB42DE9F047ADF265
S315000019100C4D0DF22C4252F8041B0DF10808054639
S315000019204046019209F07CF998F900303BB31D4A14
S315000019300024D2F80090DFF878A01B4E1B4F08E079
S31500001940DAF800309D4220D00134E4B218F90430B0
S31500001950ABB14D458DF80330F2D1012228460DF189
S31500001960030104F06DFB3B78002BFCD0002301340F
S31500001970E4B233703B7018F90430002BE9D10DF254
S315000019800C4DBDE8F04703B07047012228460DF123
S31500001990030104F055FB3378002BFCD00023337091
S315000019A03370D1E774670200230501202205012068
S315000019B030660200034B187801280ABF0022002077
S315000019C01A7070471905012010B41C4A1378013BA0
S315000019D0042B04D8DFE803F0121A212D0800012396
S315000019E013705DF8044B70475528F8D10123002485
S315000019F013481449137004700B70F2E7FF28F0D1F6
S31500001A00022000210E4B10701970EAE7AA28E6D1D1
S31500001A10032313705DF8044B704709490A4C0B7891
S31500001A20E0540133DBB2052B0B70F1D9042313709C
S31500001A30D7E7FE28D3D105231370D2E7F40100209F
S31500001A4018050120190501201C0501200379022B28
S31500001A5005D0042B00D07047007AFFF7B5BF0122EE
S31500001A60014B1A70704700BF23050120002070B596
S31500001A70064B074C15462070986806461868B368EA
S31500001A8098472378002BFCD0284670BD30660200AC
S31500001A90230501204FF0FF30704700BF4FF0FF30A5
S31500001AA0704700BF4FF0FF30704700BF4FF0FF3068
S31500001AB0704700BF0120704708B50649064803F085
S31500001AC097FE00B908BD1921044B054A054806F0E2
S31500001AD007FC00BF08020020E09D0120680301000A
S31500001AE0640E0100E80401000388202B03D10122C3
S31500001AF0104B1A600388022B18D0012B03D1002249
S31500001B000D4B1A707047802B03D101220B4B1A60C4
S31500001B100388B3F5807F03D10222084B1A6003883D
S31500001B20402B02D10222034B1A6070470122024B5E
S31500001B301A70704740050120380501203C05012038
S31500001B4030B593B024220021684609F017F93222F5
S31500001B500F231B2002217E24CDE901230522164BEB
S31500001B60CDE903010594D3E900412046069204F02D
S31500001B7049FF204604F08CFF204609A904F08EFF99
S31500001B800E4B1D680E9B7D2B11DC6946204605F029
S31500001B907FF828460A49FFF7B7FE0E21204605F0D2
S31500001BA01DF928460749FFF7AFFE13B030BD28469A
S31500001BB00549FFF7A9FEF0E72068020074670200F6
S31500001BC0F804010048050100200501000378022BF6
S31500001BD000D07047024B0349186804F05FBF00BF8E
S31500001BE020680200440501200379022B14D0042B3F
S31500001BF000D070470D4B1A88B2F5007F10D210B492
S31500001C000B4C8068511CA05401200A4A89B21980E5
S31500001C1010705DF8044B70470122074B1A7070472D
S31500001C2000210120034A1980107070476A050120BF
S31500001C306C0501206C070120680501204FF4007235
S31500001C4008B50021034809F099F80022024B1A80D2
S31500001C5008BD00BF6C0501206A0501202DE9F0478B
S31500001C604FF4007207460E461F48002109F086F819
S31500001C700023DFF884A01D4D1D4C3846AAF800301D
S31500001C802B70237009F01EF939460246194804F0F4
S31500001C90D7F9237803F0FF09002BFAD0C8240027D0
S31500001CA0DFF8448008E04FF47A710A2006F020FB42
S31500001CB0631E13F0FF0413D02B78012BF3D13146AA
S31500001CC040462F7009F06FF80028ECD04FF000095D
S31500001CD04FF400720021044809F050F8AAF8007089
S31500001CE04846BDE8F08700BF6C0501206C0701205F
S31500001CF068050120509D01206A0501202DE9F04765
S31500001D004FF4007207460E461F48002109F036F8C8
S31500001D100023DFF884A01D4D1D4C3846AAF800307C
S31500001D202B70237009F0CEF839460246194804F0A4
S31500001D3087F9237803F0FF09002BFAD0E82400275F
S31500001D40DFF8448008E04FF47A71142006F0D0FAE8
S31500001D50631E13F0FF0413D02B78012BF3D1314609
S31500001D6040462F7009F01FF80028ECD04FF000090C
S31500001D704FF400720021044809F000F8AAF8007038
S31500001D804846BDE8F08700BF6C0501206C070120BE
S31500001D9068050120509D01206A050120F0B54FF429
S31500001DA0007289B00D4607460021124808F0E6FF8A
S31500001DB00022114B11491A8068462A4608F0B6FEE1
S31500001DC068460F49FFF74AFF08B109B0F0BD04465F
S31500001DD04FF47A7114200B4E06F08AFA2A463946D9
S31500001DE00948347004F02CF93378002BFCD009B084
S31500001DF0F0BD00BF6C0501206A05012058050100F1
S31500001E006805010068050120509D012070B54FF45A
S31500001E10007200214F4808F0B1FF00224E494F4B97
S31500001E200C684F4920461A804E4EFFF76DFD4E4D09
S31500001E3005E04FF47A714FF4FA7006F059FA31461C
S31500001E402846FFF70BFF0028F3D120464749FFF746
S31500001E505BFD444E464D05E04FF47A714FF4FA703F
S31500001E6006F046FA31462846FFF7F8FE0028F3D179
S31500001E7020464049FFF748FD3A4E3F4D05E04FF4F6
S31500001E807A714FF4FA7006F033FA31462846FFF7B6
S31500001E90E5FE0028F3D120463849FFF735FD314EDF
S31500001EA0374D05E04FF47A714FF4FA7006F020FAD8
S31500001EB031462846FFF7D2FE0028F3D120463149A5
S31500001EC0FFF722FD274E304D05E04FF47A714FF4AF
S31500001ED0FA7006F00DFA31462846FFF7BFFE0028D5
S31500001EE0F3D120462949FFF70FFD1E4E284D04E089
S31500001EF04FF47A71084606F0FBF931462846FFF79B
S31500001F00FDFE0028F4D120462249FFF7FDFC154EC0
S31500001F10214D05E04FF47A714FF4FA7006F0E8F9B6
S31500001F2031462846FFF79AFE0028F3D120461B4982
S31500001F30FFF7EAFC0B491A48FFF790FE20461949BD
S31500001F40FFF7E2FCBDE870404FF47A714FF4FA7087
S31500001F5006F0CEB96C050120746702006A050120FF
S31500001F606C05010068050100780501008005010087
S31500001F7098050100A4050100B0050100C005010097
S31500001F80CC050100E4050100000601000C06010075
S31500001F902806010034060100580601006806010003
S31500001FA07C0601008C060100012894BF0020012058
S31500001FB0704700BF60B3012801D00120704730B5DB
S31500001FC083B0FFF779FD134801A903F037FA9DF8AE
S31500001FD006308BB9104C23785BB9104D284608F0B3
S31500001FE09DFD4FF47A71084606F082F92378002B9E
S31500001FF0F4D00B4808F092FD4FF47A71012006F0F8
S3150000200077F90849034803F0C9FC002003B030BD46
S3150000201000207047E09D012038050120A006010040
S31500002020B00601002405012078B101280BD108B5BE
S31500002030074803F0A5FB074A1368002BFCD00023D2
S315000020401360002008BD042070470020704700BFC1
S31500002050E09D01204005012078B101280BD108B58B
S31500002060074803F0C5FA074A1368002BFCD0002383
S315000020701360002008BD042070470020704700BF91
S31500002080E09D01204005012068B1012809D10229FF
S315000020901FD0032912D001290ED1104B9B68136063
S315000020A00AE00420704702290FD003290AD001292B
S315000020B002D14FF48063136000207047074B1B6901
S315000020C01360F9E701231360F6E74FF4805313809A
S315000020D0F2E7024BDB681380EEE700BF2405012020
S315000020E08446006898B1024601E03A2B06D012F900
S315000020F0013BD9B21F29F8D80020704790F900108B
S315000021003039CBB2092B02D8831C9A4202D04FF049
S31500002110FF30704701290846F9DCCCF800207047EB
S3150000212038B50D4640B1036804462BB11A781AB18A
S315000021308188DA88914203D0092000232B6038BDBC
S315000021405878FFF731FF10F00100F5D12368F5E765
S3150000215003790BB90020704770B500F138050446C5
S31500002160426B012329464078FFF776FF40B9666B3C
S31500002170A36A226AF31A9342207103D3002070BD2A
S31500002180012070BDE378022BF8D10123294660783F
S315000021903244FFF761FFF1E7F8B505460C46FFF755
S315000021A0D7FF40BBEB69A11E023B99422EBF0646F4
S315000021B06B892E6B05F1380738BF01FB03664FF4B8
S315000021C08052002138466E6308F0D8FD6B891C46A4
S315000021D06BB1002402E001349C4208D20123394647
S315000021E06878A219FFF738FF6B890028F3D0E01A48
S315000021F018BF0120F8BD0120F8BD00BF70B50379F6
S3150000220004465BB92378032B23D00022607811465D
S31500002210FFF73AFF003818BF012070BD00F13805FE
S31500002220426B012329464078FFF716FF002835D177
S31500002230666BA36A226AF31A93422071E2D2E378AC
S31500002240022BDFD10123294660783244FFF704FFD1
S31500002250D8E76579012DD8D104F138064FF48052BC
S315000022600021304608F08AFD4AF655200C4AA4F8AB
S315000022703602A263D4E90520C4F82422626A094B17
S315000022800132C4F81C32C4F820022B46314660786D
S315000022906263FFF7E1FE00236371B6E7012070BDBC
S315000022A05252614172724161426B8A4201D10020F1
S315000022B0704770B5044603790D46407804F1380638
S315000022C063B92A4601233146FFF7AEFE002818BF40
S315000022D04FF0FF35656318BF012070BD01233146FD
S315000022E0FFF7BAFE88B9616BA36A226ACB1A9342DA
S315000022F020716078E5D2E378022BE2D10A4401230B
S315000023003146FFF7A9FE6078DBE7012070BD00BF0C
S315000023102DE9F84303780446022B0D4616465CD099
S31500002320032B40D0012B73D1838901EB5107B7FBF7
S31500002330F3F3816A1944FFF7B7FF90BBA38915F041
S315000023400105B7FBF3F207F1010804F1380903FBB5
S315000023501277F3B206D019F8072002F00F0242EA0C
S315000023600313DBB209F80730A3890122B8FBF3F3A4
S31500002370A16A204622711944FFF796FF88B9A389FE
S31500002380B8FBF3F203FB1288002D44D119F808308C
S31500002390C6F3032223F00F03134309F80830012381
S315000023A02371BDE8F88383899B08B1FBF3F3816A47
S315000023B01944FFF779FF0028F3D1A389AD00B5FBD7
S315000023C0F3F7012103FB175504F13802535966F35D
S315000023D01B0353512171BDE8F88383895B08B1FB68
S315000023E0F3F3816A1944FFF75FFF0028D9D1A28968
S315000023F06D00B5FBF2F7012102FB175504F1380316
S315000024005E55C6F307222B445A702171BDE8F88346
S315000024100220BDE8F883C6F30713BEE701291BD9DE
S31500002420F8B5C3690C469942054613D20378022BC8
S3150000243029D0032B12D0012B0CD1838901EB510635
S31500002440B6FBF3F3816A1944FFF72EFF70B34FF022
S31500002450FF30F8BD0120F8BD012070478389816AED
S315000024609B08B4FBF3F31944FFF71EFF0028EED1D7
S31500002470AB89A400B4FBF3F203FB12442544A86B1A
S3150000248020F07040F8BD8389816A5B08B4FBF3F3E2
S315000024901944FFF709FF0028D9D1AB896400B4FBC2
S315000024A0F3F203FB12442C44208FF8BDA989771C54
S315000024B0B6FBF1F301FB1366B7FBF1F1AB6A2E44F1
S315000024C02846194496F83860FFF7EEFE0028BED17C
S315000024D0AB89B7FBF3F203FB12772F4497F838303A
S315000024E046EA0320E3074CBF0009C0F30B00F8BD22
S315000024F0F8B501290E46056828D9EB698B4225D91E
S315000025000746114622BB284614E0002231462846DB
S31500002510FFF7FEFED8B9D5E90632911E8B4205D2E9
S315000025206979013341F00101AB616971A2421BD99E
S31500002530264638683146FFF771FF0446A0B10128E8
S3150000254004D0431C12D0EB699E42DED30220F8BDB4
S31500002550012AFBD09342F9D94FF0FF322846FFF704
S31500002560D7FE0028E5D0F8BD0020F8BD0120F8BD53
S315000025702DE9F04106468846076849BBD7E905526A
S31500002580EDB90AB30125FB692C4606E0012812D0F5
S31500002590013047D0AC4217D0FB6901349C4202D3CC
S315000025A0012D11D0022421463068FFF737FF00289D
S315000025B0ECD1012C52D801242046BDE8F081FB69FC
S315000025C0AB42DED9002ADFD100242046BDE8F081E7
S315000025D03846FFF723FF01280446ECD9421C21D0D8
S315000025E0FB698342F1D8BA69002AEDD008F10104EB
S315000025F0A34298BF022430682146FFF70FFF012847
S31500002600D9D0431C0ED0FB691A4600BB44B3A24284
S31500002610D1D94FF0FF3221463846FFF779FE30B167
S315000026200128C8D14FF0FF342046BDE8F081B8F14B
S31500002630000F17D1D7E90623023B9A427C6101D8E5
S31500002640013ABA617B7943F001037B71BDE77D698D
S31500002650012D05D99D4228BF454695E7FA69D6E77B
S31500002660454691E7B8F1010FA5D0FB699845A2D27E
S31500002670224641463846FFF74BFE0028D0D1D9E71F
S315000026802DE9F843046905462034B4F5001F0668B1
S3150000269004D30023AB610420BDE8F8838269002AD5
S315000026A0F9D0B089B4FBF0F300FB1343002B39D10A
S315000026B00F4669690132AA6100293FD0B289738940
S315000026C0B4FBF2F2013B12EA03082BD13046FFF7C6
S315000026D0A5FE0128814638D9B0F1FF3F33D0F36912
S315000026E0834211D8002FD4D028466969FFF740FFEE
S315000026F0814660B3012828D0B0F1FF3F23D00146C0
S315000027003046FFF749FDF0B9C5F81490F369A9F111
S315000027100209023B994503D27389326B09FB0328F0
S31500002720C5F818802C61B3893836B4FBF3F203FB85
S3150000273012442644EE610020BDE8F8833389B3EBEA
S31500002740541FEFD8A5E70120A6E70220A4E707203B
S31500002750A2E700BFF8B5B1F5001F076822D2CA0686
S315000027600D461FD1816806460561E9B17C89BB89A2
S3150000277003FB04F4A54238D3384607E0012811D9F3
S31500002780FB6983420ED9AC4230D83068FFF746FE6B
S31500002790431C0146A5EB0405F0D10120F8BD00233A
S315000027A0C6E905130220F8BD3B78022B18D83B89F1
S315000027B0B3EB551FF6D9FA6AC6E90512002AF1D01D
S315000027C0BB8907F13804B5FBF3F31344B361BB8946
S315000027D00020B5FBF3F203FB12512144F161F8BD71
S315000027E0FB6A002BE3D01946C0E7FB69023B881E53
S315000027F09842D4D27B893A6B00FB0322DCE700BF08
S315000028002DE9F04F002187B005460668FFF7A2FFC5
S315000028100446002836D14FF0FF0B4FF0FF37D8465D
S3150000282005F1200AEF620AE00F282FD04FF0FF08CB
S31500002830EF6200212846FFF723FF044610BB30460F
S31500002840A969FFF731FD0446E0B9EA691178002964
S3150000285047D0D37AE52903F03F00A871E6D01B07DD
S31500002860E2D40F2812D0B8F1000F21D095F82B40F2
S3150000287014F00104DAD1104651460B2208F06EFA24
S315000028800028D3D1204607B0BDE8F08F95F82B304D
S315000028905C06CED448061FD52B6992F80DB001F020
S315000028A0BF01EB62537B5B4520D04FF0FF08C0E7CA
S315000028B01146434602F10B0411F8010B4FEAC31807
S315000028C048EA530850FA88F8A1425FFA88F3F3D130
S315000028D09B45CBD10024D5E78845E3D04FF0FF08D0
S315000028E0A7E70424204607B0BDE8F08F538B002BE2
S315000028F0DBD11478DFF8908004F03F04013C04EB50
S31500002900440304EB83043369CDE900B60295012044
S315000029101E461546059308F10D090491CDF80CA045
S3150000292010E0FF2C18D8504601F054FC834636F8C8
S31500002930140001F04FFC834504F101040CD150460C
S31500002940C1450ED018F8013B35F803A00028E8D1A0
S315000029504FF6FF739A45F3D0DDE900B6DDE9025A7A
S31500002960A3E72A46DDE900B6DDE9025A13780499A1
S315000029705B0605D520B1059B33F81430002B94D1A6
S3150000298001395FFA81F854E7A00E01002DE9F04FF6
S315000029908046036887B001930C4611F9013B2F2B43
S315000029A0FAD05C2BF8D00021C8F8081094F9003052
S315000029B0DAB21F2A40F292814146019ADFF864B3E7
S315000029C0DFF864A3DFF86493884600201946166989
S315000029D017E08FB21F2F1C46054657D92F2F6FD0F1
S315000029E05C2F6DD07F2F05D85846394608F0CEF9B2
S315000029F0002859D1FE2D57D826F8157094F90010E5
S31500002A00681C002904F10103E3DA21F01F024032B9
S31500002A104ED021F00F0220324ED021F007021032A4
S31500002A2042D1032501F00702013525441C4601E089
S31500002A30A5420AD014F9013B23F03F01803103F08F
S31500002A403F0343EA8212F3D02EE0B449A2F1800399
S31500002A508B4229D8A2F55843B3F5006F24D3B2F5BB
S31500002A60803F02D2054697B2C4E7A2F580310AEA52
S31500002A708111C2F30902114341EA09018FB20B0C1D
S31500002A801F2F00F1010526F81030A7D8414604276C
S31500002A904DB106EB450232F8023D202B01D02E2B1C
S31500002AA020D1013DF7D13580062007B0BDE8F08F73
S31500002AB0012501F01F02B7E7022501F00F02B3E777
S31500002AC04146224692F9003014462F2B02F10102AC
S31500002AD0F8D05C2BF6D0DFB21F2F8CBF0027012762
S31500002AE0BF00D5E7002226F81520338806EB4500FF
S31500002AF0202B40F0A980B31C9C4633F802EB90468D
S31500002B00BEF1200F02F10102F6D008F1020847F0EB
S31500002B10030701E0013D03D030F8023D2E2BF9D129
S31500002B204FF020334B620B62C1F82730BCF800200F
S31500002B30002A00F009814FF0000C08230846009394
S31500002B401146029463466446024620294CD02E293B
S31500002B5053D00098A04260D800990B2952D0A845BE
S31500002B607BD047F0030778D99C4692F8203011466F
S31500002B70E52B04BF052382F82030009B029C082B1E
S31500002B8072D00CF00C030C2B03D00CF00303032BB8
S31500002B9072D147F00207084681F82B700091FFF7C3
S31500002BA02FFE009991F82B30002840F0C1805A077B
S31500002BB03FF57BAF8B79DB0640F1C280019D0A6948
S31500002BC0A88905F13803B2FBF0F600FB16222D7832
S31500002BD01344032D5A8B04BF9B8A42EA03428A6040
S31500002BE094F900300A68EFE647F0030736F8181044
S31500002BF008F101080029A8D1B6E7A845F4D1009943
S31500002C000B292AD19C4692F820301146E52B029CCE
S31500002C1000F09C8047F00307B3E7A8451BD07F2947
S31500002C203AD83F48CDE90432039108F0AFF8DDE920
S31500002C300313059A00285AD05F2147F0030710199D
S31500002C4080F820100134D1E72E2BB4464FF001084E
S31500002C507FF462AF5BE70B28D4D00B219B00A8461C
S31500002C600824DBB20091C1E74FEA8C0C0CF00C0390
S31500002C700C2B5FFA8CFC8CD007F00203002B8AD158
S31500002C804CF3000303F010031F431CF0040F1CBF9A
S31500002C9047F00807FFB27EE7CDE90432084647F061
S31500002CA00203039301F096FA4FF46A7101F068FA91
S31500002CB0DDE90432FF2801460CD900980138A0420C
S31500002CC028D910194FEA112C039F013480F820C02F
S31500002CD0C9B2B4E7039F0028AED0A2E780234046DE
S31500002CE088F82B3007B0BDE8F04FFFF733BDA1F1F0
S31500002CF0410080B2192803D843F00203C9B29EE707
S31500002D00A1F1610080B219289CBF203943F001036C
S31500002D10C9B294E7009C47F0030767E77FFF1000FE
S31500002D20D8060100CC0601000000FF0300DC00D835
S31500002D3004287FF4BAAE13F0040F08BF0520B4E6EA
S31500002D40052007B0BDE8F08F944695E7052382F885
S31500002D5020305FE790F82BC01CF0A00140F01981ED
S31500002D602DE9F04FD0F800B00746DBF8103089B0F7
S31500002D701A88002A00F07D818A4633F8022F0AF16C
S31500002D80010A002AF9D10DF1140907F120051CF0FA
S31500002D90010F95E8070089E8070055D11CF0020FDE
S31500002DA05E4600F0E080B54B002138460AF10C087B
S31500002DB0A3FB0838FFF7CEFC4FEA9808034608F154
S31500002DC00108002840F0D980044608E09BB104467B
S31500002DD001213846FFF754FC002840F0D4803046E5
S31500002DE0B969FFF761FA0134002840F0CC80FB692D
S31500002DF01B78E52BEAD1A045EAD1B8F1010300938F
S31500002E0040F0CA805846B969FFF74EFA0346B8B98A
S31500002E100124014620220090F86907F0AFFF03CD98
S31500002E20FA69009B10605160A97828889172108118
S31500002E3097F82B20F96902F018020A738BF8044000
S31500002E40184609B0BDE8F08F40234FF001088C4CBE
S31500002E5087F82B3007F12706CDF800C0AC4699E875
S31500002E600700DBF81030ACE80300B8F1050F2CF8CA
S31500002E70022B4FEA12428CF800204CD91A88002AFD
S31500002E8049D09C464346102102F0010000EB430363
S31500002E90D80348BF634001394FEA5202F4D13CF8E7
S31500002EA0022F002AEFD1CC46072203E0BEF10F0F16
S31500002EB033D90A4603F00F0000F13001392988BFE3
S31500002EC000F137010CF8011D511E9E464FEA1313FF
S31500002ED0ECD17E220B468DF80C201F333B4407298C
S31500002EE001F120026A448EBF202212F8142C01310F
S31500002EF003F8012FB342F2D13846FFF781FC0346AF
S31500002F0028BB08F10108B8F1640FA7D107231846BA
S31500002F1009B0BDE8F08F4346C5E77E2001F12003E6
S31500002F206B4403F8140C023A002307E07D2802D80C
S31500002F309A42D2D0013301339942CED915F803C053
S31500002F400CF17F00BCF1200FC0B2EFD1C5E7042819
S31500002F50DDF800C07FF474AF1CF0020F3E6887F8FE
S31500002F602BC07FF420AF00213846FFF7F3FB4FF06C
S31500002F700108034600283FF427AF0428C6D01846A8
S31500002F8009B0BDE8F08F042803467FF459AF072344
S31500002F90BDE7062318467047009B39693846A1EB02
S31500002FA04311FFF7D7FB034600287FF449AF2946B4
S31500002FB01A4607F12B00D30143EA520311F8012BFD
S31500002FC052FA83F38142DAB2F5D14FF6FF7A16460A
S31500002FD0A9465846B969FFF767F90546024600282B
S31500002FE049D1FC69DBF810802B4665830F259DF8D7
S31500002FF000C024490CF1FF3202EB420E02EB8E02B6
S3150000300001206673A4F80B5001F10C0ECDF804B044
S315000030100EE038F8123001324FEA132B235485F8AC
S3150000302001B00BB94FF6FF738E4508D011F8010FAA
S31500003030534504EB0005ECD18E452352F6D153459A
S31500003040DDF804B002D038F812300BB94CF0400C61
S31500003050012384F800C0002138468BF80430FFF7BE
S315000030600FFB024638B9009B013B0093B1D14D4698
S31500003070C8E6924687E61346E2E600BF4FECC44E2A
S3150000308021100100A00E010070B54FF0FF3600239D
S31500003090B1420446037146635BD194F83830B4F804
S315000030A03652EB2B0AD01833DBB2012B06D94AF67F
S315000030B0552085420CBF0220032070BD4AF65523D9
S315000030C09D4211D0B4F843305A1E1A420AD1A3F5D4
S315000030D00073B3F5606F05D894F8453013B15A1EE6
S315000030E01A4219D0032070BD0822214904F18A0032
S315000030F007F034FE0028E0D0B4F843305A1E1A42D6
S3150000310025D1A3F50073B3F5606F20D894F8453048
S31500003110EBB15A1E1A421AD1B4F84630002BC6D06B
S3150000312094F84830013B012BC1D8B4F84930002B44
S31500003130BDD0B4F84B307F2B03D8A36DB3F5803FD9
S31500003140B5D3B4F84E30002BB1D0002070BD0220AC
S3150000315070BD0D460A460123407804F13801FEF79A
S3150000316063FF10B16663042070BD656395E700BF19
S31500003170E006010000232DE9F0410B6084B00E4605
S315000031801546FEF7ADFF0028C0F2B080904B53F80D
S315000031902040002C00F0B2803460237805F0FE0554
S315000031A053B16078FEF700FFC60705D415B1410795
S315000031B000F1A080002092E0002360782370FEF7E3
S315000031C0F9FEC20700F18E8015B1430700F1928027
S315000031D00221607804F10C02FEF756FF00287DD12B
S315000031E0A389A3F50072B2F5606F77D8591E19400E
S315000031F074D12046FFF748FF022800F08380042898
S315000032006CD001287CD8A089B4F84330616B834226
S3150000321076D1B4F84E2002B9E26D94F848302262B5
S315000032205D1E012DE3706BD894F845506581002D25
S3150000323066D06E1E2E4263D1B4F849E04609BEFB45
S31500003240F6FC06FB1CE6B6B2A4F808E0002E57D141
S31500003250B4F84B7007B9A76DB4F84680B8F1000F03
S315000032604ED002FB03F30CEB08061E44B74247D3CD
S31500003270BF1BAF42B7FBF5FC42D3564DAC453FD81A
S3150000328008EB01054FF6F578C4450E440CF102072C
S3150000329060D840F6F578C44561622663E761A562A9
S315000032A04CD9BEF1000F2BD002212B447F00E362E4
S315000032B0431E3B44B3FBF0F3934221D84FF0FF3358
S315000032C08022C4E905336271434A217013880133B1
S315000032D09BB21380E3806DE7042811D1012004B06E
S315000032E0BDE8F081032004B0BDE8F0810B2004B0F6
S315000032F0BDE8F0810A2004B0BDE8F0810C20EEE7BD
S315000033000D20ECE7D4F80E02D4F81E22D4F82E32A3
S31500003310D4F8FE116D46CDE90223019004AE00916A
S3150000332002E00320B542D7D055F8041B0029F8D097
S315000033302046FFF7A9FE0128F4D864E7BEF1000F86
S31500003340DED007EB470107F0010707EB51072B44D7
S315000033500121ACE7B4F86230A5625EEA0303266396
S31500003360E7616162CCD1431E03EB8703B3FBF0F345
S31500003370606E9A42E062C3D34FF0FF338020B4F808
S315000033806820C4E90533012A607101D003219BE757
S3150000339020460131FEF788FF0028F7D14AF655226C
S315000033A0B4F8361260719142F0D1A26B0B4B9A427F
S315000033B0ECD103F1FF53D4F81C2203F5005320335C
S315000033C09A4204BFD4E98823C4E90532DEE700BF88
S315000033D070070120F5FFFF0F6E0701205252614171
S315000033E010B584B0019003A8144600910391FEF72E
S315000033F077FE002819DB0E4A52F820301BB1002157
S3150000340042F820101970019B23B10021587042F830
S315000034102030197014B9204604B010BD0022684649
S3150000342001A9FFF7A7FE04B010BD0B2004B010BD24
S31500003430700701202DE9F047ADF5107D01910028B8
S3150000344000F0828002F03F070446164603A93A467A
S3150000345001A8FFF78FFE054630B1002323602846FA
S315000034600DF5107DBDE8F087DDF80C8010AB0199F5
S31500003470C8F8103004A8CDF81080FFF787FA80B995
S315000034809DF93B30002B65DB16F01C0F9DF81630BE
S315000034900ED013F0110F5FD1700740F18D80082513
S315000034A0DBE716F01C0F01D0042859D00546D4E7F7
S315000034B0DA0653D4B00701D5D9074DD40021D8F880
S315000034C034200B9B04F1280AC4E9082398F800204D
S315000034D05E8B032A08BF9A8A504608BF46EA024610
S315000034E0A660D3F81C90C4F80080C4F80C90B8F815
S315000034F006304FF48052A38027746174E1616161E4
S3150000350007F03CFCBA06AAD5B9F1000FA7D0C4F85B
S315000035101490B8F80A70B8F80C3003FB07F74F455B
S3150000352063D2404605E0431C00F084804F455CD2E0
S3150000353020683146FEF772FF01280646A9EB070907
S31500003540F1D8A061022588E7092528460DF5107DEA
S31500003550BDE8F087062580E707257EE704257CE79A
S3150000356004A8FFF7F7FB0028A0D10B9B47F008073C
S31500003570314AC3F80E200B9BC3F8162098F800209A
S315000035800B9B032A08BF9A8A5E8B08BF46EA02464F
S315000035902022DA7200220B9B5A8398F80010032926
S315000035A008BF9A82002201230B99CA6188F8043069
S315000035B03EB947F0400781E731070B9B7FF57EAFA9
S315000035C0D6E7314604A8D8F83490FEF791FF0028D4
S315000035D07FF46CAF49464046FEF766FE013EC8F8EA
S315000035E014600028E5D0054637E7A661B8F80C3028
S315000035F0B9FBF3F203FB1293002B3FF430AFD8F87C
S315000036001C30023E023B9E429CD2B8F80A10D8F803
S31500003610303006FB0133002B94D01A44E261514648
S31500003620012398F80100FEF7FFFC00283FF417AFCE
S31500003630012512E7A061FBE7000021542DE9F04FB8
S31500003640002585B089461D6003A99846044617469D
S31500003650FEF766FD0646002860D1667C002E5DD129
S31500003660227C910740F1BD806369FB4228BFDF439E
S31500003670002F77D0DDF80CA0BAF80C50B3FBF5F2AA
S3150000368005FB123000284DD1BAF80A50013D15400D
S315000036900FD1002B40F09D80A068002800F08A80A2
S315000036A0012838D0431C00F08D80A368A061002B50
S315000036B06DD094F91030002B6EDBA369DAF81C206C
S315000036C0023B023A934226D2BAF80A10DAF83020C0
S315000036D001FB0322FAB1BAF80CB02A44BB4545D81F
S315000036E0B7FBFBFB05EB0B038B4288BFA1EB050B7E
S315000036F05B4649469AF801000192FEF7ADFC0028A8
S3150000370060D1E169019A891A59457BD3BAF80C5000
S315000037100BFB05F515E002231E466374304605B023
S31500003720BDE8F08F04F1280B2D1ABD4228BF3D4697
S3150000373049462A46584407F0B8FB237C63F07F03CA
S315000037402374D8F80030A9442B44C8F800306369C4
S31500003750E2682B449A4238BF1A467F1B6361E260D7
S315000037608AD1227C42F040022274D7E7E36960697D
S31500003770934238D0E36804F1280B834236D8E261DD
S31500003780BAF80C50B0FBF5F305FB1300CCE794F93F
S315000037901030A060002B90DA0123E2699AF801004C
S315000037A004F12801FEF758FC60B9237C03F07F037F
S315000037B0237482E729462046FEF7DAFE00287FF4C6
S315000037C06FAFCEE701231E463046637405B0BDE8F1
S315000037D0F08F2046A169FEF7CBFE00287FF460AF8C
S315000037E0BFE707269AE704F1280BC8E701235946E5
S315000037F09AF801000192FEF717FC0028E2D16069F1
S31500003800019ABCE7BAF80C2004F1280002FB0191EA
S3150000381007F04BFB237C03F07F03237476E700BF9E
S3150000382000283CD038B5036804462BB11A781AB183
S315000038308188DA88914201D0092038BD5878FEF790
S31500003840B3FBC207F8D4237C13F04000F5D01B0667
S31500003850256826D42846216AFEF726FD0028ECD1E5
S31500003860636ADA7A42F02002DA72A2682168C2F349
S3150000387007209A76D876097803291FD000210122DD
S31500003880E06859821149D861C3F8161028462A7192
S31500003890FEF7B4FC237C23F04003237438BD0920D3
S315000038A070470123E269687804F12801FEF7D4FB2A
S315000038B048B9237C03F07F032374CBE7120C110A6B
S315000038C01A755975DAE7012038BD00BF000021548A
S315000038D010B582B00446FFF7A3FF08B102B010BDD1
S315000038E0204601A9FEF71CFC0028F7D1206002B093
S315000038F010BD00BF2DE9F04F97B00F900FA8884676
S3150000390015461E46FEF7ECFB0028C0F22081B84B98
S3150000391053F820300BB100221A70C4B22046FEF7CD
S3150000392049FBC20700F10F81430700F11481B8F18A
S31500003930000F00F0FD80D8F804301193002B00F042
S31500003940FB805A1EB2F5004F80F0E5801A4240F027
S31500003950E280022120460DF14202FEF795FB002887
S3150000396040F0E480BDF84270A7F50073B3F5606FD0
S3150000397000F2DC807B1E3B4240F0D88098F80120A4
S31500003980D8F808A0531E012B88BF0123069284BFD6
S31500003990009306930AF1FF3398BF0092B3F5004FE8
S315000039A080F0DD807A09BAFBF2F302FB13A3002B49
S315000039B018BF4FF4007AD8F80C30B3F1807F03D8E3
S315000039C05A1E1A4200F0D0804FF00009BE42C0F0E5
S315000039D0C980002D00F0C68000230121204612AACE
S315000039E098F800B01293FEF74FFB002840F09E8037
S315000039F01BF00802129B0E9200F0B98002907F2BFA
S31500003A0040F28780B9F1800FC84628BF4FF0800882
S31500003A101BF002010BF001020D9140F0DD81002A3E
S31500003A2000F01882BDF84210119A079101394FEA49
S31500003A304A100B91511E5242CDF804800C900A9107
S31500003A400992019A002A00F0E881DDF80480B3FBB0
S31500003A50F8F240F6F5718A4240F2B681022102324E
S31500003A60520003910B990C980A440799B2FBF1F2A4
S31500003A70B0FBF1F1029805910130014408900098DD
S31500003A8000FB02110A9800EB010C09980CEA000CE5
S31500003A900098ACEB010CBCFBF0FE00FB1EC9B9F1B3
S31500003AA0000F00F08E814FF0020B0CF1FF3CBCFBC7
S31500003AB0F0FE02985844089072440492029A891AB9
S31500003AC001EB0811994224D8059A00990BEB0209DB
S31500003AD0049AA3EB090901FB1299039AB9FBF8F9B9
S31500003AE0032A00F09B80039A022A40F02F834FF6A8
S31500003AF0F572914540F28480019A002A40F0868151
S31500003B004FEA4801402901919BD90D9AB2BB802901
S31500003B109BD90E2018E00123022120460DF1420216
S31500003B201193FEF7B1FA00283FF41CAF01200BE019
S31500003B30CDF84480DFF8C0800321204611AAFEF7A5
S31500003B40A3FA119BFDE6032017B0BDE8F08F0B200A
S31500003B5017B0BDE8F08F0A2017B0BDE8F08F4FF41C
S31500003B60007A28E71120EFE7B3FBF7F92EE73F2BA2
S31500003B70CFD93F223F3B1293029240E74FF0010814
S31500003B801C4A4046590C06E032F8020F4FEA480834
S31500003B90002800F061818842F6D900220192B3FB29
S31500003BA0F8F20B98911C00EB81010798DFF84CC0E6
S31500003BB0B1FBF0F1A2F57F42F63A62450491A8D82E
S31500003BC0029A00980499203200FB012100200590FA
S31500003BD0032003900A9801EB000B09980BEA000BEF
S31500003BE0ABEB010B5A4408920BF1200B66E700BFC2
S31500003BF070070120800E0100900E0100FFFFFE0FEE
S31500003C0040F6F57291450ED8019A002A81D14FEA05
S31500003C104802802A01927FF614AF7AE74FF6F572D2
S31500003C20914540F20A810021079A2846019307F040
S31500003C30A5F80699079B29740399180A03294FF0DA
S31500003C40000163F3070160F30F21CC4A68F31741C3
S31500003C50019B6BF31F61C5F80B1003CA69601188DD
S31500003C60927808BF4FF0000AB3F5803FAA723CBFB6
S31500003C70C3F307222A75B6FBF7F20192029A29814D
S31500003C802A774FF000024FF0F8016A77AA77EA77B1
S31500003C90BB4A039F5FFA83FCAA6103F1A84228BFCF
S31500003CA02B6202F50412CBF3072B85F811A038BF5F
S31500003CB085F813C0CAF3072A032F28606975D8B29E
S31500003CC0C2F307419DF8106085F80FB085F812A081
S31500003CD0C3F307234FEA126200F0F08085F828301C
S31500003CE0802385F82430292385F826304AF6552383
S31500003CF0A5F8FE31049BAE75A24EC3F3072385F8E3
S31500003D00270085F8291085F82A20EB750FCEC5F80F
S31500003D1037303388C5F82B00A5F83B30B378C5F8A3
S31500003D202F10C5F83320294685F83D30204601235B
S31500003D30029AFEF791F9014600287FF4F7AE019B3F
S31500003D40BDF84220284603FB02F207F017F8039B52
S31500003D504FF00009012B8C4B18BF6FF007034FF093
S31500003D60FF0A4FEA136B019FCDF804B0AB46254618
S31500003D70089CCDF80880039B032B00F092804FF639
S31500003D80F873ABF80030019B8BF802A08BF8033078
S31500003D90049E08E05846BDF8422006F0EFFFB6EB59
S31500003DA0080644445AD0BE42B04628BFB8465946D3
S31500003DB0224628464346FEF74FF901460028E9D039
S31500003DC0B4E64FF0010B77E6012102EB4202013225
S31500003DD052080332039145E6BDF84200DDF844C0BF
S31500003DE04FEA4A110C91411E0B910CF1FF310A91D9
S31500003DF0CCF1000107900991002A40F0AF81B9F19A
S31500003E00000F3FF4BBAECDF80480C8E60D9A002A39
S31500003E103FF47FAEDDF80480C1E601225B4990469F
S31500003E2001984FEA133C04E031F8022F4FEA4808A4
S31500003E300AB16245F8D9019009E6019A002A7FF491
S31500003E4068AEB8F1010F7FF664AE4FEA5808CDF8B8
S31500003E500480A4E6132077E60190A0E6009B09F112
S31500003E600109994587D1DDF80880059B039AA1468B
S31500003E70032A08BF43462C4698465D4604E0B8EB45
S31500003E800608B14400F08A80B845464628BF3E463B
S31500003E904A46294620463346FEF7DEF80028EED08D
S31500003EA044E66FF00700CBF800004FF0FF30CBF888
S31500003EB004006FF07040CBF8080069E785F84430DD
S31500003EC0049B4FF0020A6B62802385F84030292359
S31500003ED04AF6552B85F842302D4E2E4B85F8430079
S31500003EE085F8451085F846202B630FCEC5F853306C
S31500003EF03388C5F84700A5F85730B378C5F84B1096
S31500003F00C5F84F2085F85930294601232046029AE4
S31500003F10C5F82CA0A5F8FEB1FEF79EF806460028C7
S31500003F207FF404AE029F01232946BA1D2046FEF700
S31500003F3093F83146BDF84220284606F01FFF164B7F
S31500003F4009F1FF392B6003F1FF5303F500532033CA
S31500003F502946C5F8E431FA1D01232046C5F8ECA12F
S31500003F60A5F8FEB1C5F8E891FEF776F801232946D3
S31500003F702046FA18FEF770F83146E0E6EC06010036
S31500003F803F00FF000C070100F8FFFF00700E010064
S31500003F90F80601000100060052526141039A032A05
S31500003FA000F0D180129BB3F5803F80F0C980022AD1
S31500003FB014BF4FF0010A4FF0040A0E9A002A40F08F
S31500003FC0B680129B0121CDE91432204613AAFEF7D2
S31500003FD05BF800287FF4AAAD139F684B9F4240F21E
S31500003FE0C380052308264FF63E427600013BF6B213
S31500003FF003D0B7FBF6F19142F7D8002E4FF480526A
S315000040004FF00001284608BFFF2606F0B7FE3F2204
S3150000401014AB009305F2EF1305F2BF11019300985C
S3150000402050F8043B642B009005D81BBF6420B7FBF7
S31500004030F0F03B46434313EB020E2CBF0120002059
S315000040407745C0F08E80002840F08B80002B61D031
S315000040503F20B2FBF0FCD0B2029000204FEA122BB8
S315000040604FEA12496BF3070069F30F20BCFBF6F920
S315000040704FEA126868F317404FF0000863F31F60B9
S315000040808860CCEB8C1006FB19CC101A7246C6461B
S315000040906CF307084FF03F0C4FEA132B81F80CB076
S315000040A04FEA134B1B0E8B73531EB3FBFCFC81F8BC
S315000040B00DB04FEA990B01302BF03F0B40EA0B0095
S315000040C060F30F28BCFBF6F069F317486AF31F6824
S315000040D0C1F80080CCEB8C1806FB10CCA3EB0803D0
S315000040E06CF3070E4FEA900C01332CF03F0C43EAB9
S315000040F00C0363F30F2E60F3174E019B02988B425D
S3150000410060F31F6EC1F804E004D01AB1974201F1C2
S31500004110100184D84AF65526012300222946204656
S31500004120A5F8FE61FDF798FF00287FF4FFAC00229A
S3150000413020461146FDF7A8FF003818BF012003E509
S315000041404FF0060A39E74FF00C0A36E740F6F572EB
S3150000415091453FF6DEAC0122039264E5CDF804807A
S315000041606FE4BE46BB1A73E74FF4805228460E9999
S3150000417006F004FE3F2FCDD9082648E7F7E10700F1
S315000041807F2801D880B27047B0F5803F02D2B1F5E2
S315000041906A7F01D00020704710B5002145F2205EED
S315000041A010220A4C80B2AEEB010301EB530334F844
S315000041B023C0844506D034BF19469E46013AF2D143
S315000041C0104610BD024A32F8230010BD60110100EE
S315000041D062110100B0F5803F1ED2264B264A30B54B
S315000041E084B2B4F5805F38BF134604330DE08C42C9
S315000041F010D333F8022C5FFA82FC0CEB010E7045EB
S315000042004FEA122209DB043382B133F8041C1D463F
S315000042100029ECD1204630BD7047082AFAD8DFE8DD
S3150000422002F0241E1B1815120F0C080005EB4C0398
S31500004230DBE7A4F5E354A4B2ECE7503CA4B2E9E70B
S315000042400834A4B2E6E71A3CA4B2E3E7303CA4B2D1
S31500004250E0E7203CA4B2DDE7103CA4B2DAE7631A3B
S3150000426003F00103E31A9CB2D4E7401A33F8104076
S31500004270D0E700BFB00E01006C0F0100022800D08D
S3150000428070470249024803F0A3B800BF5468020011
S31500004290989C012030B50C46ADF55D7D0346254959
S315000042A000941CA806F042FC41F28833224A2349B6
S315000042B003A806F03BFC224A2249146841F28833DF
S315000042C020461D4AFDF720FB1F4903A8FDF7C6FC43
S315000042D040BB1CA806F0F6FD1CAD41F28833164A19
S315000042E0CDE9000519495CA806F020FC20461849CE
S315000042F0FDF70AFB5CA806F0E5FD01465CA889B25D
S31500004300FDF74CFD4FF47A71642003F0F1FF0E497E
S315000043101048FDF7A3FC20460F49FDF7F5FA0DF509
S315000043205D7D30BD20460D49FDF7EEFA0DF55D7D4C
S3150000433030BD00BF200701004C0701005C070100EB
S31500004340746702007807010068050100B4070100E0
S31500004350180801007C060100300801009C070100D6
S3150000436030B584461446ADF5037D0B4662461849C2
S31500004370009402A806F0DAFB0A2216491648FFF74F
S3150000438059F8164C207010B10DF5037D30BD144D53
S31500004390144806F0C3FB02A94FF400722B460E48E0
S315000043A0FFF74CF90146207040B10F4806F04EFB6E
S315000043B00948FFF78DFA0DF5037D30BD29680B48D6
S315000043C006F044FB02A90A4806F040FBF0E700BFEE
S315000043D050080100A0080100344C01202C4C01209B
S315000043E0304C0120B40801006409010008090100ED
S315000043F03C0901002DE9F04F2DED048B89B0FDF746
S3150000440059FAFDF75FFAFDF76DFAFDF763FAFDF766
S3150000441097FBFDF751FBBF4BBF491B681C4618466F
S315000044200793FDF771FAFDF7F1FC2046BB49FDF74E
S315000044306BFA0122BA49BB48FEF7D2FFBA4C0D28E7
S31500004440207000F09682002800F08E82B74A11464E
S315000044501046FFF785FFFDF723FAFDF7DBF9FDF7B9
S3150000446093F9FDF74BF98046FDF74CF98246B048C3
S31500004470FDF79AF90346AF480093FDF795F90190C9
S31500004480B8F1000F00F06B824046D8F81430984718
S31500004490079CA9492046FDF737FABAF1000F00F04C
S315000044A05E82DAF81430504698472046A349FDF755
S315000044B02BFA2046A249FDF727FA9FEDA28A9FED27
S315000044C0A29ADFEDA28ADFF8D092DFF8C4B2EBE061
S315000044D041460098D8F818309847D9F80040002887
S315000044E040F0DF8051460198DAF8183098470028E6
S315000044F040F0D780D8ED027AF5EE009A67EE887A1A
S3150000450067EEA97A77EE887AFCEEE77A17EE903AAC
S3150000451020469AB28E49FDF7F7F9DAED027A67EE90
S31500004520887A67EEA97A77EE887AFCEEE77A17EE54
S31500004530903A20469AB28749FDF7E6F9D8ED037A14
S3150000454067EE887A67EEA97A77EE887AFCEEE77AE4
S3150000455017EE903A20469AB27F49FDF7D5F9DAED83
S31500004560037A67EE887A67EEA97A77EE887AFCEEA8
S31500004570E77A17EE903A20469AB27849FDF7C4F9E1
S31500004580D8ED047A67EE887A67EEA97A77EE887AAC
S31500004590FCEEE77A17EE903A20469AB27049FDF79C
S315000045A0B3F9DAED047A67EE887A67EEA97A77EEE0
S315000045B0887AFCEEE77A17EE903A20469AB2694975
S315000045C0FDF7A2F9684803680446B3F5007F80F258
S315000045D08980DAED047A67EE897A77EEA87A634AFB
S315000045E0FCEEE77A02EB830C614A02EB8307614A31
S315000045F002EB8306604A02EB8305604A02EB830204
S3150000460002925F4A02EB8300039020465C1C046022
S3150000461017EE900A0BEB8302049203F500720BEB84
S315000046208201584C03F580620BEB820224F81300DA
S31500004630069203F5C06205910BEB820E03F500614D
S3150000464003F52062D8F80830029CCCF80030D8F880
S315000046500C3003983B60D8F810300BEB81013360C7
S31500004660DAF808300BEB82022B60DAF80C302360A4
S31500004670DAF810300360D8F8083004980360D8F8E8
S315000046800C3005980360D8F8103006980360DAF805
S315000046900830CEF80030DAF80C300B60DAF810305B
S315000046A013600520FBF7B8FFFDF784F901287FF4B6
S315000046B00FAF354B9B78662B0BD0992B7FF408AF49
S315000046C03248002283684FF44371DB6900689847DB
S315000046D0FEE602462D484FF4437183680068DB69A5
S315000046E09847F5E62A48FBF77FFF0446FBF778FF75
S315000046F0012203460621274804F006FA062C57D85D
S31500004700DFE814F0E5000401B8008F0084006100C2
S315000047104C0000BF7467020088090100A00901006F
S31500004720B40901005C5C01202C4C0120F409010055
S315000047302C0401001C040100080A0100240A0100DF
S31500004740400A01000000484200007A4300007A4413
S31500004750640A01007C0A0100940A0100AC0A010007
S31500004760C40A0100DC0A0100949C012094940120F3
S31500004770948C012094840120947C0120947401205F
S31500004780946C01202C3801201C050120E4650200F0
S31500004790780701207837012030660200814B58697E
S315000047A005F006F802460B4607987F49FDF7ACF878
S315000047B07E4A7F497F48FFF76DFDFDF73FFA0023EC
S315000047C07D4A13606DE7774B7A4E186904F0F0FF67
S315000047D07A4F02460B4607987949FDF795F80FCFB1
S315000047E00FC697E80700DFF8C8C1764B86E80700D2
S315000047F00FCBACE807006D4C734DACF800300FCD15
S315000048000FC495E80F0007C42380D1E7654BD8682D
S3150000481004F0CEFF02460B4607986C49FDF774F884
S31500004820C6E7604B634E986804F0C2FF684F0246C5
S315000048300B4607986749FDF767F80FCF0FC697E84D
S315000048400F0007C65A4D644C33800FCC0FC50FCCF2
S315000048500FC594E80300DFF854C1DFF8A0E1286033
S31500004860A980BEE80F00ACE80F009EE807008CE8C0
S3150000487007009DE74B4B4F4E586804F099FF0246E0
S315000048800B4607985549FDF73FF8DFF884E1484D98
S31500004890BEE80F000FC69EE8070003C6504C3280E4
S315000048A0120CB2700FCC0FC50FCC0FC594E80300E5
S315000048B03E4FDFF848C1A980090C2860A971BCE801
S315000048C00F000FC79CE8070087E8070070E7394E1E
S315000048D0444F07984449FDF717F80FCF0FC63B68BA
S315000048E0DFF8CCC03370414B304D93E80700ACE89D
S315000048F003003F4CACF80020120C8CF802200FCCC1
S315000049000FC594E803002860A98051E7254B284C81
S31500004910186804F04DFF02460B4607983549FCF728
S31500004920F3FFDFF890C0DFF8ECE0334DBEE80F0090
S31500004930ACE80F009EE807008CE807000FCD0FC417
S315000049400FCD0FC495E8070003C4184E2B4F2270F5
S315000049500FCF0FC697E8070086E8070028E709B0DB
S31500004960BDEC048BBDE8F08F07982549FCF7CCFF1A
S315000049706CE54FF480530021224A2348FEF7BAFF24
S31500004980207000287FF462AD01221F49FEF728FD42
S31500004990034601221C491D482370FEF721FD2070A5
S315000049A054E500BF78370120A80D0100903701209B
S315000049B0C4370120F8370120949C01205C0D0100CA
S315000049C01C0D0100780D0100880D0100E80C0100A6
S315000049D0A00C0100600C0100C00C0100DC0B010002
S315000049E0380C0100F4090100F40A0100140B01005F
S315000049F0200B0100380B0100940B0100C00B0100D5
S31500004A00B80901002C3C0120B40901005C5C0120BE
S31500004A101C0C0100780B0100006801F07DB900BF95
S31500004A2008B5FFF7E7FC002008BD00BF844600205C
S31500004A30CCE90A32CCF82410704700BF002210B52A
S31500004A40436802605A69044622B1936810681B6A7B
S31500004A50984763681A6922B1936810681B6A984779
S31500004A60636893F90220002A0EDB012124485309CA
S31500004A7002F01F02203301FA02F240F82320BFF3AE
S31500004A804F8FBFF36F8F636893F90120002A0EDB07
S31500004A9001211B48530902F01F02203301FA02F2DA
S31500004AA040F82320BFF34F8FBFF36F8F6368012257
S31500004AB093F903301248590903F01F03203102FA13
S31500004AC003F340F82130BFF34F8FBFF36F8F636856
S31500004AD093F90430590903F01F039A4001F12003AA
S31500004AE040F82320BFF34F8FBFF36F8F0020A268DB
S31500004AF0137823F040031370A368DA78D87010BDDA
S31500004B0000E100E070B51D4683689DF810C01B7873
S31500004B1013F0400340F0CC80C0E90312C0E905332E
S31500004B200E464168C56180F820C0044648690028E1
S31500004B3030D0BCF10F0FA56159D902204B695B68D3
S31500004B401B68D97860F30511D970022063685B6928
S31500004B505B681B68997860F3830199706368A9B2F2
S31500004B605B695B681B68D98163685B695B681B6806
S31500004B709A60002A00F0AC8063685B695A6818681E
S31500004B8011689A6853689847002840F086806168E3
S31500004B9094F820C00B69002B51D065610B69BCF1FC
S31500004BA00F0F5B681B68DA7878D9022161F305126A
S31500004BB0DA70022163681B695B681B68DA7861F347
S31500004BC08302DA706368AAB2597A186AD1B9C8B191
S31500004BD0017B012916D1E169012913D0013D6561E7
S31500004BE01B69013A5B6892B21B68DA810EE049697B
S31500004BF0BCF1070F4968096864D8C87863F30510E3
S31500004C00C870A2E71B695B681B68DA8163681B6969
S31500004C105B681B685E60002E69D0A268137823F07B
S31500004C202003137063681B69D3E9011218680968C9
S31500004C3052689047002830D194F820C06168A06877
S31500004C40BCF10F0FC37ADAB2038A9BB232D90CF1E8
S31500004C50010C22F040024FEA9C0CACF1050C42F02C
S31500004C6020024D7A23F47063096A43EA0C2355B98E
S31500004C7049B1097B012906D1E169012914BF43F035
S31500004C80800323F08003C2720020A2689BB21382C5
S31500004C90A268137843F06003137070BDBCF1070F70
S31500004CA08ABF012122F0300261F30512DA7080E733
S31500004CB0082070BDBCF1070F94BF42F0400202F01D
S31500004CC09F02CEE70120CB7860F30513CB703CE75B
S31500004CD063680E485B695B681B68997862F38301B9
S31500004CE0997063685B695B681B68986044E76368F2
S31500004CF007491B695B681B68DA7866F38302DA701A
S31500004D0063681B695B681B68596086E75CA00120C5
S31500004D1058A0012010B594468E461C4682B000214C
S31500004D20724663460094FFF7EDFE02B010BD00BF69
S31500004D3010B594461C4682B0002263460094FFF7E5
S31500004D40E1FE02B010BD00BF10B49DF8044001940E
S31500004D505DF8044BFFF7D6BE42684369517A126A82
S31500004D6019B912B1127B012A28D0C269511E994283
S31500004D7007D181680A8A22F080021204120C0A8284
S31500004D80C26993420CD0D0E9021232B190F820C029
S31500004D90BCF10F0F05D952F8232001334A60436155
S31500004DA07047BCF1070F94BFD25C32F8132003F1B1
S31500004DB0010394BF0A718A80436170478268D27882
S31500004DC09206EDD5D1E700BF30B5836A85B00446BB
S31500004DD08C4601ADABB193E8070085E80700626831
S31500004DE01846127883F804C01A60E26A9A60636A09
S31500004DF09847A36A1BB195E8070083E8070005B04A
S31500004E0030BD2B46EBE700BF2DE9F04F0B78DFF8FE
S31500004E1018830F691B020D46044683B098448FB170
S31500004E204FF000627B681B681A607B681B68C3F8DA
S31500004E300880BB68D7E900011B689847064600282A
S31500004E4040F01B816B698BB14FF400215A681268E0
S31500004E5011605A681268C2F804809A68D3E90001A2
S31500004E60126890470646002840F00B8100216560D5
S31500004E70AB696362EB69C4E90A132B7803F5800317
S31500004E8003F58D531B02A3606F7A002F00F0038198
S31500004E904FF0B00C88466A7BE87A120342EA400279
S31500004EA02B6AA87A02431878002840F0FA8001217C
S31500004EB028788140890740F0288193F801E09978A5
S31500004EC04FEA4E102CEACE1540EA4E0022F070064C
S31500004ED02843DA781D7901FA02FC12011DB1022D70
S31500004EE00CBF30252025597929B1012914BF48F076
S31500004EF0010848F00308197A93F806B001F0030197
S31500004F0042EA81023243002F40F0D080997A5F7ADC
S31500004F1093F80BE042F460420191EFF3108A01210D
S31500004F2081F31088666896F80090C9F1130901FAB2
S31500004F3009F1DFF8F891D9F8046026EA0101C9F809
S31500004F400410D9F804108AF310884FF000095FFAAC
S31500004F508CF1D4F808C0C0B29CF803A08CF803907A
S31500004F60A6685FFA88F83070A06892B24170A168AE
S31500004F708D70A168D8798872A16801980F73A168AD
S31500004F804873A16881F80EE0A16881F80F80A168D6
S31500004F900A82A26882F820B06268527A002A40F03B
S31500004FA083801B7B012B0CBF12221022A36883F87F
S31500004FB02120636893F90220002A7DDA564993F985
S31500004FC00120002A26DB5B7902F160401B01DBB27F
S31500004FD000F5614080F80033504B41F8224002F161
S31500004FE0C00053F8205025F4803543F8205053F87C
S31500004FF02030BFF35F8F012053099B0002F01F0290
S3150000500003F1604303F5614300FA02F2C3F880211D
S315000050101A6063681A7A424893F9043012013F4DC8
S31500005020C618D2B286F8002341F8234003F1C00225
S3150000503055F8226026F4803645F8226055F822207D
S31500005040BFF35F8F012203F01F055B099B0003F18D
S31500005050604303F56143AA40C3F880211A60002625
S31500005060636893F90320DB7910441B01DBB280F8F7
S3150000507000332C4B41F822402360304603B0BDE894
S31500005080F08F002FF9D0BB6838681B6A9847304606
S3150000509003B0BDE8F08F4FF0B80C08214FF01008B0
S315000050A0F9E641F0B10C08E710227FE74FF0000E59
S315000050B07746CDF804E030E79B7902F160401B01AA
S315000050C01549DBB200F5614080F80033134B41F817
S315000050D0224002F1C00053F8205025F4803543F8F1
S315000050E0205053F82030BFF35F8F012053099B00F7
S315000050F002F01F0203F1604303F5614300FA02F276
S31500005100C3F880211A60636859E7B7FA87F149093D
S3150000511042EAC112D1E600BFA4A00120006000400F
S3150000512000E100E04950535204A0114000400840FD
S3150000513010B4EFF30383103B204A5BB203F1C001C6
S3150000514052F8210020F4803042F8210052F8212044
S315000051501B4A52F82330D3E906218A421DD018692A
S315000051609C6840B393F820100F290ED8072995BFE5
S315000051702179A188815420F81210D96901328A4216
S315000051809A610AD05DF8044B7047616840F82210B6
S31500005190D96901328A429A61F4D15B6893F9033086
S315000051A0012203F01F0007495B09824041F82320D2
S315000051B05DF8044B70476068E0E700BF00600040A0
S315000051C0A4A0012000E100E0EFF30383103B254A91
S315000051D05BB203F1C00152F8210020F4803042F89E
S315000051E0210052F82110204951F8230041680B6A2A
S315000051F013B15B78012B01D0FFF7AEBD10B4C469C3
S3150000520004F1FF3C446964450FD00A694AB191F93B
S315000052100320164902F01F0C03FA0CF3520941F859
S3150000522022305DF8044BFFF797BD91F9031001F1A9
S31500005230C00C52F82C4024F4803442F82C4052F82A
S315000052402C20BFF35F8F4A09920001F01F0102F183
S31500005250604203FA01F102F56142C2F88011116061
S31500005260DFE700BF00600040A4A0012000E100E0ED
S3150000527010B4EFF30382103A344953B203F1C0007D
S3150000528051F8204002F0FF0224F4803441F8204017
S3150000529051F820102E4951F823008168C9788907F2
S315000052A006D54168497A012902D05DF8044B70475A
S315000052B00121284C5B0902F01F02203301FA02F299
S315000052C044F82320BFF34F8FBFF36F8F436893F9E2
S315000052D00230002B0BDB5A0903F01F03994002F141
S315000052E0200344F82310BFF34F8FBFF36F8F8268FC
S315000052F0137823F040031370436893F90230002BB0
S3150000530004DA01215DF8044BFFF75EBD0F4A03F195
S31500005310C00152F8214024F4803442F8214052F86A
S315000053202120BFF35F8F01215A09920003F01F036A
S3150000533002F1604202F5614201FA03F3C2F88031DC
S31500005340136001215DF8044BFFF73EBD006000408D
S31500005350A4A0012000E100E070B5EFF30383344A16
S31500005360103B5CB252F824506B6893F90230002B64
S315000053700DDB01212F485A0903F01F03203201FAE1
S3150000538003F340F82230BFF34F8FBFF36F8FAA6845
S31500005390137823F0400313706B6893F90230002BE7
S315000053A01ADB254A03F1C00152F8210020F48030AF
S315000053B042F8210052F82120BFF35F8F01215A09DC
S315000053C0920003F01F0302F1604202F5614201FA06
S315000053D003F3C2F8803113600021AA68D378D17034
S315000053E01A07DEB211D4F30715D406F01406142EEC
S315000053F019D0114A04F1C00352F8231021F4803168
S3150000540042F8231052F8233070BD05212846FFF7D5
S31500005410DBFCF307E9D50421284606F01406FFF75E
S31500005420D3FC142EE5D108212846FFF7CDFCE0E792
S31500005430A4A0012000E100E00060004042680346AD
S31500005440127E012A11BF0122026A926BC2F3401238
S315000054508A70827F00200A701B6ADB6B03F481432B
S31500005460803B18BF01234B70704700BF002370B408
S315000054704FF4F946046A95B2A363046A120CE36317
S31500005480046A4362236C23F0010343F0040323649C
S31500005490036A5E64046AA36C43F44073A364036AFC
S315000054A09D60036ADA60036A196070BC704700BFCA
S315000054B010B41C4B1C4A1B6A1268C3F30264A24058
S315000054C0C3F30223DA409142844627D2002301E047
S315000054D08C4209D901330A2B22FA03F4F8D149F692
S315000054E040405DF8044B70470120984080084FF417
S315000054F08053DCF8201001E0013BF0D0CA6B920427
